{
	"vote.sol": {
		"Election": {
			"abi": [
				{
					"inputs": [
						{
							"components": [
								{
									"internalType": "string",
									"name": "name",
									"type": "string"
								},
								{
									"internalType": "string",
									"name": "description",
									"type": "string"
								}
							],
							"internalType": "struct Election.President[]",
							"name": "_initialPresidents",
							"type": "tuple[]"
						},
						{
							"internalType": "uint256",
							"name": "_maxVotes",
							"type": "uint256"
						},
						{
							"internalType": "uint256",
							"name": "_electionTime",
							"type": "uint256"
						}
					],
					"stateMutability": "nonpayable",
					"type": "constructor"
				},
				{
					"inputs": [],
					"name": "ElectionWasStoppedByOwner",
					"type": "error"
				},
				{
					"inputs": [
						{
							"internalType": "uint256",
							"name": "_maxIndex",
							"type": "uint256"
						}
					],
					"name": "IndexDoesNotExist",
					"type": "error"
				},
				{
					"inputs": [
						{
							"internalType": "uint256",
							"name": "_maxVotes",
							"type": "uint256"
						}
					],
					"name": "MaximumNumberOfVotesReached",
					"type": "error"
				},
				{
					"inputs": [],
					"name": "OnlyOwnerCanControlState",
					"type": "error"
				},
				{
					"inputs": [],
					"name": "OwnerCanNotVote",
					"type": "error"
				},
				{
					"inputs": [
						{
							"internalType": "uint256",
							"name": "_electionCompletionTime",
							"type": "uint256"
						}
					],
					"name": "TimeIsUp",
					"type": "error"
				},
				{
					"inputs": [],
					"name": "YouHaveAlreadyVoted",
					"type": "error"
				},
				{
					"anonymous": false,
					"inputs": [
						{
							"indexed": false,
							"internalType": "uint256",
							"name": "_index",
							"type": "uint256"
						},
						{
							"indexed": false,
							"internalType": "address",
							"name": "_voterAddress",
							"type": "address"
						},
						{
							"indexed": false,
							"internalType": "uint256",
							"name": "_totalVotes",
							"type": "uint256"
						}
					],
					"name": "VoteIsOk",
					"type": "event"
				},
				{
					"inputs": [
						{
							"internalType": "string",
							"name": "_name",
							"type": "string"
						},
						{
							"internalType": "string",
							"name": "_description",
							"type": "string"
						}
					],
					"name": "addPresident",
					"outputs": [],
					"stateMutability": "nonpayable",
					"type": "function"
				},
				{
					"inputs": [
						{
							"internalType": "uint256",
							"name": "_additionalTime",
							"type": "uint256"
						}
					],
					"name": "addVotingTime",
					"outputs": [],
					"stateMutability": "nonpayable",
					"type": "function"
				},
				{
					"inputs": [],
					"name": "getLeaderIndex",
					"outputs": [
						{
							"internalType": "uint256",
							"name": "",
							"type": "uint256"
						}
					],
					"stateMutability": "view",
					"type": "function"
				},
				{
					"inputs": [],
					"name": "getPresidentsInfoString",
					"outputs": [
						{
							"internalType": "string",
							"name": "",
							"type": "string"
						}
					],
					"stateMutability": "view",
					"type": "function"
				},
				{
					"inputs": [
						{
							"internalType": "uint256",
							"name": "_indexOfPresident",
							"type": "uint256"
						}
					],
					"name": "getVotesOfPresident",
					"outputs": [
						{
							"internalType": "string",
							"name": "",
							"type": "string"
						}
					],
					"stateMutability": "view",
					"type": "function"
				},
				{
					"inputs": [],
					"name": "maxVotes",
					"outputs": [
						{
							"internalType": "uint256",
							"name": "",
							"type": "uint256"
						}
					],
					"stateMutability": "view",
					"type": "function"
				},
				{
					"inputs": [
						{
							"internalType": "bool",
							"name": "_isActiveVoting",
							"type": "bool"
						}
					],
					"name": "setStateOfVoting",
					"outputs": [],
					"stateMutability": "nonpayable",
					"type": "function"
				},
				{
					"inputs": [],
					"name": "totalVotes",
					"outputs": [
						{
							"internalType": "uint256",
							"name": "",
							"type": "uint256"
						}
					],
					"stateMutability": "view",
					"type": "function"
				},
				{
					"inputs": [
						{
							"internalType": "uint256",
							"name": "_indexOfPresident",
							"type": "uint256"
						}
					],
					"name": "vote",
					"outputs": [],
					"stateMutability": "nonpayable",
					"type": "function"
				}
			],
			"devdoc": {
				"kind": "dev",
				"methods": {},
				"version": 1
			},
			"evm": {
				"assembly": "    /* \"vote.sol\":111:3720  contract Election {... */\n  mstore(0x40, 0x80)\n    /* \"vote.sol\":238:242  true */\n  0x01\n    /* \"vote.sol\":216:242  bool isActiveVoting = true */\n  0x00\n  exp(0x0100, 0x00)\n  dup2\n  sload\n  dup2\n  0xff\n  mul\n  not\n  and\n  swap1\n  dup4\n  iszero\n  iszero\n  mul\n  or\n  swap1\n  sstore\n  pop\n    /* \"vote.sol\":334:335  0 */\n  0x00\n    /* \"vote.sol\":306:335  uint256 public totalVotes = 0 */\n  0x02\n  sstore\n    /* \"vote.sol\":1010:1544  constructor(President[] memory _initialPresidents, uint256 _maxVotes, uint256 _electionTime){... */\n  callvalue\n  dup1\n  iszero\n  tag_1\n  jumpi\n  revert(0x00, 0x00)\ntag_1:\n  pop\n  mload(0x40)\n  sub(codesize, bytecodeSize)\n  dup1\n  bytecodeSize\n  dup4\n  codecopy\n  dup2\n  dup2\n  add\n  0x40\n  mstore\n  dup2\n  add\n  swap1\n  tag_2\n  swap2\n  swap1\n  tag_3\n  jump\t// in\ntag_2:\n    /* \"vote.sol\":1123:1132  _maxVotes */\n  dup2\n    /* \"vote.sol\":1112:1120  maxVotes */\n  0x01\n    /* \"vote.sol\":1112:1132  maxVotes = _maxVotes */\n  dup2\n  swap1\n  sstore\n  pop\n    /* \"vote.sol\":1149:1159  msg.sender */\n  caller\n    /* \"vote.sol\":1142:1147  owner */\n  0x00\n  0x01\n    /* \"vote.sol\":1142:1159  owner= msg.sender */\n  0x0100\n  exp\n  dup2\n  sload\n  dup2\n  0xffffffffffffffffffffffffffffffffffffffff\n  mul\n  not\n  and\n  swap1\n  dup4\n  0xffffffffffffffffffffffffffffffffffffffff\n  and\n  mul\n  or\n  swap1\n  sstore\n  pop\n    /* \"vote.sol\":1212:1225  _electionTime */\n  dup1\n    /* \"vote.sol\":1194:1209  block.timestamp */\n  timestamp\n    /* \"vote.sol\":1194:1225  block.timestamp + _electionTime */\n  tag_6\n  swap2\n  swap1\n  tag_7\n  jump\t// in\ntag_6:\n    /* \"vote.sol\":1169:1191  electionCompletionTime */\n  0x03\n    /* \"vote.sol\":1169:1225  electionCompletionTime = block.timestamp + _electionTime */\n  dup2\n  swap1\n  sstore\n  pop\n    /* \"vote.sol\":1236:1244  uint len */\n  0x00\n    /* \"vote.sol\":1247:1265  _initialPresidents */\n  dup4\n    /* \"vote.sol\":1247:1272  _initialPresidents.length */\n  mload\n    /* \"vote.sol\":1236:1272  uint len = _initialPresidents.length */\n  swap1\n  pop\n    /* \"vote.sol\":1293:1294  0 */\n  0x00\n    /* \"vote.sol\":1286:1289  len */\n  dup2\n    /* \"vote.sol\":1286:1294  len <= 0 */\n  gt\n    /* \"vote.sol\":1283:1538  if(len <= 0) {... */\n  tag_8\n  jumpi\n    /* \"vote.sol\":1310:1361  addPresident(\"John\", \"Some description about John\") */\n  tag_9\n  mload(0x40)\n  dup1\n  0x40\n  add\n  0x40\n  mstore\n  dup1\n  0x04\n  dup2\n  mstore\n  0x20\n  add\n  0x4a6f686e00000000000000000000000000000000000000000000000000000000\n  dup2\n  mstore\n  pop\n  mload(0x40)\n  dup1\n  0x40\n  add\n  0x40\n  mstore\n  dup1\n  0x1b\n  dup2\n  mstore\n  0x20\n  add\n  0x536f6d65206465736372697074696f6e2061626f7574204a6f686e0000000000\n  dup2\n  mstore\n  pop\n    /* \"vote.sol\":1310:1322  addPresident */\n  shl(0x20, tag_10)\n    /* \"vote.sol\":1310:1361  addPresident(\"John\", \"Some description about John\") */\n  0x20\n  shr\n  jump\t// in\ntag_9:\n    /* \"vote.sol\":1283:1538  if(len <= 0) {... */\n  jump(tag_11)\ntag_8:\n    /* \"vote.sol\":1397:1405  uint24 i */\n  0x00\n    /* \"vote.sol\":1392:1528  for (uint24 i; i < len; i++){... */\ntag_12:\n    /* \"vote.sol\":1411:1414  len */\n  dup2\n    /* \"vote.sol\":1407:1408  i */\n  dup2\n    /* \"vote.sol\":1407:1414  i < len */\n  0xffffff\n  and\n  lt\n    /* \"vote.sol\":1392:1528  for (uint24 i; i < len; i++){... */\n  iszero\n  tag_13\n  jumpi\n    /* \"vote.sol\":1438:1513  addPresident(_initialPresidents[i].name, _initialPresidents[i].description) */\n  tag_15\n    /* \"vote.sol\":1451:1469  _initialPresidents */\n  dup6\n    /* \"vote.sol\":1470:1471  i */\n  dup3\n    /* \"vote.sol\":1451:1472  _initialPresidents[i] */\n  0xffffff\n  and\n  dup2\n  mload\n  dup2\n  lt\n  tag_16\n  jumpi\n  tag_17\n  tag_18\n  jump\t// in\ntag_17:\ntag_16:\n  0x20\n  mul\n  0x20\n  add\n  add\n  mload\n    /* \"vote.sol\":1451:1477  _initialPresidents[i].name */\n  0x00\n  add\n  mload\n    /* \"vote.sol\":1479:1497  _initialPresidents */\n  dup7\n    /* \"vote.sol\":1498:1499  i */\n  dup4\n    /* \"vote.sol\":1479:1500  _initialPresidents[i] */\n  0xffffff\n  and\n  dup2\n  mload\n  dup2\n  lt\n  tag_19\n  jumpi\n  tag_20\n  tag_18\n  jump\t// in\ntag_20:\ntag_19:\n  0x20\n  mul\n  0x20\n  add\n  add\n  mload\n    /* \"vote.sol\":1479:1512  _initialPresidents[i].description */\n  0x20\n  add\n  mload\n    /* \"vote.sol\":1438:1450  addPresident */\n  shl(0x20, tag_10)\n    /* \"vote.sol\":1438:1513  addPresident(_initialPresidents[i].name, _initialPresidents[i].description) */\n  0x20\n  shr\n  jump\t// in\ntag_15:\n    /* \"vote.sol\":1416:1419  i++ */\n  dup1\n  dup1\n  tag_21\n  swap1\n  tag_22\n  jump\t// in\ntag_21:\n  swap2\n  pop\n  pop\n    /* \"vote.sol\":1392:1528  for (uint24 i; i < len; i++){... */\n  jump(tag_12)\ntag_13:\n  pop\n    /* \"vote.sol\":1283:1538  if(len <= 0) {... */\ntag_11:\n    /* \"vote.sol\":1102:1544  {... */\n  pop\n    /* \"vote.sol\":1010:1544  constructor(President[] memory _initialPresidents, uint256 _maxVotes, uint256 _electionTime){... */\n  pop\n  pop\n  pop\n    /* \"vote.sol\":111:3720  contract Election {... */\n  jump(tag_23)\n    /* \"vote.sol\":2507:2649  function addPresident(string memory _name, string memory _description) public {... */\ntag_10:\n    /* \"vote.sol\":2595:2605  presidents */\n  0x04\n    /* \"vote.sol\":2611:2641  President(_name, _description) */\n  mload(0x40)\n  dup1\n  0x40\n  add\n  0x40\n  mstore\n  dup1\n    /* \"vote.sol\":2621:2626  _name */\n  dup5\n    /* \"vote.sol\":2611:2641  President(_name, _description) */\n  dup2\n  mstore\n  0x20\n  add\n    /* \"vote.sol\":2628:2640  _description */\n  dup4\n    /* \"vote.sol\":2611:2641  President(_name, _description) */\n  dup2\n  mstore\n  pop\n    /* \"vote.sol\":2595:2642  presidents.push(President(_name, _description)) */\n  swap1\n  dup1\n  0x01\n  dup2\n  sload\n  add\n  dup1\n  dup3\n  sstore\n  dup1\n  swap2\n  pop\n  pop\n  0x01\n  swap1\n  sub\n  swap1\n  0x00\n  mstore\n  keccak256(0x00, 0x20)\n  swap1\n  0x02\n  mul\n  add\n  0x00\n  swap1\n  swap2\n  swap1\n  swap2\n  swap1\n  swap2\n  pop\n  0x00\n  dup3\n  add\n  mload\n  dup2\n  0x00\n  add\n  swap1\n  dup2\n  tag_26\n  swap2\n  swap1\n  tag_27\n  jump\t// in\ntag_26:\n  pop\n  0x20\n  dup3\n  add\n  mload\n  dup2\n  0x01\n  add\n  swap1\n  dup2\n  tag_28\n  swap2\n  swap1\n  tag_27\n  jump\t// in\ntag_28:\n  pop\n  pop\n  pop\n    /* \"vote.sol\":2507:2649  function addPresident(string memory _name, string memory _description) public {... */\n  pop\n  pop\n  jump\t// out\n    /* \"#utility.yul\":7:82   */\ntag_29:\n    /* \"#utility.yul\":40:46   */\n  0x00\n    /* \"#utility.yul\":73:75   */\n  0x40\n    /* \"#utility.yul\":67:76   */\n  mload\n    /* \"#utility.yul\":57:76   */\n  swap1\n  pop\n    /* \"#utility.yul\":7:82   */\n  swap1\n  jump\t// out\n    /* \"#utility.yul\":88:205   */\ntag_30:\n    /* \"#utility.yul\":197:198   */\n  0x00\n    /* \"#utility.yul\":194:195   */\n  0x00\n    /* \"#utility.yul\":187:199   */\n  revert\n    /* \"#utility.yul\":211:328   */\ntag_31:\n    /* \"#utility.yul\":320:321   */\n  0x00\n    /* \"#utility.yul\":317:318   */\n  0x00\n    /* \"#utility.yul\":310:322   */\n  revert\n    /* \"#utility.yul\":334:451   */\ntag_32:\n    /* \"#utility.yul\":443:444   */\n  0x00\n    /* \"#utility.yul\":440:441   */\n  0x00\n    /* \"#utility.yul\":433:445   */\n  revert\n    /* \"#utility.yul\":457:559   */\ntag_33:\n    /* \"#utility.yul\":498:504   */\n  0x00\n    /* \"#utility.yul\":549:551   */\n  0x1f\n    /* \"#utility.yul\":545:552   */\n  not\n    /* \"#utility.yul\":540:542   */\n  0x1f\n    /* \"#utility.yul\":533:538   */\n  dup4\n    /* \"#utility.yul\":529:543   */\n  add\n    /* \"#utility.yul\":525:553   */\n  and\n    /* \"#utility.yul\":515:553   */\n  swap1\n  pop\n    /* \"#utility.yul\":457:559   */\n  swap2\n  swap1\n  pop\n  jump\t// out\n    /* \"#utility.yul\":565:745   */\ntag_34:\n    /* \"#utility.yul\":613:690   */\n  0x4e487b7100000000000000000000000000000000000000000000000000000000\n    /* \"#utility.yul\":610:611   */\n  0x00\n    /* \"#utility.yul\":603:691   */\n  mstore\n    /* \"#utility.yul\":710:714   */\n  0x41\n    /* \"#utility.yul\":707:708   */\n  0x04\n    /* \"#utility.yul\":700:715   */\n  mstore\n    /* \"#utility.yul\":734:738   */\n  0x24\n    /* \"#utility.yul\":731:732   */\n  0x00\n    /* \"#utility.yul\":724:739   */\n  revert\n    /* \"#utility.yul\":751:1032   */\ntag_35:\n    /* \"#utility.yul\":834:861   */\n  tag_80\n    /* \"#utility.yul\":856:860   */\n  dup3\n    /* \"#utility.yul\":834:861   */\n  tag_33\n  jump\t// in\ntag_80:\n    /* \"#utility.yul\":826:832   */\n  dup2\n    /* \"#utility.yul\":822:862   */\n  add\n    /* \"#utility.yul\":964:970   */\n  dup2\n    /* \"#utility.yul\":952:962   */\n  dup2\n    /* \"#utility.yul\":949:971   */\n  lt\n    /* \"#utility.yul\":928:946   */\n  0xffffffffffffffff\n    /* \"#utility.yul\":916:926   */\n  dup3\n    /* \"#utility.yul\":913:947   */\n  gt\n    /* \"#utility.yul\":910:972   */\n  or\n    /* \"#utility.yul\":907:995   */\n  iszero\n  tag_81\n  jumpi\n    /* \"#utility.yul\":975:993   */\n  tag_82\n  tag_34\n  jump\t// in\ntag_82:\n    /* \"#utility.yul\":907:995   */\ntag_81:\n    /* \"#utility.yul\":1015:1025   */\n  dup1\n    /* \"#utility.yul\":1011:1013   */\n  0x40\n    /* \"#utility.yul\":1004:1026   */\n  mstore\n    /* \"#utility.yul\":794:1032   */\n  pop\n    /* \"#utility.yul\":751:1032   */\n  pop\n  pop\n  jump\t// out\n    /* \"#utility.yul\":1038:1167   */\ntag_36:\n    /* \"#utility.yul\":1072:1078   */\n  0x00\n    /* \"#utility.yul\":1099:1119   */\n  tag_84\n  tag_29\n  jump\t// in\ntag_84:\n    /* \"#utility.yul\":1089:1119   */\n  swap1\n  pop\n    /* \"#utility.yul\":1128:1161   */\n  tag_85\n    /* \"#utility.yul\":1156:1160   */\n  dup3\n    /* \"#utility.yul\":1148:1154   */\n  dup3\n    /* \"#utility.yul\":1128:1161   */\n  tag_35\n  jump\t// in\ntag_85:\n    /* \"#utility.yul\":1038:1167   */\n  swap2\n  swap1\n  pop\n  jump\t// out\n    /* \"#utility.yul\":1173:1511   */\ntag_37:\n    /* \"#utility.yul\":1277:1281   */\n  0x00\n    /* \"#utility.yul\":1367:1385   */\n  0xffffffffffffffff\n    /* \"#utility.yul\":1359:1365   */\n  dup3\n    /* \"#utility.yul\":1356:1386   */\n  gt\n    /* \"#utility.yul\":1353:1409   */\n  iszero\n  tag_87\n  jumpi\n    /* \"#utility.yul\":1389:1407   */\n  tag_88\n  tag_34\n  jump\t// in\ntag_88:\n    /* \"#utility.yul\":1353:1409   */\ntag_87:\n    /* \"#utility.yul\":1439:1443   */\n  0x20\n    /* \"#utility.yul\":1431:1437   */\n  dup3\n    /* \"#utility.yul\":1427:1444   */\n  mul\n    /* \"#utility.yul\":1419:1444   */\n  swap1\n  pop\n    /* \"#utility.yul\":1499:1503   */\n  0x20\n    /* \"#utility.yul\":1493:1497   */\n  dup2\n    /* \"#utility.yul\":1489:1504   */\n  add\n    /* \"#utility.yul\":1481:1504   */\n  swap1\n  pop\n    /* \"#utility.yul\":1173:1511   */\n  swap2\n  swap1\n  pop\n  jump\t// out\n    /* \"#utility.yul\":1517:1634   */\ntag_38:\n    /* \"#utility.yul\":1626:1627   */\n  0x00\n    /* \"#utility.yul\":1623:1624   */\n  0x00\n    /* \"#utility.yul\":1616:1628   */\n  revert\n    /* \"#utility.yul\":1640:1757   */\ntag_39:\n    /* \"#utility.yul\":1749:1750   */\n  0x00\n    /* \"#utility.yul\":1746:1747   */\n  0x00\n    /* \"#utility.yul\":1739:1751   */\n  revert\n    /* \"#utility.yul\":1763:1880   */\ntag_40:\n    /* \"#utility.yul\":1872:1873   */\n  0x00\n    /* \"#utility.yul\":1869:1870   */\n  0x00\n    /* \"#utility.yul\":1862:1874   */\n  revert\n    /* \"#utility.yul\":1886:2003   */\ntag_41:\n    /* \"#utility.yul\":1995:1996   */\n  0x00\n    /* \"#utility.yul\":1992:1993   */\n  0x00\n    /* \"#utility.yul\":1985:1997   */\n  revert\n    /* \"#utility.yul\":2009:2317   */\ntag_42:\n    /* \"#utility.yul\":2071:2075   */\n  0x00\n    /* \"#utility.yul\":2161:2179   */\n  0xffffffffffffffff\n    /* \"#utility.yul\":2153:2159   */\n  dup3\n    /* \"#utility.yul\":2150:2180   */\n  gt\n    /* \"#utility.yul\":2147:2203   */\n  iszero\n  tag_94\n  jumpi\n    /* \"#utility.yul\":2183:2201   */\n  tag_95\n  tag_34\n  jump\t// in\ntag_95:\n    /* \"#utility.yul\":2147:2203   */\ntag_94:\n    /* \"#utility.yul\":2221:2250   */\n  tag_96\n    /* \"#utility.yul\":2243:2249   */\n  dup3\n    /* \"#utility.yul\":2221:2250   */\n  tag_33\n  jump\t// in\ntag_96:\n    /* \"#utility.yul\":2213:2250   */\n  swap1\n  pop\n    /* \"#utility.yul\":2305:2309   */\n  0x20\n    /* \"#utility.yul\":2299:2303   */\n  dup2\n    /* \"#utility.yul\":2295:2310   */\n  add\n    /* \"#utility.yul\":2287:2310   */\n  swap1\n  pop\n    /* \"#utility.yul\":2009:2317   */\n  swap2\n  swap1\n  pop\n  jump\t// out\n    /* \"#utility.yul\":2323:2462   */\ntag_43:\n    /* \"#utility.yul\":2412:2418   */\n  dup3\n    /* \"#utility.yul\":2407:2410   */\n  dup2\n    /* \"#utility.yul\":2402:2405   */\n  dup4\n    /* \"#utility.yul\":2396:2419   */\n  mcopy\n    /* \"#utility.yul\":2453:2454   */\n  0x00\n    /* \"#utility.yul\":2444:2450   */\n  dup4\n    /* \"#utility.yul\":2439:2442   */\n  dup4\n    /* \"#utility.yul\":2435:2451   */\n  add\n    /* \"#utility.yul\":2428:2455   */\n  mstore\n    /* \"#utility.yul\":2323:2462   */\n  pop\n  pop\n  pop\n  jump\t// out\n    /* \"#utility.yul\":2468:2902   */\ntag_44:\n    /* \"#utility.yul\":2557:2562   */\n  0x00\n    /* \"#utility.yul\":2582:2648   */\n  tag_99\n    /* \"#utility.yul\":2598:2647   */\n  tag_100\n    /* \"#utility.yul\":2640:2646   */\n  dup5\n    /* \"#utility.yul\":2598:2647   */\n  tag_42\n  jump\t// in\ntag_100:\n    /* \"#utility.yul\":2582:2648   */\n  tag_36\n  jump\t// in\ntag_99:\n    /* \"#utility.yul\":2573:2648   */\n  swap1\n  pop\n    /* \"#utility.yul\":2671:2677   */\n  dup3\n    /* \"#utility.yul\":2664:2669   */\n  dup2\n    /* \"#utility.yul\":2657:2678   */\n  mstore\n    /* \"#utility.yul\":2709:2713   */\n  0x20\n    /* \"#utility.yul\":2702:2707   */\n  dup2\n    /* \"#utility.yul\":2698:2714   */\n  add\n    /* \"#utility.yul\":2747:2750   */\n  dup5\n    /* \"#utility.yul\":2738:2744   */\n  dup5\n    /* \"#utility.yul\":2733:2736   */\n  dup5\n    /* \"#utility.yul\":2729:2745   */\n  add\n    /* \"#utility.yul\":2726:2751   */\n  gt\n    /* \"#utility.yul\":2723:2835   */\n  iszero\n  tag_101\n  jumpi\n    /* \"#utility.yul\":2754:2833   */\n  tag_102\n  tag_41\n  jump\t// in\ntag_102:\n    /* \"#utility.yul\":2723:2835   */\ntag_101:\n    /* \"#utility.yul\":2844:2896   */\n  tag_103\n    /* \"#utility.yul\":2889:2895   */\n  dup5\n    /* \"#utility.yul\":2884:2887   */\n  dup3\n    /* \"#utility.yul\":2879:2882   */\n  dup6\n    /* \"#utility.yul\":2844:2896   */\n  tag_43\n  jump\t// in\ntag_103:\n    /* \"#utility.yul\":2563:2902   */\n  pop\n    /* \"#utility.yul\":2468:2902   */\n  swap4\n  swap3\n  pop\n  pop\n  pop\n  jump\t// out\n    /* \"#utility.yul\":2922:3277   */\ntag_45:\n    /* \"#utility.yul\":2989:2994   */\n  0x00\n    /* \"#utility.yul\":3038:3041   */\n  dup3\n    /* \"#utility.yul\":3031:3035   */\n  0x1f\n    /* \"#utility.yul\":3023:3029   */\n  dup4\n    /* \"#utility.yul\":3019:3036   */\n  add\n    /* \"#utility.yul\":3015:3042   */\n  slt\n    /* \"#utility.yul\":3005:3127   */\n  tag_105\n  jumpi\n    /* \"#utility.yul\":3046:3125   */\n  tag_106\n  tag_32\n  jump\t// in\ntag_106:\n    /* \"#utility.yul\":3005:3127   */\ntag_105:\n    /* \"#utility.yul\":3156:3162   */\n  dup2\n    /* \"#utility.yul\":3150:3163   */\n  mload\n    /* \"#utility.yul\":3181:3271   */\n  tag_107\n    /* \"#utility.yul\":3267:3270   */\n  dup5\n    /* \"#utility.yul\":3259:3265   */\n  dup3\n    /* \"#utility.yul\":3252:3256   */\n  0x20\n    /* \"#utility.yul\":3244:3250   */\n  dup7\n    /* \"#utility.yul\":3240:3257   */\n  add\n    /* \"#utility.yul\":3181:3271   */\n  tag_44\n  jump\t// in\ntag_107:\n    /* \"#utility.yul\":3172:3271   */\n  swap2\n  pop\n    /* \"#utility.yul\":2995:3277   */\n  pop\n    /* \"#utility.yul\":2922:3277   */\n  swap3\n  swap2\n  pop\n  pop\n  jump\t// out\n    /* \"#utility.yul\":3316:4258   */\ntag_46:\n    /* \"#utility.yul\":3403:3408   */\n  0x00\n    /* \"#utility.yul\":3447:3451   */\n  0x40\n    /* \"#utility.yul\":3435:3444   */\n  dup3\n    /* \"#utility.yul\":3430:3433   */\n  dup5\n    /* \"#utility.yul\":3426:3445   */\n  sub\n    /* \"#utility.yul\":3422:3452   */\n  slt\n    /* \"#utility.yul\":3419:3536   */\n  iszero\n  tag_109\n  jumpi\n    /* \"#utility.yul\":3455:3534   */\n  tag_110\n  tag_39\n  jump\t// in\ntag_110:\n    /* \"#utility.yul\":3419:3536   */\ntag_109:\n    /* \"#utility.yul\":3554:3575   */\n  tag_111\n    /* \"#utility.yul\":3570:3574   */\n  0x40\n    /* \"#utility.yul\":3554:3575   */\n  tag_36\n  jump\t// in\ntag_111:\n    /* \"#utility.yul\":3545:3575   */\n  swap1\n  pop\n    /* \"#utility.yul\":3655:3656   */\n  0x00\n    /* \"#utility.yul\":3644:3653   */\n  dup3\n    /* \"#utility.yul\":3640:3657   */\n  add\n    /* \"#utility.yul\":3634:3658   */\n  mload\n    /* \"#utility.yul\":3685:3703   */\n  0xffffffffffffffff\n    /* \"#utility.yul\":3677:3683   */\n  dup2\n    /* \"#utility.yul\":3674:3704   */\n  gt\n    /* \"#utility.yul\":3671:3788   */\n  iszero\n  tag_112\n  jumpi\n    /* \"#utility.yul\":3707:3786   */\n  tag_113\n  tag_40\n  jump\t// in\ntag_113:\n    /* \"#utility.yul\":3671:3788   */\ntag_112:\n    /* \"#utility.yul\":3827:3897   */\n  tag_114\n    /* \"#utility.yul\":3893:3896   */\n  dup5\n    /* \"#utility.yul\":3884:3890   */\n  dup3\n    /* \"#utility.yul\":3873:3882   */\n  dup6\n    /* \"#utility.yul\":3869:3891   */\n  add\n    /* \"#utility.yul\":3827:3897   */\n  tag_45\n  jump\t// in\ntag_114:\n    /* \"#utility.yul\":3820:3824   */\n  0x00\n    /* \"#utility.yul\":3813:3818   */\n  dup4\n    /* \"#utility.yul\":3809:3825   */\n  add\n    /* \"#utility.yul\":3802:3898   */\n  mstore\n    /* \"#utility.yul\":3585:3909   */\n  pop\n    /* \"#utility.yul\":3996:3998   */\n  0x20\n    /* \"#utility.yul\":3985:3994   */\n  dup3\n    /* \"#utility.yul\":3981:3999   */\n  add\n    /* \"#utility.yul\":3975:4000   */\n  mload\n    /* \"#utility.yul\":4027:4045   */\n  0xffffffffffffffff\n    /* \"#utility.yul\":4019:4025   */\n  dup2\n    /* \"#utility.yul\":4016:4046   */\n  gt\n    /* \"#utility.yul\":4013:4130   */\n  iszero\n  tag_115\n  jumpi\n    /* \"#utility.yul\":4049:4128   */\n  tag_116\n  tag_40\n  jump\t// in\ntag_116:\n    /* \"#utility.yul\":4013:4130   */\ntag_115:\n    /* \"#utility.yul\":4169:4239   */\n  tag_117\n    /* \"#utility.yul\":4235:4238   */\n  dup5\n    /* \"#utility.yul\":4226:4232   */\n  dup3\n    /* \"#utility.yul\":4215:4224   */\n  dup6\n    /* \"#utility.yul\":4211:4233   */\n  add\n    /* \"#utility.yul\":4169:4239   */\n  tag_45\n  jump\t// in\ntag_117:\n    /* \"#utility.yul\":4162:4166   */\n  0x20\n    /* \"#utility.yul\":4155:4160   */\n  dup4\n    /* \"#utility.yul\":4151:4167   */\n  add\n    /* \"#utility.yul\":4144:4240   */\n  mstore\n    /* \"#utility.yul\":3919:4251   */\n  pop\n    /* \"#utility.yul\":3316:4258   */\n  swap3\n  swap2\n  pop\n  pop\n  jump\t// out\n    /* \"#utility.yul\":4299:5310   */\ntag_47:\n    /* \"#utility.yul\":4433:4438   */\n  0x00\n    /* \"#utility.yul\":4458:4566   */\n  tag_119\n    /* \"#utility.yul\":4474:4565   */\n  tag_120\n    /* \"#utility.yul\":4558:4564   */\n  dup5\n    /* \"#utility.yul\":4474:4565   */\n  tag_37\n  jump\t// in\ntag_120:\n    /* \"#utility.yul\":4458:4566   */\n  tag_36\n  jump\t// in\ntag_119:\n    /* \"#utility.yul\":4449:4566   */\n  swap1\n  pop\n    /* \"#utility.yul\":4586:4591   */\n  dup1\n    /* \"#utility.yul\":4615:4621   */\n  dup4\n    /* \"#utility.yul\":4608:4613   */\n  dup3\n    /* \"#utility.yul\":4601:4622   */\n  mstore\n    /* \"#utility.yul\":4649:4653   */\n  0x20\n    /* \"#utility.yul\":4642:4647   */\n  dup3\n    /* \"#utility.yul\":4638:4654   */\n  add\n    /* \"#utility.yul\":4631:4654   */\n  swap1\n  pop\n    /* \"#utility.yul\":4702:4706   */\n  0x20\n    /* \"#utility.yul\":4694:4700   */\n  dup5\n    /* \"#utility.yul\":4690:4707   */\n  mul\n    /* \"#utility.yul\":4682:4688   */\n  dup4\n    /* \"#utility.yul\":4678:4708   */\n  add\n    /* \"#utility.yul\":4731:4734   */\n  dup6\n    /* \"#utility.yul\":4723:4729   */\n  dup2\n    /* \"#utility.yul\":4720:4735   */\n  gt\n    /* \"#utility.yul\":4717:4839   */\n  iszero\n  tag_121\n  jumpi\n    /* \"#utility.yul\":4750:4829   */\n  tag_122\n  tag_38\n  jump\t// in\ntag_122:\n    /* \"#utility.yul\":4717:4839   */\ntag_121:\n    /* \"#utility.yul\":4865:4871   */\n  dup4\n    /* \"#utility.yul\":4848:5304   */\ntag_123:\n    /* \"#utility.yul\":4882:4888   */\n  dup2\n    /* \"#utility.yul\":4877:4880   */\n  dup2\n    /* \"#utility.yul\":4874:4889   */\n  lt\n    /* \"#utility.yul\":4848:5304   */\n  iszero\n  tag_125\n  jumpi\n    /* \"#utility.yul\":4964:4967   */\n  dup1\n    /* \"#utility.yul\":4958:4968   */\n  mload\n    /* \"#utility.yul\":5000:5018   */\n  0xffffffffffffffff\n    /* \"#utility.yul\":4987:4998   */\n  dup2\n    /* \"#utility.yul\":4984:5019   */\n  gt\n    /* \"#utility.yul\":4981:5103   */\n  iszero\n  tag_126\n  jumpi\n    /* \"#utility.yul\":5022:5101   */\n  tag_127\n  tag_32\n  jump\t// in\ntag_127:\n    /* \"#utility.yul\":4981:5103   */\ntag_126:\n    /* \"#utility.yul\":5146:5157   */\n  dup1\n    /* \"#utility.yul\":5138:5144   */\n  dup7\n    /* \"#utility.yul\":5134:5158   */\n  add\n    /* \"#utility.yul\":5184:5259   */\n  tag_128\n    /* \"#utility.yul\":5255:5258   */\n  dup10\n    /* \"#utility.yul\":5243:5253   */\n  dup3\n    /* \"#utility.yul\":5184:5259   */\n  tag_46\n  jump\t// in\ntag_128:\n    /* \"#utility.yul\":5179:5182   */\n  dup6\n    /* \"#utility.yul\":5172:5260   */\n  mstore\n    /* \"#utility.yul\":5289:5293   */\n  0x20\n    /* \"#utility.yul\":5284:5287   */\n  dup6\n    /* \"#utility.yul\":5280:5294   */\n  add\n    /* \"#utility.yul\":5273:5294   */\n  swap5\n  pop\n    /* \"#utility.yul\":4924:5304   */\n  pop\n  pop\n    /* \"#utility.yul\":4908:4912   */\n  0x20\n    /* \"#utility.yul\":4903:4906   */\n  dup2\n    /* \"#utility.yul\":4899:4913   */\n  add\n    /* \"#utility.yul\":4892:4913   */\n  swap1\n  pop\n    /* \"#utility.yul\":4848:5304   */\n  jump(tag_123)\ntag_125:\n    /* \"#utility.yul\":4852:4873   */\n  pop\n    /* \"#utility.yul\":4439:5310   */\n  pop\n  pop\n    /* \"#utility.yul\":4299:5310   */\n  swap4\n  swap3\n  pop\n  pop\n  pop\n  jump\t// out\n    /* \"#utility.yul\":5351:5790   */\ntag_48:\n    /* \"#utility.yul\":5460:5465   */\n  0x00\n    /* \"#utility.yul\":5509:5512   */\n  dup3\n    /* \"#utility.yul\":5502:5506   */\n  0x1f\n    /* \"#utility.yul\":5494:5500   */\n  dup4\n    /* \"#utility.yul\":5490:5507   */\n  add\n    /* \"#utility.yul\":5486:5513   */\n  slt\n    /* \"#utility.yul\":5476:5598   */\n  tag_130\n  jumpi\n    /* \"#utility.yul\":5517:5596   */\n  tag_131\n  tag_32\n  jump\t// in\ntag_131:\n    /* \"#utility.yul\":5476:5598   */\ntag_130:\n    /* \"#utility.yul\":5627:5633   */\n  dup2\n    /* \"#utility.yul\":5621:5634   */\n  mload\n    /* \"#utility.yul\":5652:5784   */\n  tag_132\n    /* \"#utility.yul\":5780:5783   */\n  dup5\n    /* \"#utility.yul\":5772:5778   */\n  dup3\n    /* \"#utility.yul\":5765:5769   */\n  0x20\n    /* \"#utility.yul\":5757:5763   */\n  dup7\n    /* \"#utility.yul\":5753:5770   */\n  add\n    /* \"#utility.yul\":5652:5784   */\n  tag_47\n  jump\t// in\ntag_132:\n    /* \"#utility.yul\":5643:5784   */\n  swap2\n  pop\n    /* \"#utility.yul\":5466:5790   */\n  pop\n    /* \"#utility.yul\":5351:5790   */\n  swap3\n  swap2\n  pop\n  pop\n  jump\t// out\n    /* \"#utility.yul\":5796:5873   */\ntag_49:\n    /* \"#utility.yul\":5833:5840   */\n  0x00\n    /* \"#utility.yul\":5862:5867   */\n  dup2\n    /* \"#utility.yul\":5851:5867   */\n  swap1\n  pop\n    /* \"#utility.yul\":5796:5873   */\n  swap2\n  swap1\n  pop\n  jump\t// out\n    /* \"#utility.yul\":5879:6001   */\ntag_50:\n    /* \"#utility.yul\":5952:5976   */\n  tag_135\n    /* \"#utility.yul\":5970:5975   */\n  dup2\n    /* \"#utility.yul\":5952:5976   */\n  tag_49\n  jump\t// in\ntag_135:\n    /* \"#utility.yul\":5945:5950   */\n  dup2\n    /* \"#utility.yul\":5942:5977   */\n  eq\n    /* \"#utility.yul\":5932:5995   */\n  tag_136\n  jumpi\n    /* \"#utility.yul\":5991:5992   */\n  0x00\n    /* \"#utility.yul\":5988:5989   */\n  0x00\n    /* \"#utility.yul\":5981:5993   */\n  revert\n    /* \"#utility.yul\":5932:5995   */\ntag_136:\n    /* \"#utility.yul\":5879:6001   */\n  pop\n  jump\t// out\n    /* \"#utility.yul\":6007:6150   */\ntag_51:\n    /* \"#utility.yul\":6064:6069   */\n  0x00\n    /* \"#utility.yul\":6095:6101   */\n  dup2\n    /* \"#utility.yul\":6089:6102   */\n  mload\n    /* \"#utility.yul\":6080:6102   */\n  swap1\n  pop\n    /* \"#utility.yul\":6111:6144   */\n  tag_138\n    /* \"#utility.yul\":6138:6143   */\n  dup2\n    /* \"#utility.yul\":6111:6144   */\n  tag_50\n  jump\t// in\ntag_138:\n    /* \"#utility.yul\":6007:6150   */\n  swap3\n  swap2\n  pop\n  pop\n  jump\t// out\n    /* \"#utility.yul\":6156:7076   */\ntag_3:\n    /* \"#utility.yul\":6296:6302   */\n  0x00\n    /* \"#utility.yul\":6304:6310   */\n  0x00\n    /* \"#utility.yul\":6312:6318   */\n  0x00\n    /* \"#utility.yul\":6361:6363   */\n  0x60\n    /* \"#utility.yul\":6349:6358   */\n  dup5\n    /* \"#utility.yul\":6340:6347   */\n  dup7\n    /* \"#utility.yul\":6336:6359   */\n  sub\n    /* \"#utility.yul\":6332:6364   */\n  slt\n    /* \"#utility.yul\":6329:6448   */\n  iszero\n  tag_140\n  jumpi\n    /* \"#utility.yul\":6367:6446   */\n  tag_141\n  tag_30\n  jump\t// in\ntag_141:\n    /* \"#utility.yul\":6329:6448   */\ntag_140:\n    /* \"#utility.yul\":6508:6509   */\n  0x00\n    /* \"#utility.yul\":6497:6506   */\n  dup5\n    /* \"#utility.yul\":6493:6510   */\n  add\n    /* \"#utility.yul\":6487:6511   */\n  mload\n    /* \"#utility.yul\":6538:6556   */\n  0xffffffffffffffff\n    /* \"#utility.yul\":6530:6536   */\n  dup2\n    /* \"#utility.yul\":6527:6557   */\n  gt\n    /* \"#utility.yul\":6524:6641   */\n  iszero\n  tag_142\n  jumpi\n    /* \"#utility.yul\":6560:6639   */\n  tag_143\n  tag_31\n  jump\t// in\ntag_143:\n    /* \"#utility.yul\":6524:6641   */\ntag_142:\n    /* \"#utility.yul\":6665:6781   */\n  tag_144\n    /* \"#utility.yul\":6773:6780   */\n  dup7\n    /* \"#utility.yul\":6764:6770   */\n  dup3\n    /* \"#utility.yul\":6753:6762   */\n  dup8\n    /* \"#utility.yul\":6749:6771   */\n  add\n    /* \"#utility.yul\":6665:6781   */\n  tag_48\n  jump\t// in\ntag_144:\n    /* \"#utility.yul\":6655:6781   */\n  swap4\n  pop\n    /* \"#utility.yul\":6458:6791   */\n  pop\n    /* \"#utility.yul\":6830:6832   */\n  0x20\n    /* \"#utility.yul\":6856:6920   */\n  tag_145\n    /* \"#utility.yul\":6912:6919   */\n  dup7\n    /* \"#utility.yul\":6903:6909   */\n  dup3\n    /* \"#utility.yul\":6892:6901   */\n  dup8\n    /* \"#utility.yul\":6888:6910   */\n  add\n    /* \"#utility.yul\":6856:6920   */\n  tag_51\n  jump\t// in\ntag_145:\n    /* \"#utility.yul\":6846:6920   */\n  swap3\n  pop\n    /* \"#utility.yul\":6801:6930   */\n  pop\n    /* \"#utility.yul\":6969:6971   */\n  0x40\n    /* \"#utility.yul\":6995:7059   */\n  tag_146\n    /* \"#utility.yul\":7051:7058   */\n  dup7\n    /* \"#utility.yul\":7042:7048   */\n  dup3\n    /* \"#utility.yul\":7031:7040   */\n  dup8\n    /* \"#utility.yul\":7027:7049   */\n  add\n    /* \"#utility.yul\":6995:7059   */\n  tag_51\n  jump\t// in\ntag_146:\n    /* \"#utility.yul\":6985:7059   */\n  swap2\n  pop\n    /* \"#utility.yul\":6940:7069   */\n  pop\n    /* \"#utility.yul\":6156:7076   */\n  swap3\n  pop\n  swap3\n  pop\n  swap3\n  jump\t// out\n    /* \"#utility.yul\":7082:7262   */\ntag_52:\n    /* \"#utility.yul\":7130:7207   */\n  0x4e487b7100000000000000000000000000000000000000000000000000000000\n    /* \"#utility.yul\":7127:7128   */\n  0x00\n    /* \"#utility.yul\":7120:7208   */\n  mstore\n    /* \"#utility.yul\":7227:7231   */\n  0x11\n    /* \"#utility.yul\":7224:7225   */\n  0x04\n    /* \"#utility.yul\":7217:7232   */\n  mstore\n    /* \"#utility.yul\":7251:7255   */\n  0x24\n    /* \"#utility.yul\":7248:7249   */\n  0x00\n    /* \"#utility.yul\":7241:7256   */\n  revert\n    /* \"#utility.yul\":7268:7459   */\ntag_7:\n    /* \"#utility.yul\":7308:7311   */\n  0x00\n    /* \"#utility.yul\":7327:7347   */\n  tag_149\n    /* \"#utility.yul\":7345:7346   */\n  dup3\n    /* \"#utility.yul\":7327:7347   */\n  tag_49\n  jump\t// in\ntag_149:\n    /* \"#utility.yul\":7322:7347   */\n  swap2\n  pop\n    /* \"#utility.yul\":7361:7381   */\n  tag_150\n    /* \"#utility.yul\":7379:7380   */\n  dup4\n    /* \"#utility.yul\":7361:7381   */\n  tag_49\n  jump\t// in\ntag_150:\n    /* \"#utility.yul\":7356:7381   */\n  swap3\n  pop\n    /* \"#utility.yul\":7404:7405   */\n  dup3\n    /* \"#utility.yul\":7401:7402   */\n  dup3\n    /* \"#utility.yul\":7397:7406   */\n  add\n    /* \"#utility.yul\":7390:7406   */\n  swap1\n  pop\n    /* \"#utility.yul\":7425:7428   */\n  dup1\n    /* \"#utility.yul\":7422:7423   */\n  dup3\n    /* \"#utility.yul\":7419:7429   */\n  gt\n    /* \"#utility.yul\":7416:7452   */\n  iszero\n  tag_151\n  jumpi\n    /* \"#utility.yul\":7432:7450   */\n  tag_152\n  tag_52\n  jump\t// in\ntag_152:\n    /* \"#utility.yul\":7416:7452   */\ntag_151:\n    /* \"#utility.yul\":7268:7459   */\n  swap3\n  swap2\n  pop\n  pop\n  jump\t// out\n    /* \"#utility.yul\":7465:7645   */\ntag_18:\n    /* \"#utility.yul\":7513:7590   */\n  0x4e487b7100000000000000000000000000000000000000000000000000000000\n    /* \"#utility.yul\":7510:7511   */\n  0x00\n    /* \"#utility.yul\":7503:7591   */\n  mstore\n    /* \"#utility.yul\":7610:7614   */\n  0x32\n    /* \"#utility.yul\":7607:7608   */\n  0x04\n    /* \"#utility.yul\":7600:7615   */\n  mstore\n    /* \"#utility.yul\":7634:7638   */\n  0x24\n    /* \"#utility.yul\":7631:7632   */\n  0x00\n    /* \"#utility.yul\":7624:7639   */\n  revert\n    /* \"#utility.yul\":7651:7742   */\ntag_53:\n    /* \"#utility.yul\":7687:7694   */\n  0x00\n    /* \"#utility.yul\":7727:7735   */\n  0xffffff\n    /* \"#utility.yul\":7720:7725   */\n  dup3\n    /* \"#utility.yul\":7716:7736   */\n  and\n    /* \"#utility.yul\":7705:7736   */\n  swap1\n  pop\n    /* \"#utility.yul\":7651:7742   */\n  swap2\n  swap1\n  pop\n  jump\t// out\n    /* \"#utility.yul\":7748:7921   */\ntag_22:\n    /* \"#utility.yul\":7786:7789   */\n  0x00\n    /* \"#utility.yul\":7809:7832   */\n  tag_156\n    /* \"#utility.yul\":7826:7831   */\n  dup3\n    /* \"#utility.yul\":7809:7832   */\n  tag_53\n  jump\t// in\ntag_156:\n    /* \"#utility.yul\":7800:7832   */\n  swap2\n  pop\n    /* \"#utility.yul\":7854:7862   */\n  0xffffff\n    /* \"#utility.yul\":7847:7852   */\n  dup3\n    /* \"#utility.yul\":7844:7863   */\n  sub\n    /* \"#utility.yul\":7841:7886   */\n  tag_157\n  jumpi\n    /* \"#utility.yul\":7866:7884   */\n  tag_158\n  tag_52\n  jump\t// in\ntag_158:\n    /* \"#utility.yul\":7841:7886   */\ntag_157:\n    /* \"#utility.yul\":7913:7914   */\n  0x01\n    /* \"#utility.yul\":7906:7911   */\n  dup3\n    /* \"#utility.yul\":7902:7915   */\n  add\n    /* \"#utility.yul\":7895:7915   */\n  swap1\n  pop\n    /* \"#utility.yul\":7748:7921   */\n  swap2\n  swap1\n  pop\n  jump\t// out\n    /* \"#utility.yul\":7927:8026   */\ntag_54:\n    /* \"#utility.yul\":7979:7985   */\n  0x00\n    /* \"#utility.yul\":8013:8018   */\n  dup2\n    /* \"#utility.yul\":8007:8019   */\n  mload\n    /* \"#utility.yul\":7997:8019   */\n  swap1\n  pop\n    /* \"#utility.yul\":7927:8026   */\n  swap2\n  swap1\n  pop\n  jump\t// out\n    /* \"#utility.yul\":8032:8212   */\ntag_55:\n    /* \"#utility.yul\":8080:8157   */\n  0x4e487b7100000000000000000000000000000000000000000000000000000000\n    /* \"#utility.yul\":8077:8078   */\n  0x00\n    /* \"#utility.yul\":8070:8158   */\n  mstore\n    /* \"#utility.yul\":8177:8181   */\n  0x22\n    /* \"#utility.yul\":8174:8175   */\n  0x04\n    /* \"#utility.yul\":8167:8182   */\n  mstore\n    /* \"#utility.yul\":8201:8205   */\n  0x24\n    /* \"#utility.yul\":8198:8199   */\n  0x00\n    /* \"#utility.yul\":8191:8206   */\n  revert\n    /* \"#utility.yul\":8218:8538   */\ntag_56:\n    /* \"#utility.yul\":8262:8268   */\n  0x00\n    /* \"#utility.yul\":8299:8300   */\n  0x02\n    /* \"#utility.yul\":8293:8297   */\n  dup3\n    /* \"#utility.yul\":8289:8301   */\n  div\n    /* \"#utility.yul\":8279:8301   */\n  swap1\n  pop\n    /* \"#utility.yul\":8346:8347   */\n  0x01\n    /* \"#utility.yul\":8340:8344   */\n  dup3\n    /* \"#utility.yul\":8336:8348   */\n  and\n    /* \"#utility.yul\":8367:8385   */\n  dup1\n    /* \"#utility.yul\":8357:8438   */\n  tag_162\n  jumpi\n    /* \"#utility.yul\":8423:8427   */\n  0x7f\n    /* \"#utility.yul\":8415:8421   */\n  dup3\n    /* \"#utility.yul\":8411:8428   */\n  and\n    /* \"#utility.yul\":8401:8428   */\n  swap2\n  pop\n    /* \"#utility.yul\":8357:8438   */\ntag_162:\n    /* \"#utility.yul\":8485:8487   */\n  0x20\n    /* \"#utility.yul\":8477:8483   */\n  dup3\n    /* \"#utility.yul\":8474:8488   */\n  lt\n    /* \"#utility.yul\":8454:8472   */\n  dup2\n    /* \"#utility.yul\":8451:8489   */\n  sub\n    /* \"#utility.yul\":8448:8532   */\n  tag_163\n  jumpi\n    /* \"#utility.yul\":8504:8522   */\n  tag_164\n  tag_55\n  jump\t// in\ntag_164:\n    /* \"#utility.yul\":8448:8532   */\ntag_163:\n    /* \"#utility.yul\":8269:8538   */\n  pop\n    /* \"#utility.yul\":8218:8538   */\n  swap2\n  swap1\n  pop\n  jump\t// out\n    /* \"#utility.yul\":8544:8685   */\ntag_57:\n    /* \"#utility.yul\":8593:8597   */\n  0x00\n    /* \"#utility.yul\":8616:8619   */\n  dup2\n    /* \"#utility.yul\":8608:8619   */\n  swap1\n  pop\n    /* \"#utility.yul\":8639:8642   */\n  dup2\n    /* \"#utility.yul\":8636:8637   */\n  0x00\n    /* \"#utility.yul\":8629:8643   */\n  mstore\n    /* \"#utility.yul\":8673:8677   */\n  0x20\n    /* \"#utility.yul\":8670:8671   */\n  0x00\n    /* \"#utility.yul\":8660:8678   */\n  keccak256\n    /* \"#utility.yul\":8652:8678   */\n  swap1\n  pop\n    /* \"#utility.yul\":8544:8685   */\n  swap2\n  swap1\n  pop\n  jump\t// out\n    /* \"#utility.yul\":8691:8784   */\ntag_58:\n    /* \"#utility.yul\":8728:8734   */\n  0x00\n    /* \"#utility.yul\":8775:8777   */\n  0x20\n    /* \"#utility.yul\":8770:8772   */\n  0x1f\n    /* \"#utility.yul\":8763:8768   */\n  dup4\n    /* \"#utility.yul\":8759:8773   */\n  add\n    /* \"#utility.yul\":8755:8778   */\n  div\n    /* \"#utility.yul\":8745:8778   */\n  swap1\n  pop\n    /* \"#utility.yul\":8691:8784   */\n  swap2\n  swap1\n  pop\n  jump\t// out\n    /* \"#utility.yul\":8790:8897   */\ntag_59:\n    /* \"#utility.yul\":8834:8842   */\n  0x00\n    /* \"#utility.yul\":8884:8889   */\n  dup3\n    /* \"#utility.yul\":8878:8882   */\n  dup3\n    /* \"#utility.yul\":8874:8890   */\n  shl\n    /* \"#utility.yul\":8853:8890   */\n  swap1\n  pop\n    /* \"#utility.yul\":8790:8897   */\n  swap3\n  swap2\n  pop\n  pop\n  jump\t// out\n    /* \"#utility.yul\":8903:9296   */\ntag_60:\n    /* \"#utility.yul\":8972:8978   */\n  0x00\n    /* \"#utility.yul\":9022:9023   */\n  0x08\n    /* \"#utility.yul\":9010:9020   */\n  dup4\n    /* \"#utility.yul\":9006:9024   */\n  mul\n    /* \"#utility.yul\":9045:9142   */\n  tag_169\n    /* \"#utility.yul\":9075:9141   */\n  0xffffffffffffffffffffffffffffffffffffffffffffffffffffffffffffffff\n    /* \"#utility.yul\":9064:9073   */\n  dup3\n    /* \"#utility.yul\":9045:9142   */\n  tag_59\n  jump\t// in\ntag_169:\n    /* \"#utility.yul\":9163:9202   */\n  tag_170\n    /* \"#utility.yul\":9193:9201   */\n  dup7\n    /* \"#utility.yul\":9182:9191   */\n  dup4\n    /* \"#utility.yul\":9163:9202   */\n  tag_59\n  jump\t// in\ntag_170:\n    /* \"#utility.yul\":9151:9202   */\n  swap6\n  pop\n    /* \"#utility.yul\":9235:9239   */\n  dup1\n    /* \"#utility.yul\":9231:9240   */\n  not\n    /* \"#utility.yul\":9224:9229   */\n  dup5\n    /* \"#utility.yul\":9220:9241   */\n  and\n    /* \"#utility.yul\":9211:9241   */\n  swap4\n  pop\n    /* \"#utility.yul\":9284:9288   */\n  dup1\n    /* \"#utility.yul\":9274:9282   */\n  dup7\n    /* \"#utility.yul\":9270:9289   */\n  and\n    /* \"#utility.yul\":9263:9268   */\n  dup5\n    /* \"#utility.yul\":9260:9290   */\n  or\n    /* \"#utility.yul\":9250:9290   */\n  swap3\n  pop\n    /* \"#utility.yul\":8979:9296   */\n  pop\n  pop\n    /* \"#utility.yul\":8903:9296   */\n  swap4\n  swap3\n  pop\n  pop\n  pop\n  jump\t// out\n    /* \"#utility.yul\":9302:9362   */\ntag_61:\n    /* \"#utility.yul\":9330:9333   */\n  0x00\n    /* \"#utility.yul\":9351:9356   */\n  dup2\n    /* \"#utility.yul\":9344:9356   */\n  swap1\n  pop\n    /* \"#utility.yul\":9302:9362   */\n  swap2\n  swap1\n  pop\n  jump\t// out\n    /* \"#utility.yul\":9368:9510   */\ntag_62:\n    /* \"#utility.yul\":9418:9427   */\n  0x00\n    /* \"#utility.yul\":9451:9504   */\n  tag_173\n    /* \"#utility.yul\":9469:9503   */\n  tag_174\n    /* \"#utility.yul\":9478:9502   */\n  tag_175\n    /* \"#utility.yul\":9496:9501   */\n  dup5\n    /* \"#utility.yul\":9478:9502   */\n  tag_49\n  jump\t// in\ntag_175:\n    /* \"#utility.yul\":9469:9503   */\n  tag_61\n  jump\t// in\ntag_174:\n    /* \"#utility.yul\":9451:9504   */\n  tag_49\n  jump\t// in\ntag_173:\n    /* \"#utility.yul\":9438:9504   */\n  swap1\n  pop\n    /* \"#utility.yul\":9368:9510   */\n  swap2\n  swap1\n  pop\n  jump\t// out\n    /* \"#utility.yul\":9516:9591   */\ntag_63:\n    /* \"#utility.yul\":9559:9562   */\n  0x00\n    /* \"#utility.yul\":9580:9585   */\n  dup2\n    /* \"#utility.yul\":9573:9585   */\n  swap1\n  pop\n    /* \"#utility.yul\":9516:9591   */\n  swap2\n  swap1\n  pop\n  jump\t// out\n    /* \"#utility.yul\":9597:9866   */\ntag_64:\n    /* \"#utility.yul\":9707:9746   */\n  tag_178\n    /* \"#utility.yul\":9738:9745   */\n  dup4\n    /* \"#utility.yul\":9707:9746   */\n  tag_62\n  jump\t// in\ntag_178:\n    /* \"#utility.yul\":9768:9859   */\n  tag_179\n    /* \"#utility.yul\":9817:9858   */\n  tag_180\n    /* \"#utility.yul\":9841:9857   */\n  dup3\n    /* \"#utility.yul\":9817:9858   */\n  tag_63\n  jump\t// in\ntag_180:\n    /* \"#utility.yul\":9809:9815   */\n  dup5\n    /* \"#utility.yul\":9802:9806   */\n  dup5\n    /* \"#utility.yul\":9796:9807   */\n  sload\n    /* \"#utility.yul\":9768:9859   */\n  tag_60\n  jump\t// in\ntag_179:\n    /* \"#utility.yul\":9762:9766   */\n  dup3\n    /* \"#utility.yul\":9755:9860   */\n  sstore\n    /* \"#utility.yul\":9673:9866   */\n  pop\n    /* \"#utility.yul\":9597:9866   */\n  pop\n  pop\n  pop\n  jump\t// out\n    /* \"#utility.yul\":9872:9945   */\ntag_65:\n    /* \"#utility.yul\":9917:9920   */\n  0x00\n    /* \"#utility.yul\":9938:9939   */\n  0x00\n    /* \"#utility.yul\":9931:9939   */\n  swap1\n  pop\n    /* \"#utility.yul\":9872:9945   */\n  swap1\n  jump\t// out\n    /* \"#utility.yul\":9951:10140   */\ntag_66:\n    /* \"#utility.yul\":10028:10060   */\n  tag_183\n  tag_65\n  jump\t// in\ntag_183:\n    /* \"#utility.yul\":10069:10134   */\n  tag_184\n    /* \"#utility.yul\":10127:10133   */\n  dup2\n    /* \"#utility.yul\":10119:10125   */\n  dup5\n    /* \"#utility.yul\":10113:10117   */\n  dup5\n    /* \"#utility.yul\":10069:10134   */\n  tag_64\n  jump\t// in\ntag_184:\n    /* \"#utility.yul\":10004:10140   */\n  pop\n    /* \"#utility.yul\":9951:10140   */\n  pop\n  pop\n  jump\t// out\n    /* \"#utility.yul\":10146:10332   */\ntag_67:\n    /* \"#utility.yul\":10206:10326   */\ntag_186:\n    /* \"#utility.yul\":10223:10226   */\n  dup2\n    /* \"#utility.yul\":10216:10221   */\n  dup2\n    /* \"#utility.yul\":10213:10227   */\n  lt\n    /* \"#utility.yul\":10206:10326   */\n  iszero\n  tag_188\n  jumpi\n    /* \"#utility.yul\":10277:10316   */\n  tag_189\n    /* \"#utility.yul\":10314:10315   */\n  0x00\n    /* \"#utility.yul\":10307:10312   */\n  dup3\n    /* \"#utility.yul\":10277:10316   */\n  tag_66\n  jump\t// in\ntag_189:\n    /* \"#utility.yul\":10250:10251   */\n  0x01\n    /* \"#utility.yul\":10243:10248   */\n  dup2\n    /* \"#utility.yul\":10239:10252   */\n  add\n    /* \"#utility.yul\":10230:10252   */\n  swap1\n  pop\n    /* \"#utility.yul\":10206:10326   */\n  jump(tag_186)\ntag_188:\n    /* \"#utility.yul\":10146:10332   */\n  pop\n  pop\n  jump\t// out\n    /* \"#utility.yul\":10338:10881   */\ntag_68:\n    /* \"#utility.yul\":10439:10441   */\n  0x1f\n    /* \"#utility.yul\":10434:10437   */\n  dup3\n    /* \"#utility.yul\":10431:10442   */\n  gt\n    /* \"#utility.yul\":10428:10874   */\n  iszero\n  tag_191\n  jumpi\n    /* \"#utility.yul\":10473:10511   */\n  tag_192\n    /* \"#utility.yul\":10505:10510   */\n  dup2\n    /* \"#utility.yul\":10473:10511   */\n  tag_57\n  jump\t// in\ntag_192:\n    /* \"#utility.yul\":10557:10586   */\n  tag_193\n    /* \"#utility.yul\":10575:10585   */\n  dup5\n    /* \"#utility.yul\":10557:10586   */\n  tag_58\n  jump\t// in\ntag_193:\n    /* \"#utility.yul\":10547:10555   */\n  dup2\n    /* \"#utility.yul\":10543:10587   */\n  add\n    /* \"#utility.yul\":10740:10742   */\n  0x20\n    /* \"#utility.yul\":10728:10738   */\n  dup6\n    /* \"#utility.yul\":10725:10743   */\n  lt\n    /* \"#utility.yul\":10722:10771   */\n  iszero\n  tag_194\n  jumpi\n    /* \"#utility.yul\":10761:10769   */\n  dup2\n    /* \"#utility.yul\":10746:10769   */\n  swap1\n  pop\n    /* \"#utility.yul\":10722:10771   */\ntag_194:\n    /* \"#utility.yul\":10784:10864   */\n  tag_195\n    /* \"#utility.yul\":10840:10862   */\n  tag_196\n    /* \"#utility.yul\":10858:10861   */\n  dup6\n    /* \"#utility.yul\":10840:10862   */\n  tag_58\n  jump\t// in\ntag_196:\n    /* \"#utility.yul\":10830:10838   */\n  dup4\n    /* \"#utility.yul\":10826:10863   */\n  add\n    /* \"#utility.yul\":10813:10824   */\n  dup3\n    /* \"#utility.yul\":10784:10864   */\n  tag_67\n  jump\t// in\ntag_195:\n    /* \"#utility.yul\":10443:10874   */\n  pop\n  pop\n    /* \"#utility.yul\":10428:10874   */\ntag_191:\n    /* \"#utility.yul\":10338:10881   */\n  pop\n  pop\n  pop\n  jump\t// out\n    /* \"#utility.yul\":10887:11004   */\ntag_69:\n    /* \"#utility.yul\":10941:10949   */\n  0x00\n    /* \"#utility.yul\":10991:10996   */\n  dup3\n    /* \"#utility.yul\":10985:10989   */\n  dup3\n    /* \"#utility.yul\":10981:10997   */\n  shr\n    /* \"#utility.yul\":10960:10997   */\n  swap1\n  pop\n    /* \"#utility.yul\":10887:11004   */\n  swap3\n  swap2\n  pop\n  pop\n  jump\t// out\n    /* \"#utility.yul\":11010:11179   */\ntag_70:\n    /* \"#utility.yul\":11054:11060   */\n  0x00\n    /* \"#utility.yul\":11087:11138   */\n  tag_199\n    /* \"#utility.yul\":11135:11136   */\n  0x00\n    /* \"#utility.yul\":11131:11137   */\n  not\n    /* \"#utility.yul\":11123:11128   */\n  dup5\n    /* \"#utility.yul\":11120:11121   */\n  0x08\n    /* \"#utility.yul\":11116:11129   */\n  mul\n    /* \"#utility.yul\":11087:11138   */\n  tag_69\n  jump\t// in\ntag_199:\n    /* \"#utility.yul\":11083:11139   */\n  not\n    /* \"#utility.yul\":11168:11172   */\n  dup1\n    /* \"#utility.yul\":11162:11166   */\n  dup4\n    /* \"#utility.yul\":11158:11173   */\n  and\n    /* \"#utility.yul\":11148:11173   */\n  swap2\n  pop\n    /* \"#utility.yul\":11061:11179   */\n  pop\n    /* \"#utility.yul\":11010:11179   */\n  swap3\n  swap2\n  pop\n  pop\n  jump\t// out\n    /* \"#utility.yul\":11184:11479   */\ntag_71:\n    /* \"#utility.yul\":11260:11264   */\n  0x00\n    /* \"#utility.yul\":11406:11435   */\n  tag_201\n    /* \"#utility.yul\":11431:11434   */\n  dup4\n    /* \"#utility.yul\":11425:11429   */\n  dup4\n    /* \"#utility.yul\":11406:11435   */\n  tag_70\n  jump\t// in\ntag_201:\n    /* \"#utility.yul\":11398:11435   */\n  swap2\n  pop\n    /* \"#utility.yul\":11468:11471   */\n  dup3\n    /* \"#utility.yul\":11465:11466   */\n  0x02\n    /* \"#utility.yul\":11461:11472   */\n  mul\n    /* \"#utility.yul\":11455:11459   */\n  dup3\n    /* \"#utility.yul\":11452:11473   */\n  or\n    /* \"#utility.yul\":11444:11473   */\n  swap1\n  pop\n    /* \"#utility.yul\":11184:11479   */\n  swap3\n  swap2\n  pop\n  pop\n  jump\t// out\n    /* \"#utility.yul\":11484:12879   */\ntag_27:\n    /* \"#utility.yul\":11601:11638   */\n  tag_203\n    /* \"#utility.yul\":11634:11637   */\n  dup3\n    /* \"#utility.yul\":11601:11638   */\n  tag_54\n  jump\t// in\ntag_203:\n    /* \"#utility.yul\":11703:11721   */\n  0xffffffffffffffff\n    /* \"#utility.yul\":11695:11701   */\n  dup2\n    /* \"#utility.yul\":11692:11722   */\n  gt\n    /* \"#utility.yul\":11689:11745   */\n  iszero\n  tag_204\n  jumpi\n    /* \"#utility.yul\":11725:11743   */\n  tag_205\n  tag_34\n  jump\t// in\ntag_205:\n    /* \"#utility.yul\":11689:11745   */\ntag_204:\n    /* \"#utility.yul\":11769:11807   */\n  tag_206\n    /* \"#utility.yul\":11801:11805   */\n  dup3\n    /* \"#utility.yul\":11795:11806   */\n  sload\n    /* \"#utility.yul\":11769:11807   */\n  tag_56\n  jump\t// in\ntag_206:\n    /* \"#utility.yul\":11854:11921   */\n  tag_207\n    /* \"#utility.yul\":11914:11920   */\n  dup3\n    /* \"#utility.yul\":11906:11912   */\n  dup3\n    /* \"#utility.yul\":11900:11904   */\n  dup6\n    /* \"#utility.yul\":11854:11921   */\n  tag_68\n  jump\t// in\ntag_207:\n    /* \"#utility.yul\":11948:11949   */\n  0x00\n    /* \"#utility.yul\":11972:11976   */\n  0x20\n    /* \"#utility.yul\":11959:11976   */\n  swap1\n  pop\n    /* \"#utility.yul\":12004:12006   */\n  0x1f\n    /* \"#utility.yul\":11996:12002   */\n  dup4\n    /* \"#utility.yul\":11993:12007   */\n  gt\n    /* \"#utility.yul\":12021:12022   */\n  0x01\n    /* \"#utility.yul\":12016:12634   */\n  dup2\n  eq\n  tag_209\n  jumpi\n    /* \"#utility.yul\":12678:12679   */\n  0x00\n    /* \"#utility.yul\":12695:12701   */\n  dup5\n    /* \"#utility.yul\":12692:12769   */\n  iszero\n  tag_210\n  jumpi\n    /* \"#utility.yul\":12744:12753   */\n  dup3\n    /* \"#utility.yul\":12739:12742   */\n  dup8\n    /* \"#utility.yul\":12735:12754   */\n  add\n    /* \"#utility.yul\":12729:12755   */\n  mload\n    /* \"#utility.yul\":12720:12755   */\n  swap1\n  pop\n    /* \"#utility.yul\":12692:12769   */\ntag_210:\n    /* \"#utility.yul\":12795:12862   */\n  tag_211\n    /* \"#utility.yul\":12855:12861   */\n  dup6\n    /* \"#utility.yul\":12848:12853   */\n  dup3\n    /* \"#utility.yul\":12795:12862   */\n  tag_71\n  jump\t// in\ntag_211:\n    /* \"#utility.yul\":12789:12793   */\n  dup7\n    /* \"#utility.yul\":12782:12863   */\n  sstore\n    /* \"#utility.yul\":12651:12873   */\n  pop\n    /* \"#utility.yul\":11986:12873   */\n  jump(tag_208)\n    /* \"#utility.yul\":12016:12634   */\ntag_209:\n    /* \"#utility.yul\":12068:12072   */\n  0x1f\n    /* \"#utility.yul\":12064:12073   */\n  not\n    /* \"#utility.yul\":12056:12062   */\n  dup5\n    /* \"#utility.yul\":12052:12074   */\n  and\n    /* \"#utility.yul\":12102:12139   */\n  tag_212\n    /* \"#utility.yul\":12134:12138   */\n  dup7\n    /* \"#utility.yul\":12102:12139   */\n  tag_57\n  jump\t// in\ntag_212:\n    /* \"#utility.yul\":12161:12162   */\n  0x00\n    /* \"#utility.yul\":12175:12383   */\ntag_213:\n    /* \"#utility.yul\":12189:12196   */\n  dup3\n    /* \"#utility.yul\":12186:12187   */\n  dup2\n    /* \"#utility.yul\":12183:12197   */\n  lt\n    /* \"#utility.yul\":12175:12383   */\n  iszero\n  tag_215\n  jumpi\n    /* \"#utility.yul\":12268:12277   */\n  dup5\n    /* \"#utility.yul\":12263:12266   */\n  dup10\n    /* \"#utility.yul\":12259:12278   */\n  add\n    /* \"#utility.yul\":12253:12279   */\n  mload\n    /* \"#utility.yul\":12245:12251   */\n  dup3\n    /* \"#utility.yul\":12238:12280   */\n  sstore\n    /* \"#utility.yul\":12319:12320   */\n  0x01\n    /* \"#utility.yul\":12311:12317   */\n  dup3\n    /* \"#utility.yul\":12307:12321   */\n  add\n    /* \"#utility.yul\":12297:12321   */\n  swap2\n  pop\n    /* \"#utility.yul\":12366:12368   */\n  0x20\n    /* \"#utility.yul\":12355:12364   */\n  dup6\n    /* \"#utility.yul\":12351:12369   */\n  add\n    /* \"#utility.yul\":12338:12369   */\n  swap5\n  pop\n    /* \"#utility.yul\":12212:12216   */\n  0x20\n    /* \"#utility.yul\":12209:12210   */\n  dup2\n    /* \"#utility.yul\":12205:12217   */\n  add\n    /* \"#utility.yul\":12200:12217   */\n  swap1\n  pop\n    /* \"#utility.yul\":12175:12383   */\n  jump(tag_213)\ntag_215:\n    /* \"#utility.yul\":12411:12417   */\n  dup7\n    /* \"#utility.yul\":12402:12409   */\n  dup4\n    /* \"#utility.yul\":12399:12418   */\n  lt\n    /* \"#utility.yul\":12396:12575   */\n  iszero\n  tag_216\n  jumpi\n    /* \"#utility.yul\":12469:12478   */\n  dup5\n    /* \"#utility.yul\":12464:12467   */\n  dup10\n    /* \"#utility.yul\":12460:12479   */\n  add\n    /* \"#utility.yul\":12454:12480   */\n  mload\n    /* \"#utility.yul\":12512:12560   */\n  tag_217\n    /* \"#utility.yul\":12554:12558   */\n  0x1f\n    /* \"#utility.yul\":12546:12552   */\n  dup10\n    /* \"#utility.yul\":12542:12559   */\n  and\n    /* \"#utility.yul\":12531:12540   */\n  dup3\n    /* \"#utility.yul\":12512:12560   */\n  tag_70\n  jump\t// in\ntag_217:\n    /* \"#utility.yul\":12504:12510   */\n  dup4\n    /* \"#utility.yul\":12497:12561   */\n  sstore\n    /* \"#utility.yul\":12419:12575   */\n  pop\n    /* \"#utility.yul\":12396:12575   */\ntag_216:\n    /* \"#utility.yul\":12621:12622   */\n  0x01\n    /* \"#utility.yul\":12617:12618   */\n  0x02\n    /* \"#utility.yul\":12609:12615   */\n  dup9\n    /* \"#utility.yul\":12605:12619   */\n  mul\n    /* \"#utility.yul\":12601:12623   */\n  add\n    /* \"#utility.yul\":12595:12599   */\n  dup9\n    /* \"#utility.yul\":12588:12624   */\n  sstore\n    /* \"#utility.yul\":12023:12634   */\n  pop\n  pop\n  pop\n    /* \"#utility.yul\":11986:12873   */\ntag_208:\n  pop\n    /* \"#utility.yul\":11576:12879   */\n  pop\n  pop\n  pop\n    /* \"#utility.yul\":11484:12879   */\n  pop\n  pop\n  jump\t// out\n    /* \"vote.sol\":111:3720  contract Election {... */\ntag_23:\n  dataSize(sub_0)\n  dup1\n  dataOffset(sub_0)\n  0x00\n  codecopy\n  0x00\n  return\nstop\n\nsub_0: assembly {\n        /* \"vote.sol\":111:3720  contract Election {... */\n      mstore(0x40, 0x80)\n      callvalue\n      dup1\n      iszero\n      tag_1\n      jumpi\n      revert(0x00, 0x00)\n    tag_1:\n      pop\n      jumpi(tag_2, lt(calldatasize, 0x04))\n      shr(0xe0, calldataload(0x00))\n      dup1\n      0x59a6026d\n      gt\n      tag_12\n      jumpi\n      dup1\n      0x59a6026d\n      eq\n      tag_7\n      jumpi\n      dup1\n      0x777c3acf\n      eq\n      tag_8\n      jumpi\n      dup1\n      0x7a1edd77\n      eq\n      tag_9\n      jumpi\n      dup1\n      0x92bc5e2b\n      eq\n      tag_10\n      jumpi\n      dup1\n      0xbe82d07d\n      eq\n      tag_11\n      jumpi\n      jump(tag_2)\n    tag_12:\n      dup1\n      0x0121b93f\n      eq\n      tag_3\n      jumpi\n      dup1\n      0x0d15fd77\n      eq\n      tag_4\n      jumpi\n      dup1\n      0x22c17e05\n      eq\n      tag_5\n      jumpi\n      dup1\n      0x2f6d1581\n      eq\n      tag_6\n      jumpi\n    tag_2:\n      revert(0x00, 0x00)\n        /* \"vote.sol\":1801:2499  function vote(uint256 _indexOfPresident) public {... */\n    tag_3:\n      tag_13\n      0x04\n      dup1\n      calldatasize\n      sub\n      dup2\n      add\n      swap1\n      tag_14\n      swap2\n      swap1\n      tag_15\n      jump\t// in\n    tag_14:\n      tag_16\n      jump\t// in\n    tag_13:\n      stop\n        /* \"vote.sol\":306:335  uint256 public totalVotes = 0 */\n    tag_4:\n      tag_17\n      tag_18\n      jump\t// in\n    tag_17:\n      mload(0x40)\n      tag_19\n      swap2\n      swap1\n      tag_20\n      jump\t// in\n    tag_19:\n      mload(0x40)\n      dup1\n      swap2\n      sub\n      swap1\n      return\n        /* \"vote.sol\":2655:3050  function getPresidentsInfoString() public view returns (string memory) {... */\n    tag_5:\n      tag_21\n      tag_22\n      jump\t// in\n    tag_21:\n      mload(0x40)\n      tag_23\n      swap2\n      swap1\n      tag_24\n      jump\t// in\n    tag_23:\n      mload(0x40)\n      dup1\n      swap2\n      sub\n      swap1\n      return\n        /* \"vote.sol\":1671:1794  function addVotingTime(uint256 _additionalTime) public onlyOvren {... */\n    tag_6:\n      tag_25\n      0x04\n      dup1\n      calldatasize\n      sub\n      dup2\n      add\n      swap1\n      tag_26\n      swap2\n      swap1\n      tag_15\n      jump\t// in\n    tag_26:\n      tag_27\n      jump\t// in\n    tag_25:\n      stop\n        /* \"vote.sol\":1550:1664  function setStateOfVoting(bool _isActiveVoting) public onlyOvren {... */\n    tag_7:\n      tag_28\n      0x04\n      dup1\n      calldatasize\n      sub\n      dup2\n      add\n      swap1\n      tag_29\n      swap2\n      swap1\n      tag_30\n      jump\t// in\n    tag_29:\n      tag_31\n      jump\t// in\n    tag_28:\n      stop\n        /* \"vote.sol\":277:300  uint256 public maxVotes */\n    tag_8:\n      tag_32\n      tag_33\n      jump\t// in\n    tag_32:\n      mload(0x40)\n      tag_34\n      swap2\n      swap1\n      tag_20\n      jump\t// in\n    tag_34:\n      mload(0x40)\n      dup1\n      swap2\n      sub\n      swap1\n      return\n        /* \"vote.sol\":3410:3718  function getVotesOfPresident(uint256 _indexOfPresident) public view returns(string memory){... */\n    tag_9:\n      tag_35\n      0x04\n      dup1\n      calldatasize\n      sub\n      dup2\n      add\n      swap1\n      tag_36\n      swap2\n      swap1\n      tag_15\n      jump\t// in\n    tag_36:\n      tag_37\n      jump\t// in\n    tag_35:\n      mload(0x40)\n      tag_38\n      swap2\n      swap1\n      tag_24\n      jump\t// in\n    tag_38:\n      mload(0x40)\n      dup1\n      swap2\n      sub\n      swap1\n      return\n        /* \"vote.sol\":3056:3404  function getLeaderIndex() public view returns(uint256) {... */\n    tag_10:\n      tag_39\n      tag_40\n      jump\t// in\n    tag_39:\n      mload(0x40)\n      tag_41\n      swap2\n      swap1\n      tag_20\n      jump\t// in\n    tag_41:\n      mload(0x40)\n      dup1\n      swap2\n      sub\n      swap1\n      return\n        /* \"vote.sol\":2507:2649  function addPresident(string memory _name, string memory _description) public {... */\n    tag_11:\n      tag_42\n      0x04\n      dup1\n      calldatasize\n      sub\n      dup2\n      add\n      swap1\n      tag_43\n      swap2\n      swap1\n      tag_44\n      jump\t// in\n    tag_43:\n      tag_45\n      jump\t// in\n    tag_42:\n      stop\n        /* \"vote.sol\":1801:2499  function vote(uint256 _indexOfPresident) public {... */\n    tag_16:\n        /* \"vote.sol\":1885:1889  true */\n      0x01\n        /* \"vote.sol\":1867:1889  isActiveVoting == true */\n      iszero\n      iszero\n        /* \"vote.sol\":1867:1881  isActiveVoting */\n      0x00\n      0x00\n      swap1\n      sload\n      swap1\n      0x0100\n      exp\n      swap1\n      div\n      0xff\n      and\n        /* \"vote.sol\":1867:1889  isActiveVoting == true */\n      iszero\n      iszero\n      eq\n        /* \"vote.sol\":1859:1919  require(isActiveVoting == true, ElectionWasStoppedByOwner()) */\n      tag_47\n      jumpi\n      mload(0x40)\n      0x3c7769f400000000000000000000000000000000000000000000000000000000\n      dup2\n      mstore\n      0x04\n      add\n      mload(0x40)\n      dup1\n      swap2\n      sub\n      swap1\n      revert\n    tag_47:\n        /* \"vote.sol\":1946:1956  msg.sender */\n      caller\n        /* \"vote.sol\":1937:1956  owner != msg.sender */\n      0xffffffffffffffffffffffffffffffffffffffff\n      and\n        /* \"vote.sol\":1937:1942  owner */\n      0x00\n      0x01\n      swap1\n      sload\n      swap1\n      0x0100\n      exp\n      swap1\n      div\n      0xffffffffffffffffffffffffffffffffffffffff\n      and\n        /* \"vote.sol\":1937:1956  owner != msg.sender */\n      0xffffffffffffffffffffffffffffffffffffffff\n      and\n      sub\n        /* \"vote.sol\":1929:1976  require(owner != msg.sender, OwnerCanNotVote()) */\n      tag_48\n      jumpi\n      mload(0x40)\n      0xb47bf5f800000000000000000000000000000000000000000000000000000000\n      dup2\n      mstore\n      0x04\n      add\n      mload(0x40)\n      dup1\n      swap2\n      sub\n      swap1\n      revert\n    tag_48:\n        /* \"vote.sol\":2007:2015  maxVotes */\n      sload(0x01)\n        /* \"vote.sol\":1994:2004  totalVotes */\n      sload(0x02)\n        /* \"vote.sol\":1994:2015  totalVotes < maxVotes */\n      lt\n        /* \"vote.sol\":2045:2053  maxVotes */\n      sload(0x01)\n        /* \"vote.sol\":1986:2055  require(totalVotes < maxVotes, MaximumNumberOfVotesReached(maxVotes)) */\n      swap1\n      tag_49\n      jumpi\n      mload(0x40)\n      0x11e7fc5600000000000000000000000000000000000000000000000000000000\n      dup2\n      mstore\n      0x04\n      add\n      tag_50\n      swap2\n      swap1\n      tag_20\n      jump\t// in\n    tag_50:\n      mload(0x40)\n      dup1\n      swap2\n      sub\n      swap1\n      revert\n    tag_49:\n      pop\n        /* \"vote.sol\":2092:2114  electionCompletionTime */\n      sload(0x03)\n        /* \"vote.sol\":2073:2088  block.timestamp */\n      timestamp\n        /* \"vote.sol\":2073:2114  block.timestamp <= electionCompletionTime */\n      gt\n      iszero\n        /* \"vote.sol\":2125:2147  electionCompletionTime */\n      sload(0x03)\n        /* \"vote.sol\":2065:2149  require(block.timestamp <= electionCompletionTime, TimeIsUp(electionCompletionTime)) */\n      swap1\n      tag_51\n      jumpi\n      mload(0x40)\n      0x8f9a963d00000000000000000000000000000000000000000000000000000000\n      dup2\n      mstore\n      0x04\n      add\n      tag_52\n      swap2\n      swap1\n      tag_20\n      jump\t// in\n    tag_52:\n      mload(0x40)\n      dup1\n      swap2\n      sub\n      swap1\n      revert\n    tag_51:\n      pop\n        /* \"vote.sol\":2196:2201  false */\n      0x00\n        /* \"vote.sol\":2167:2201  isAddressVote[msg.sender] == false */\n      iszero\n      iszero\n        /* \"vote.sol\":2167:2180  isAddressVote */\n      0x05\n        /* \"vote.sol\":2167:2192  isAddressVote[msg.sender] */\n      0x00\n        /* \"vote.sol\":2181:2191  msg.sender */\n      caller\n        /* \"vote.sol\":2167:2192  isAddressVote[msg.sender] */\n      0xffffffffffffffffffffffffffffffffffffffff\n      and\n      0xffffffffffffffffffffffffffffffffffffffff\n      and\n      dup2\n      mstore\n      0x20\n      add\n      swap1\n      dup2\n      mstore\n      0x20\n      add\n      0x00\n      keccak256\n      0x00\n      swap1\n      sload\n      swap1\n      0x0100\n      exp\n      swap1\n      div\n      0xff\n      and\n        /* \"vote.sol\":2167:2201  isAddressVote[msg.sender] == false */\n      iszero\n      iszero\n      eq\n        /* \"vote.sol\":2159:2225  require(isAddressVote[msg.sender] == false, YouHaveAlreadyVoted()) */\n      tag_53\n      jumpi\n      mload(0x40)\n      0x1f601b3f00000000000000000000000000000000000000000000000000000000\n      dup2\n      mstore\n      0x04\n      add\n      mload(0x40)\n      dup1\n      swap2\n      sub\n      swap1\n      revert\n    tag_53:\n        /* \"vote.sol\":2263:2273  presidents */\n      0x04\n        /* \"vote.sol\":2263:2280  presidents.length */\n      dup1\n      sload\n      swap1\n      pop\n        /* \"vote.sol\":2243:2260  _indexOfPresident */\n      dup2\n        /* \"vote.sol\":2243:2280  _indexOfPresident < presidents.length */\n      lt\n        /* \"vote.sol\":2300:2310  presidents */\n      0x04\n        /* \"vote.sol\":2300:2317  presidents.length */\n      dup1\n      sload\n      swap1\n      pop\n        /* \"vote.sol\":2235:2319  require(_indexOfPresident < presidents.length, IndexDoesNotExist(presidents.length)) */\n      swap1\n      tag_54\n      jumpi\n      mload(0x40)\n      0xcd6d071e00000000000000000000000000000000000000000000000000000000\n      dup2\n      mstore\n      0x04\n      add\n      tag_55\n      swap2\n      swap1\n      tag_20\n      jump\t// in\n    tag_55:\n      mload(0x40)\n      dup1\n      swap2\n      sub\n      swap1\n      revert\n    tag_54:\n      pop\n        /* \"vote.sol\":2358:2362  true */\n      0x01\n        /* \"vote.sol\":2330:2343  isAddressVote */\n      0x05\n        /* \"vote.sol\":2330:2355  isAddressVote[msg.sender] */\n      0x00\n        /* \"vote.sol\":2344:2354  msg.sender */\n      caller\n        /* \"vote.sol\":2330:2355  isAddressVote[msg.sender] */\n      0xffffffffffffffffffffffffffffffffffffffff\n      and\n      0xffffffffffffffffffffffffffffffffffffffff\n      and\n      dup2\n      mstore\n      0x20\n      add\n      swap1\n      dup2\n      mstore\n      0x20\n      add\n      0x00\n      keccak256\n      0x00\n        /* \"vote.sol\":2330:2362  isAddressVote[msg.sender] = true */\n      0x0100\n      exp\n      dup2\n      sload\n      dup2\n      0xff\n      mul\n      not\n      and\n      swap1\n      dup4\n      iszero\n      iszero\n      mul\n      or\n      swap1\n      sstore\n      pop\n        /* \"vote.sol\":2400:2401  1 */\n      0x01\n        /* \"vote.sol\":2372:2377  votes */\n      0x06\n        /* \"vote.sol\":2372:2396  votes[_indexOfPresident] */\n      0x00\n        /* \"vote.sol\":2378:2395  _indexOfPresident */\n      dup4\n        /* \"vote.sol\":2372:2396  votes[_indexOfPresident] */\n      dup2\n      mstore\n      0x20\n      add\n      swap1\n      dup2\n      mstore\n      0x20\n      add\n      0x00\n      keccak256\n      0x00\n        /* \"vote.sol\":2372:2401  votes[_indexOfPresident] += 1 */\n      dup3\n      dup3\n      sload\n      tag_56\n      swap2\n      swap1\n      tag_57\n      jump\t// in\n    tag_56:\n      swap3\n      pop\n      pop\n      dup2\n      swap1\n      sstore\n      pop\n        /* \"vote.sol\":2424:2425  1 */\n      0x01\n        /* \"vote.sol\":2411:2421  totalVotes */\n      0x02\n      0x00\n        /* \"vote.sol\":2411:2425  totalVotes +=1 */\n      dup3\n      dup3\n      sload\n      tag_58\n      swap2\n      swap1\n      tag_57\n      jump\t// in\n    tag_58:\n      swap3\n      pop\n      pop\n      dup2\n      swap1\n      sstore\n      pop\n        /* \"vote.sol\":2441:2492  VoteIsOk(_indexOfPresident, msg.sender, totalVotes) */\n      0xb613bb210e5ca6fd5d7bdb566e84384049d0bb0a23d9c416438a31a95826c1ab\n        /* \"vote.sol\":2450:2467  _indexOfPresident */\n      dup2\n        /* \"vote.sol\":2469:2479  msg.sender */\n      caller\n        /* \"vote.sol\":2481:2491  totalVotes */\n      sload(0x02)\n        /* \"vote.sol\":2441:2492  VoteIsOk(_indexOfPresident, msg.sender, totalVotes) */\n      mload(0x40)\n      tag_59\n      swap4\n      swap3\n      swap2\n      swap1\n      tag_60\n      jump\t// in\n    tag_59:\n      mload(0x40)\n      dup1\n      swap2\n      sub\n      swap1\n      log1\n        /* \"vote.sol\":1801:2499  function vote(uint256 _indexOfPresident) public {... */\n      pop\n      jump\t// out\n        /* \"vote.sol\":306:335  uint256 public totalVotes = 0 */\n    tag_18:\n      sload(0x02)\n      dup2\n      jump\t// out\n        /* \"vote.sol\":2655:3050  function getPresidentsInfoString() public view returns (string memory) {... */\n    tag_22:\n        /* \"vote.sol\":2711:2724  string memory */\n      0x60\n        /* \"vote.sol\":2736:2744  uint len */\n      0x00\n        /* \"vote.sol\":2747:2757  presidents */\n      0x04\n        /* \"vote.sol\":2747:2764  presidents.length */\n      dup1\n      sload\n      swap1\n      pop\n        /* \"vote.sol\":2736:2764  uint len = presidents.length */\n      swap1\n      pop\n        /* \"vote.sol\":2775:2803  string memory presidentsInfo */\n      0x00\n        /* \"vote.sol\":2775:2808  string memory presidentsInfo = '' */\n      mload(0x40)\n      dup1\n      0x20\n      add\n      0x40\n      mstore\n      dup1\n      0x00\n      dup2\n      mstore\n      pop\n      swap1\n      pop\n        /* \"vote.sol\":2824:2833  uint256 i */\n      0x00\n        /* \"vote.sol\":2836:2837  0 */\n      0x00\n        /* \"vote.sol\":2824:2837  uint256 i = 0 */\n      swap1\n      pop\n        /* \"vote.sol\":2819:3012  for (uint256 i = 0; i < len; i++) {... */\n    tag_62:\n        /* \"vote.sol\":2843:2846  len */\n      dup3\n        /* \"vote.sol\":2839:2840  i */\n      dup2\n        /* \"vote.sol\":2839:2846  i < len */\n      lt\n        /* \"vote.sol\":2819:3012  for (uint256 i = 0; i < len; i++) {... */\n      iszero\n      tag_63\n      jumpi\n        /* \"vote.sol\":2898:2912  presidentsInfo */\n      dup2\n        /* \"vote.sol\":2914:2933  Strings.toString(i) */\n      tag_65\n        /* \"vote.sol\":2931:2932  i */\n      dup3\n        /* \"vote.sol\":2914:2930  Strings.toString */\n      tag_66\n        /* \"vote.sol\":2914:2933  Strings.toString(i) */\n      jump\t// in\n    tag_65:\n        /* \"vote.sol\":2941:2951  presidents */\n      0x04\n        /* \"vote.sol\":2952:2953  i */\n      dup4\n        /* \"vote.sol\":2941:2954  presidents[i] */\n      dup2\n      sload\n      dup2\n      lt\n      tag_67\n      jumpi\n      tag_68\n      tag_69\n      jump\t// in\n    tag_68:\n    tag_67:\n      swap1\n      0x00\n      mstore\n      keccak256(0x00, 0x20)\n      swap1\n      0x02\n      mul\n      add\n        /* \"vote.sol\":2941:2959  presidents[i].name */\n      0x00\n      add\n        /* \"vote.sol\":2969:2979  presidents */\n      0x04\n        /* \"vote.sol\":2980:2981  i */\n      dup5\n        /* \"vote.sol\":2969:2982  presidents[i] */\n      dup2\n      sload\n      dup2\n      lt\n      tag_71\n      jumpi\n      tag_72\n      tag_69\n      jump\t// in\n    tag_72:\n    tag_71:\n      swap1\n      0x00\n      mstore\n      keccak256(0x00, 0x20)\n      swap1\n      0x02\n      mul\n      add\n        /* \"vote.sol\":2969:2994  presidents[i].description */\n      0x01\n      add\n        /* \"vote.sol\":2884:3001  string.concat(presidentsInfo, Strings.toString(i), \") \", presidents[i].name, \" - '\", presidents[i].description, \"' \") */\n      add(0x20, mload(0x40))\n      tag_74\n      swap5\n      swap4\n      swap3\n      swap2\n      swap1\n      tag_75\n      jump\t// in\n    tag_74:\n      mload(0x40)\n      0x20\n      dup2\n      dup4\n      sub\n      sub\n      dup2\n      mstore\n      swap1\n      0x40\n      mstore\n        /* \"vote.sol\":2867:3001  presidentsInfo = string.concat(presidentsInfo, Strings.toString(i), \") \", presidents[i].name, \" - '\", presidents[i].description, \"' \") */\n      swap2\n      pop\n        /* \"vote.sol\":2848:2851  i++ */\n      dup1\n      dup1\n      0x01\n      add\n      swap2\n      pop\n      pop\n        /* \"vote.sol\":2819:3012  for (uint256 i = 0; i < len; i++) {... */\n      jump(tag_62)\n    tag_63:\n      pop\n        /* \"vote.sol\":3029:3043  presidentsInfo */\n      dup1\n        /* \"vote.sol\":3022:3043  return presidentsInfo */\n      swap3\n      pop\n      pop\n      pop\n        /* \"vote.sol\":2655:3050  function getPresidentsInfoString() public view returns (string memory) {... */\n      swap1\n      jump\t// out\n        /* \"vote.sol\":1671:1794  function addVotingTime(uint256 _additionalTime) public onlyOvren {... */\n    tag_27:\n        /* \"vote.sol\":946:956  msg.sender */\n      caller\n        /* \"vote.sol\":937:956  owner == msg.sender */\n      0xffffffffffffffffffffffffffffffffffffffff\n      and\n        /* \"vote.sol\":937:942  owner */\n      0x00\n      0x01\n      swap1\n      sload\n      swap1\n      0x0100\n      exp\n      swap1\n      div\n      0xffffffffffffffffffffffffffffffffffffffff\n      and\n        /* \"vote.sol\":937:956  owner == msg.sender */\n      0xffffffffffffffffffffffffffffffffffffffff\n      and\n      eq\n        /* \"vote.sol\":929:985  require(owner == msg.sender, OnlyOwnerCanControlState()) */\n      tag_77\n      jumpi\n      mload(0x40)\n      0xeabd223e00000000000000000000000000000000000000000000000000000000\n      dup2\n      mstore\n      0x04\n      add\n      mload(0x40)\n      dup1\n      swap2\n      sub\n      swap1\n      revert\n    tag_77:\n        /* \"vote.sol\":1772:1787  _additionalTime */\n      dup1\n        /* \"vote.sol\":1746:1768  electionCompletionTime */\n      0x03\n      0x00\n        /* \"vote.sol\":1746:1787  electionCompletionTime += _additionalTime */\n      dup3\n      dup3\n      sload\n      tag_79\n      swap2\n      swap1\n      tag_57\n      jump\t// in\n    tag_79:\n      swap3\n      pop\n      pop\n      dup2\n      swap1\n      sstore\n      pop\n        /* \"vote.sol\":1671:1794  function addVotingTime(uint256 _additionalTime) public onlyOvren {... */\n      pop\n      jump\t// out\n        /* \"vote.sol\":1550:1664  function setStateOfVoting(bool _isActiveVoting) public onlyOvren {... */\n    tag_31:\n        /* \"vote.sol\":946:956  msg.sender */\n      caller\n        /* \"vote.sol\":937:956  owner == msg.sender */\n      0xffffffffffffffffffffffffffffffffffffffff\n      and\n        /* \"vote.sol\":937:942  owner */\n      0x00\n      0x01\n      swap1\n      sload\n      swap1\n      0x0100\n      exp\n      swap1\n      div\n      0xffffffffffffffffffffffffffffffffffffffff\n      and\n        /* \"vote.sol\":937:956  owner == msg.sender */\n      0xffffffffffffffffffffffffffffffffffffffff\n      and\n      eq\n        /* \"vote.sol\":929:985  require(owner == msg.sender, OnlyOwnerCanControlState()) */\n      tag_81\n      jumpi\n      mload(0x40)\n      0xeabd223e00000000000000000000000000000000000000000000000000000000\n      dup2\n      mstore\n      0x04\n      add\n      mload(0x40)\n      dup1\n      swap2\n      sub\n      swap1\n      revert\n    tag_81:\n        /* \"vote.sol\":1642:1657  _isActiveVoting */\n      dup1\n        /* \"vote.sol\":1625:1639  isActiveVoting */\n      0x00\n      0x00\n        /* \"vote.sol\":1625:1657  isActiveVoting = _isActiveVoting */\n      0x0100\n      exp\n      dup2\n      sload\n      dup2\n      0xff\n      mul\n      not\n      and\n      swap1\n      dup4\n      iszero\n      iszero\n      mul\n      or\n      swap1\n      sstore\n      pop\n        /* \"vote.sol\":1550:1664  function setStateOfVoting(bool _isActiveVoting) public onlyOvren {... */\n      pop\n      jump\t// out\n        /* \"vote.sol\":277:300  uint256 public maxVotes */\n    tag_33:\n      sload(0x01)\n      dup2\n      jump\t// out\n        /* \"vote.sol\":3410:3718  function getVotesOfPresident(uint256 _indexOfPresident) public view returns(string memory){... */\n    tag_37:\n        /* \"vote.sol\":3486:3499  string memory */\n      0x60\n        /* \"vote.sol\":3538:3548  presidents */\n      0x04\n        /* \"vote.sol\":3538:3555  presidents.length */\n      dup1\n      sload\n      swap1\n      pop\n        /* \"vote.sol\":3518:3535  _indexOfPresident */\n      dup3\n        /* \"vote.sol\":3518:3555  _indexOfPresident < presidents.length */\n      lt\n        /* \"vote.sol\":3575:3585  presidents */\n      0x04\n        /* \"vote.sol\":3575:3592  presidents.length */\n      dup1\n      sload\n      swap1\n      pop\n        /* \"vote.sol\":3510:3594  require(_indexOfPresident < presidents.length, IndexDoesNotExist(presidents.length)) */\n      swap1\n      tag_84\n      jumpi\n      mload(0x40)\n      0xcd6d071e00000000000000000000000000000000000000000000000000000000\n      dup2\n      mstore\n      0x04\n      add\n      tag_85\n      swap2\n      swap1\n      tag_20\n      jump\t// in\n    tag_85:\n      mload(0x40)\n      dup1\n      swap2\n      sub\n      swap1\n      revert\n    tag_84:\n      pop\n        /* \"vote.sol\":3626:3636  presidents */\n      0x04\n        /* \"vote.sol\":3637:3654  _indexOfPresident */\n      dup3\n        /* \"vote.sol\":3626:3655  presidents[_indexOfPresident] */\n      dup2\n      sload\n      dup2\n      lt\n      tag_86\n      jumpi\n      tag_87\n      tag_69\n      jump\t// in\n    tag_87:\n    tag_86:\n      swap1\n      0x00\n      mstore\n      keccak256(0x00, 0x20)\n      swap1\n      0x02\n      mul\n      add\n        /* \"vote.sol\":3626:3660  presidents[_indexOfPresident].name */\n      0x00\n      add\n        /* \"vote.sol\":3668:3710  Strings.toString(votes[_indexOfPresident]) */\n      tag_89\n        /* \"vote.sol\":3685:3690  votes */\n      0x06\n        /* \"vote.sol\":3685:3709  votes[_indexOfPresident] */\n      0x00\n        /* \"vote.sol\":3691:3708  _indexOfPresident */\n      dup6\n        /* \"vote.sol\":3685:3709  votes[_indexOfPresident] */\n      dup2\n      mstore\n      0x20\n      add\n      swap1\n      dup2\n      mstore\n      0x20\n      add\n      0x00\n      keccak256\n      sload\n        /* \"vote.sol\":3668:3684  Strings.toString */\n      tag_66\n        /* \"vote.sol\":3668:3710  Strings.toString(votes[_indexOfPresident]) */\n      jump\t// in\n    tag_89:\n        /* \"vote.sol\":3612:3711  string.concat(presidents[_indexOfPresident].name, ': ', Strings.toString(votes[_indexOfPresident])) */\n      add(0x20, mload(0x40))\n      tag_90\n      swap3\n      swap2\n      swap1\n      tag_91\n      jump\t// in\n    tag_90:\n      mload(0x40)\n      0x20\n      dup2\n      dup4\n      sub\n      sub\n      dup2\n      mstore\n      swap1\n      0x40\n      mstore\n        /* \"vote.sol\":3605:3711  return string.concat(presidents[_indexOfPresident].name, ': ', Strings.toString(votes[_indexOfPresident])) */\n      swap1\n      pop\n        /* \"vote.sol\":3410:3718  function getVotesOfPresident(uint256 _indexOfPresident) public view returns(string memory){... */\n      swap2\n      swap1\n      pop\n      jump\t// out\n        /* \"vote.sol\":3056:3404  function getLeaderIndex() public view returns(uint256) {... */\n    tag_40:\n        /* \"vote.sol\":3102:3109  uint256 */\n      0x00\n        /* \"vote.sol\":3121:3137  uint256 maxValue */\n      0x00\n        /* \"vote.sol\":3140:3141  0 */\n      0x00\n        /* \"vote.sol\":3121:3141  uint256 maxValue = 0 */\n      swap1\n      pop\n        /* \"vote.sol\":3151:3170  uint256 leaderIndex */\n      0x00\n        /* \"vote.sol\":3173:3174  0 */\n      0x00\n        /* \"vote.sol\":3151:3174  uint256 leaderIndex = 0 */\n      swap1\n      pop\n        /* \"vote.sol\":3195:3204  uint256 i */\n      0x00\n        /* \"vote.sol\":3207:3208  0 */\n      0x00\n        /* \"vote.sol\":3195:3208  uint256 i = 0 */\n      swap1\n      pop\n        /* \"vote.sol\":3191:3369  for(uint256 i = 0; i < presidents.length; i++){... */\n    tag_93:\n        /* \"vote.sol\":3214:3224  presidents */\n      0x04\n        /* \"vote.sol\":3214:3231  presidents.length */\n      dup1\n      sload\n      swap1\n      pop\n        /* \"vote.sol\":3210:3211  i */\n      dup2\n        /* \"vote.sol\":3210:3231  i < presidents.length */\n      lt\n        /* \"vote.sol\":3191:3369  for(uint256 i = 0; i < presidents.length; i++){... */\n      iszero\n      tag_94\n      jumpi\n        /* \"vote.sol\":3265:3273  maxValue */\n      dup3\n        /* \"vote.sol\":3254:3259  votes */\n      0x06\n        /* \"vote.sol\":3254:3262  votes[i] */\n      0x00\n        /* \"vote.sol\":3260:3261  i */\n      dup4\n        /* \"vote.sol\":3254:3262  votes[i] */\n      dup2\n      mstore\n      0x20\n      add\n      swap1\n      dup2\n      mstore\n      0x20\n      add\n      0x00\n      keccak256\n      sload\n        /* \"vote.sol\":3254:3273  votes[i] > maxValue */\n      gt\n        /* \"vote.sol\":3251:3359  if(votes[i] > maxValue){... */\n      iszero\n      tag_96\n      jumpi\n        /* \"vote.sol\":3303:3308  votes */\n      0x06\n        /* \"vote.sol\":3303:3311  votes[i] */\n      0x00\n        /* \"vote.sol\":3309:3310  i */\n      dup3\n        /* \"vote.sol\":3303:3311  votes[i] */\n      dup2\n      mstore\n      0x20\n      add\n      swap1\n      dup2\n      mstore\n      0x20\n      add\n      0x00\n      keccak256\n      sload\n        /* \"vote.sol\":3292:3311  maxValue = votes[i] */\n      swap3\n      pop\n        /* \"vote.sol\":3343:3344  i */\n      dup1\n        /* \"vote.sol\":3329:3344  leaderIndex = i */\n      swap2\n      pop\n        /* \"vote.sol\":3251:3359  if(votes[i] > maxValue){... */\n    tag_96:\n        /* \"vote.sol\":3233:3236  i++ */\n      dup1\n      dup1\n      0x01\n      add\n      swap2\n      pop\n      pop\n        /* \"vote.sol\":3191:3369  for(uint256 i = 0; i < presidents.length; i++){... */\n      jump(tag_93)\n    tag_94:\n      pop\n        /* \"vote.sol\":3386:3397  leaderIndex */\n      dup1\n        /* \"vote.sol\":3379:3397  return leaderIndex */\n      swap3\n      pop\n      pop\n      pop\n        /* \"vote.sol\":3056:3404  function getLeaderIndex() public view returns(uint256) {... */\n      swap1\n      jump\t// out\n        /* \"vote.sol\":2507:2649  function addPresident(string memory _name, string memory _description) public {... */\n    tag_45:\n        /* \"vote.sol\":2595:2605  presidents */\n      0x04\n        /* \"vote.sol\":2611:2641  President(_name, _description) */\n      mload(0x40)\n      dup1\n      0x40\n      add\n      0x40\n      mstore\n      dup1\n        /* \"vote.sol\":2621:2626  _name */\n      dup5\n        /* \"vote.sol\":2611:2641  President(_name, _description) */\n      dup2\n      mstore\n      0x20\n      add\n        /* \"vote.sol\":2628:2640  _description */\n      dup4\n        /* \"vote.sol\":2611:2641  President(_name, _description) */\n      dup2\n      mstore\n      pop\n        /* \"vote.sol\":2595:2642  presidents.push(President(_name, _description)) */\n      swap1\n      dup1\n      0x01\n      dup2\n      sload\n      add\n      dup1\n      dup3\n      sstore\n      dup1\n      swap2\n      pop\n      pop\n      0x01\n      swap1\n      sub\n      swap1\n      0x00\n      mstore\n      keccak256(0x00, 0x20)\n      swap1\n      0x02\n      mul\n      add\n      0x00\n      swap1\n      swap2\n      swap1\n      swap2\n      swap1\n      swap2\n      pop\n      0x00\n      dup3\n      add\n      mload\n      dup2\n      0x00\n      add\n      swap1\n      dup2\n      tag_99\n      swap2\n      swap1\n      tag_100\n      jump\t// in\n    tag_99:\n      pop\n      0x20\n      dup3\n      add\n      mload\n      dup2\n      0x01\n      add\n      swap1\n      dup2\n      tag_101\n      swap2\n      swap1\n      tag_100\n      jump\t// in\n    tag_101:\n      pop\n      pop\n      pop\n        /* \"vote.sol\":2507:2649  function addPresident(string memory _name, string memory _description) public {... */\n      pop\n      pop\n      jump\t// out\n        /* \"@openzeppelin/contracts/utils/Strings.sol\":1308:1942  function toString(uint256 value) internal pure returns (string memory) {... */\n    tag_66:\n        /* \"@openzeppelin/contracts/utils/Strings.sol\":1364:1377  string memory */\n      0x60\n        /* \"@openzeppelin/contracts/utils/Strings.sol\":1413:1427  uint256 length */\n      0x00\n        /* \"@openzeppelin/contracts/utils/Strings.sol\":1450:1451  1 */\n      0x01\n        /* \"@openzeppelin/contracts/utils/Strings.sol\":1430:1447  Math.log10(value) */\n      tag_103\n        /* \"@openzeppelin/contracts/utils/Strings.sol\":1441:1446  value */\n      dup5\n        /* \"@openzeppelin/contracts/utils/Strings.sol\":1430:1440  Math.log10 */\n      tag_104\n        /* \"@openzeppelin/contracts/utils/Strings.sol\":1430:1447  Math.log10(value) */\n      jump\t// in\n    tag_103:\n        /* \"@openzeppelin/contracts/utils/Strings.sol\":1430:1451  Math.log10(value) + 1 */\n      add\n        /* \"@openzeppelin/contracts/utils/Strings.sol\":1413:1451  uint256 length = Math.log10(value) + 1 */\n      swap1\n      pop\n        /* \"@openzeppelin/contracts/utils/Strings.sol\":1465:1485  string memory buffer */\n      0x00\n        /* \"@openzeppelin/contracts/utils/Strings.sol\":1499:1505  length */\n      dup2\n        /* \"@openzeppelin/contracts/utils/Strings.sol\":1488:1506  new string(length) */\n      0xffffffffffffffff\n      dup2\n      gt\n      iszero\n      tag_105\n      jumpi\n      tag_106\n      tag_107\n      jump\t// in\n    tag_106:\n    tag_105:\n      mload(0x40)\n      swap1\n      dup1\n      dup3\n      mstore\n      dup1\n      0x1f\n      add\n      not(0x1f)\n      and\n      0x20\n      add\n      dup3\n      add\n      0x40\n      mstore\n      dup1\n      iszero\n      tag_108\n      jumpi\n      dup2\n      0x20\n      add\n      0x01\n      dup3\n      mul\n      dup1\n      calldatasize\n      dup4\n      calldatacopy\n      dup1\n      dup3\n      add\n      swap2\n      pop\n      pop\n      swap1\n      pop\n    tag_108:\n      pop\n        /* \"@openzeppelin/contracts/utils/Strings.sol\":1465:1506  string memory buffer = new string(length) */\n      swap1\n      pop\n        /* \"@openzeppelin/contracts/utils/Strings.sol\":1520:1531  uint256 ptr */\n      0x00\n        /* \"@openzeppelin/contracts/utils/Strings.sol\":1618:1624  length */\n      dup3\n        /* \"@openzeppelin/contracts/utils/Strings.sol\":1611:1615  0x20 */\n      0x20\n        /* \"@openzeppelin/contracts/utils/Strings.sol\":1603:1609  buffer */\n      dup4\n        /* \"@openzeppelin/contracts/utils/Strings.sol\":1599:1616  add(buffer, 0x20) */\n      add\n        /* \"@openzeppelin/contracts/utils/Strings.sol\":1595:1625  add(add(buffer, 0x20), length) */\n      add\n        /* \"@openzeppelin/contracts/utils/Strings.sol\":1588:1625  ptr := add(add(buffer, 0x20), length) */\n      swap1\n      pop\n        /* \"@openzeppelin/contracts/utils/Strings.sol\":1652:1899  while (true) {... */\n    tag_109:\n        /* \"@openzeppelin/contracts/utils/Strings.sol\":1659:1663  true */\n      0x01\n        /* \"@openzeppelin/contracts/utils/Strings.sol\":1652:1899  while (true) {... */\n      iszero\n      tag_110\n      jumpi\n        /* \"@openzeppelin/contracts/utils/Strings.sol\":1683:1688  ptr-- */\n      dup1\n      dup1\n      0x01\n      swap1\n      sub\n      swap2\n      pop\n      pop\n        /* \"@openzeppelin/contracts/utils/Strings.sol\":1787:1797  HEX_DIGITS */\n      0x3031323334353637383961626364656600000000000000000000000000000000\n        /* \"@openzeppelin/contracts/utils/Strings.sol\":1782:1784  10 */\n      0x0a\n        /* \"@openzeppelin/contracts/utils/Strings.sol\":1775:1780  value */\n      dup7\n        /* \"@openzeppelin/contracts/utils/Strings.sol\":1771:1785  mod(value, 10) */\n      mod\n        /* \"@openzeppelin/contracts/utils/Strings.sol\":1766:1798  byte(mod(value, 10), HEX_DIGITS) */\n      byte\n        /* \"@openzeppelin/contracts/utils/Strings.sol\":1761:1764  ptr */\n      dup2\n        /* \"@openzeppelin/contracts/utils/Strings.sol\":1753:1799  mstore8(ptr, byte(mod(value, 10), HEX_DIGITS)) */\n      mstore8\n        /* \"@openzeppelin/contracts/utils/Strings.sol\":1843:1845  10 */\n      0x0a\n        /* \"@openzeppelin/contracts/utils/Strings.sol\":1834:1845  value /= 10 */\n      dup6\n      dup2\n      tag_111\n      jumpi\n      tag_112\n      tag_113\n      jump\t// in\n    tag_112:\n    tag_111:\n      div\n      swap5\n      pop\n        /* \"@openzeppelin/contracts/utils/Strings.sol\":1876:1877  0 */\n      0x00\n        /* \"@openzeppelin/contracts/utils/Strings.sol\":1867:1872  value */\n      dup6\n        /* \"@openzeppelin/contracts/utils/Strings.sol\":1867:1877  value == 0 */\n      sub\n        /* \"@openzeppelin/contracts/utils/Strings.sol\":1652:1899  while (true) {... */\n      tag_109\n        /* \"@openzeppelin/contracts/utils/Strings.sol\":1863:1884  if (value == 0) break */\n      jumpi\n        /* \"@openzeppelin/contracts/utils/Strings.sol\":1652:1899  while (true) {... */\n    tag_110:\n        /* \"@openzeppelin/contracts/utils/Strings.sol\":1919:1925  buffer */\n      dup2\n        /* \"@openzeppelin/contracts/utils/Strings.sol\":1912:1925  return buffer */\n      swap4\n      pop\n      pop\n      pop\n      pop\n        /* \"@openzeppelin/contracts/utils/Strings.sol\":1308:1942  function toString(uint256 value) internal pure returns (string memory) {... */\n      swap2\n      swap1\n      pop\n      jump\t// out\n        /* \"@openzeppelin/contracts/utils/math/Math.sol\":29154:30070  function log10(uint256 value) internal pure returns (uint256) {... */\n    tag_104:\n        /* \"@openzeppelin/contracts/utils/math/Math.sol\":29207:29214  uint256 */\n      0x00\n        /* \"@openzeppelin/contracts/utils/math/Math.sol\":29226:29240  uint256 result */\n      0x00\n        /* \"@openzeppelin/contracts/utils/math/Math.sol\":29243:29244  0 */\n      0x00\n        /* \"@openzeppelin/contracts/utils/math/Math.sol\":29226:29244  uint256 result = 0 */\n      swap1\n      pop\n        /* \"@openzeppelin/contracts/utils/math/Math.sol\":29291:29299  10 ** 64 */\n      0x184f03e93ff9f4daa797ed6e38ed64bf6a1f010000000000000000\n        /* \"@openzeppelin/contracts/utils/math/Math.sol\":29282:29287  value */\n      dup4\n        /* \"@openzeppelin/contracts/utils/math/Math.sol\":29282:29299  value >= 10 ** 64 */\n      lt\n        /* \"@openzeppelin/contracts/utils/math/Math.sol\":29278:29381  if (value >= 10 ** 64) {... */\n      tag_116\n      jumpi\n        /* \"@openzeppelin/contracts/utils/math/Math.sol\":29328:29336  10 ** 64 */\n      0x184f03e93ff9f4daa797ed6e38ed64bf6a1f010000000000000000\n        /* \"@openzeppelin/contracts/utils/math/Math.sol\":29319:29336  value /= 10 ** 64 */\n      dup4\n      dup2\n      tag_117\n      jumpi\n      tag_118\n      tag_113\n      jump\t// in\n    tag_118:\n    tag_117:\n      div\n      swap3\n      pop\n        /* \"@openzeppelin/contracts/utils/math/Math.sol\":29364:29366  64 */\n      0x40\n        /* \"@openzeppelin/contracts/utils/math/Math.sol\":29354:29366  result += 64 */\n      dup2\n      add\n      swap1\n      pop\n        /* \"@openzeppelin/contracts/utils/math/Math.sol\":29278:29381  if (value >= 10 ** 64) {... */\n    tag_116:\n        /* \"@openzeppelin/contracts/utils/math/Math.sol\":29407:29415  10 ** 32 */\n      0x04ee2d6d415b85acef8100000000\n        /* \"@openzeppelin/contracts/utils/math/Math.sol\":29398:29403  value */\n      dup4\n        /* \"@openzeppelin/contracts/utils/math/Math.sol\":29398:29415  value >= 10 ** 32 */\n      lt\n        /* \"@openzeppelin/contracts/utils/math/Math.sol\":29394:29497  if (value >= 10 ** 32) {... */\n      tag_119\n      jumpi\n        /* \"@openzeppelin/contracts/utils/math/Math.sol\":29444:29452  10 ** 32 */\n      0x04ee2d6d415b85acef8100000000\n        /* \"@openzeppelin/contracts/utils/math/Math.sol\":29435:29452  value /= 10 ** 32 */\n      dup4\n      dup2\n      tag_120\n      jumpi\n      tag_121\n      tag_113\n      jump\t// in\n    tag_121:\n    tag_120:\n      div\n      swap3\n      pop\n        /* \"@openzeppelin/contracts/utils/math/Math.sol\":29480:29482  32 */\n      0x20\n        /* \"@openzeppelin/contracts/utils/math/Math.sol\":29470:29482  result += 32 */\n      dup2\n      add\n      swap1\n      pop\n        /* \"@openzeppelin/contracts/utils/math/Math.sol\":29394:29497  if (value >= 10 ** 32) {... */\n    tag_119:\n        /* \"@openzeppelin/contracts/utils/math/Math.sol\":29523:29531  10 ** 16 */\n      0x2386f26fc10000\n        /* \"@openzeppelin/contracts/utils/math/Math.sol\":29514:29519  value */\n      dup4\n        /* \"@openzeppelin/contracts/utils/math/Math.sol\":29514:29531  value >= 10 ** 16 */\n      lt\n        /* \"@openzeppelin/contracts/utils/math/Math.sol\":29510:29613  if (value >= 10 ** 16) {... */\n      tag_122\n      jumpi\n        /* \"@openzeppelin/contracts/utils/math/Math.sol\":29560:29568  10 ** 16 */\n      0x2386f26fc10000\n        /* \"@openzeppelin/contracts/utils/math/Math.sol\":29551:29568  value /= 10 ** 16 */\n      dup4\n      dup2\n      tag_123\n      jumpi\n      tag_124\n      tag_113\n      jump\t// in\n    tag_124:\n    tag_123:\n      div\n      swap3\n      pop\n        /* \"@openzeppelin/contracts/utils/math/Math.sol\":29596:29598  16 */\n      0x10\n        /* \"@openzeppelin/contracts/utils/math/Math.sol\":29586:29598  result += 16 */\n      dup2\n      add\n      swap1\n      pop\n        /* \"@openzeppelin/contracts/utils/math/Math.sol\":29510:29613  if (value >= 10 ** 16) {... */\n    tag_122:\n        /* \"@openzeppelin/contracts/utils/math/Math.sol\":29639:29646  10 ** 8 */\n      0x05f5e100\n        /* \"@openzeppelin/contracts/utils/math/Math.sol\":29630:29635  value */\n      dup4\n        /* \"@openzeppelin/contracts/utils/math/Math.sol\":29630:29646  value >= 10 ** 8 */\n      lt\n        /* \"@openzeppelin/contracts/utils/math/Math.sol\":29626:29726  if (value >= 10 ** 8) {... */\n      tag_125\n      jumpi\n        /* \"@openzeppelin/contracts/utils/math/Math.sol\":29675:29682  10 ** 8 */\n      0x05f5e100\n        /* \"@openzeppelin/contracts/utils/math/Math.sol\":29666:29682  value /= 10 ** 8 */\n      dup4\n      dup2\n      tag_126\n      jumpi\n      tag_127\n      tag_113\n      jump\t// in\n    tag_127:\n    tag_126:\n      div\n      swap3\n      pop\n        /* \"@openzeppelin/contracts/utils/math/Math.sol\":29710:29711  8 */\n      0x08\n        /* \"@openzeppelin/contracts/utils/math/Math.sol\":29700:29711  result += 8 */\n      dup2\n      add\n      swap1\n      pop\n        /* \"@openzeppelin/contracts/utils/math/Math.sol\":29626:29726  if (value >= 10 ** 8) {... */\n    tag_125:\n        /* \"@openzeppelin/contracts/utils/math/Math.sol\":29752:29759  10 ** 4 */\n      0x2710\n        /* \"@openzeppelin/contracts/utils/math/Math.sol\":29743:29748  value */\n      dup4\n        /* \"@openzeppelin/contracts/utils/math/Math.sol\":29743:29759  value >= 10 ** 4 */\n      lt\n        /* \"@openzeppelin/contracts/utils/math/Math.sol\":29739:29839  if (value >= 10 ** 4) {... */\n      tag_128\n      jumpi\n        /* \"@openzeppelin/contracts/utils/math/Math.sol\":29788:29795  10 ** 4 */\n      0x2710\n        /* \"@openzeppelin/contracts/utils/math/Math.sol\":29779:29795  value /= 10 ** 4 */\n      dup4\n      dup2\n      tag_129\n      jumpi\n      tag_130\n      tag_113\n      jump\t// in\n    tag_130:\n    tag_129:\n      div\n      swap3\n      pop\n        /* \"@openzeppelin/contracts/utils/math/Math.sol\":29823:29824  4 */\n      0x04\n        /* \"@openzeppelin/contracts/utils/math/Math.sol\":29813:29824  result += 4 */\n      dup2\n      add\n      swap1\n      pop\n        /* \"@openzeppelin/contracts/utils/math/Math.sol\":29739:29839  if (value >= 10 ** 4) {... */\n    tag_128:\n        /* \"@openzeppelin/contracts/utils/math/Math.sol\":29865:29872  10 ** 2 */\n      0x64\n        /* \"@openzeppelin/contracts/utils/math/Math.sol\":29856:29861  value */\n      dup4\n        /* \"@openzeppelin/contracts/utils/math/Math.sol\":29856:29872  value >= 10 ** 2 */\n      lt\n        /* \"@openzeppelin/contracts/utils/math/Math.sol\":29852:29952  if (value >= 10 ** 2) {... */\n      tag_131\n      jumpi\n        /* \"@openzeppelin/contracts/utils/math/Math.sol\":29901:29908  10 ** 2 */\n      0x64\n        /* \"@openzeppelin/contracts/utils/math/Math.sol\":29892:29908  value /= 10 ** 2 */\n      dup4\n      dup2\n      tag_132\n      jumpi\n      tag_133\n      tag_113\n      jump\t// in\n    tag_133:\n    tag_132:\n      div\n      swap3\n      pop\n        /* \"@openzeppelin/contracts/utils/math/Math.sol\":29936:29937  2 */\n      0x02\n        /* \"@openzeppelin/contracts/utils/math/Math.sol\":29926:29937  result += 2 */\n      dup2\n      add\n      swap1\n      pop\n        /* \"@openzeppelin/contracts/utils/math/Math.sol\":29852:29952  if (value >= 10 ** 2) {... */\n    tag_131:\n        /* \"@openzeppelin/contracts/utils/math/Math.sol\":29978:29985  10 ** 1 */\n      0x0a\n        /* \"@openzeppelin/contracts/utils/math/Math.sol\":29969:29974  value */\n      dup4\n        /* \"@openzeppelin/contracts/utils/math/Math.sol\":29969:29985  value >= 10 ** 1 */\n      lt\n        /* \"@openzeppelin/contracts/utils/math/Math.sol\":29965:30031  if (value >= 10 ** 1) {... */\n      tag_134\n      jumpi\n        /* \"@openzeppelin/contracts/utils/math/Math.sol\":30015:30016  1 */\n      0x01\n        /* \"@openzeppelin/contracts/utils/math/Math.sol\":30005:30016  result += 1 */\n      dup2\n      add\n      swap1\n      pop\n        /* \"@openzeppelin/contracts/utils/math/Math.sol\":29965:30031  if (value >= 10 ** 1) {... */\n    tag_134:\n        /* \"@openzeppelin/contracts/utils/math/Math.sol\":30057:30063  result */\n      dup1\n        /* \"@openzeppelin/contracts/utils/math/Math.sol\":30050:30063  return result */\n      swap2\n      pop\n      pop\n        /* \"@openzeppelin/contracts/utils/math/Math.sol\":29154:30070  function log10(uint256 value) internal pure returns (uint256) {... */\n      swap2\n      swap1\n      pop\n      jump\t// out\n        /* \"#utility.yul\":7:82   */\n    tag_135:\n        /* \"#utility.yul\":40:46   */\n      0x00\n        /* \"#utility.yul\":73:75   */\n      0x40\n        /* \"#utility.yul\":67:76   */\n      mload\n        /* \"#utility.yul\":57:76   */\n      swap1\n      pop\n        /* \"#utility.yul\":7:82   */\n      swap1\n      jump\t// out\n        /* \"#utility.yul\":88:205   */\n    tag_136:\n        /* \"#utility.yul\":197:198   */\n      0x00\n        /* \"#utility.yul\":194:195   */\n      0x00\n        /* \"#utility.yul\":187:199   */\n      revert\n        /* \"#utility.yul\":211:328   */\n    tag_137:\n        /* \"#utility.yul\":320:321   */\n      0x00\n        /* \"#utility.yul\":317:318   */\n      0x00\n        /* \"#utility.yul\":310:322   */\n      revert\n        /* \"#utility.yul\":334:411   */\n    tag_138:\n        /* \"#utility.yul\":371:378   */\n      0x00\n        /* \"#utility.yul\":400:405   */\n      dup2\n        /* \"#utility.yul\":389:405   */\n      swap1\n      pop\n        /* \"#utility.yul\":334:411   */\n      swap2\n      swap1\n      pop\n      jump\t// out\n        /* \"#utility.yul\":417:539   */\n    tag_139:\n        /* \"#utility.yul\":490:514   */\n      tag_192\n        /* \"#utility.yul\":508:513   */\n      dup2\n        /* \"#utility.yul\":490:514   */\n      tag_138\n      jump\t// in\n    tag_192:\n        /* \"#utility.yul\":483:488   */\n      dup2\n        /* \"#utility.yul\":480:515   */\n      eq\n        /* \"#utility.yul\":470:533   */\n      tag_193\n      jumpi\n        /* \"#utility.yul\":529:530   */\n      0x00\n        /* \"#utility.yul\":526:527   */\n      0x00\n        /* \"#utility.yul\":519:531   */\n      revert\n        /* \"#utility.yul\":470:533   */\n    tag_193:\n        /* \"#utility.yul\":417:539   */\n      pop\n      jump\t// out\n        /* \"#utility.yul\":545:684   */\n    tag_140:\n        /* \"#utility.yul\":591:596   */\n      0x00\n        /* \"#utility.yul\":629:635   */\n      dup2\n        /* \"#utility.yul\":616:636   */\n      calldataload\n        /* \"#utility.yul\":607:636   */\n      swap1\n      pop\n        /* \"#utility.yul\":645:678   */\n      tag_195\n        /* \"#utility.yul\":672:677   */\n      dup2\n        /* \"#utility.yul\":645:678   */\n      tag_139\n      jump\t// in\n    tag_195:\n        /* \"#utility.yul\":545:684   */\n      swap3\n      swap2\n      pop\n      pop\n      jump\t// out\n        /* \"#utility.yul\":690:1019   */\n    tag_15:\n        /* \"#utility.yul\":749:755   */\n      0x00\n        /* \"#utility.yul\":798:800   */\n      0x20\n        /* \"#utility.yul\":786:795   */\n      dup3\n        /* \"#utility.yul\":777:784   */\n      dup5\n        /* \"#utility.yul\":773:796   */\n      sub\n        /* \"#utility.yul\":769:801   */\n      slt\n        /* \"#utility.yul\":766:885   */\n      iszero\n      tag_197\n      jumpi\n        /* \"#utility.yul\":804:883   */\n      tag_198\n      tag_136\n      jump\t// in\n    tag_198:\n        /* \"#utility.yul\":766:885   */\n    tag_197:\n        /* \"#utility.yul\":924:925   */\n      0x00\n        /* \"#utility.yul\":949:1002   */\n      tag_199\n        /* \"#utility.yul\":994:1001   */\n      dup5\n        /* \"#utility.yul\":985:991   */\n      dup3\n        /* \"#utility.yul\":974:983   */\n      dup6\n        /* \"#utility.yul\":970:992   */\n      add\n        /* \"#utility.yul\":949:1002   */\n      tag_140\n      jump\t// in\n    tag_199:\n        /* \"#utility.yul\":939:1002   */\n      swap2\n      pop\n        /* \"#utility.yul\":895:1012   */\n      pop\n        /* \"#utility.yul\":690:1019   */\n      swap3\n      swap2\n      pop\n      pop\n      jump\t// out\n        /* \"#utility.yul\":1025:1143   */\n    tag_141:\n        /* \"#utility.yul\":1112:1136   */\n      tag_201\n        /* \"#utility.yul\":1130:1135   */\n      dup2\n        /* \"#utility.yul\":1112:1136   */\n      tag_138\n      jump\t// in\n    tag_201:\n        /* \"#utility.yul\":1107:1110   */\n      dup3\n        /* \"#utility.yul\":1100:1137   */\n      mstore\n        /* \"#utility.yul\":1025:1143   */\n      pop\n      pop\n      jump\t// out\n        /* \"#utility.yul\":1149:1371   */\n    tag_20:\n        /* \"#utility.yul\":1242:1246   */\n      0x00\n        /* \"#utility.yul\":1280:1282   */\n      0x20\n        /* \"#utility.yul\":1269:1278   */\n      dup3\n        /* \"#utility.yul\":1265:1283   */\n      add\n        /* \"#utility.yul\":1257:1283   */\n      swap1\n      pop\n        /* \"#utility.yul\":1293:1364   */\n      tag_203\n        /* \"#utility.yul\":1361:1362   */\n      0x00\n        /* \"#utility.yul\":1350:1359   */\n      dup4\n        /* \"#utility.yul\":1346:1363   */\n      add\n        /* \"#utility.yul\":1337:1343   */\n      dup5\n        /* \"#utility.yul\":1293:1364   */\n      tag_141\n      jump\t// in\n    tag_203:\n        /* \"#utility.yul\":1149:1371   */\n      swap3\n      swap2\n      pop\n      pop\n      jump\t// out\n        /* \"#utility.yul\":1377:1476   */\n    tag_142:\n        /* \"#utility.yul\":1429:1435   */\n      0x00\n        /* \"#utility.yul\":1463:1468   */\n      dup2\n        /* \"#utility.yul\":1457:1469   */\n      mload\n        /* \"#utility.yul\":1447:1469   */\n      swap1\n      pop\n        /* \"#utility.yul\":1377:1476   */\n      swap2\n      swap1\n      pop\n      jump\t// out\n        /* \"#utility.yul\":1482:1651   */\n    tag_143:\n        /* \"#utility.yul\":1566:1577   */\n      0x00\n        /* \"#utility.yul\":1600:1606   */\n      dup3\n        /* \"#utility.yul\":1595:1598   */\n      dup3\n        /* \"#utility.yul\":1588:1607   */\n      mstore\n        /* \"#utility.yul\":1640:1644   */\n      0x20\n        /* \"#utility.yul\":1635:1638   */\n      dup3\n        /* \"#utility.yul\":1631:1645   */\n      add\n        /* \"#utility.yul\":1616:1645   */\n      swap1\n      pop\n        /* \"#utility.yul\":1482:1651   */\n      swap3\n      swap2\n      pop\n      pop\n      jump\t// out\n        /* \"#utility.yul\":1657:1796   */\n    tag_144:\n        /* \"#utility.yul\":1746:1752   */\n      dup3\n        /* \"#utility.yul\":1741:1744   */\n      dup2\n        /* \"#utility.yul\":1736:1739   */\n      dup4\n        /* \"#utility.yul\":1730:1753   */\n      mcopy\n        /* \"#utility.yul\":1787:1788   */\n      0x00\n        /* \"#utility.yul\":1778:1784   */\n      dup4\n        /* \"#utility.yul\":1773:1776   */\n      dup4\n        /* \"#utility.yul\":1769:1785   */\n      add\n        /* \"#utility.yul\":1762:1789   */\n      mstore\n        /* \"#utility.yul\":1657:1796   */\n      pop\n      pop\n      pop\n      jump\t// out\n        /* \"#utility.yul\":1802:1904   */\n    tag_145:\n        /* \"#utility.yul\":1843:1849   */\n      0x00\n        /* \"#utility.yul\":1894:1896   */\n      0x1f\n        /* \"#utility.yul\":1890:1897   */\n      not\n        /* \"#utility.yul\":1885:1887   */\n      0x1f\n        /* \"#utility.yul\":1878:1883   */\n      dup4\n        /* \"#utility.yul\":1874:1888   */\n      add\n        /* \"#utility.yul\":1870:1898   */\n      and\n        /* \"#utility.yul\":1860:1898   */\n      swap1\n      pop\n        /* \"#utility.yul\":1802:1904   */\n      swap2\n      swap1\n      pop\n      jump\t// out\n        /* \"#utility.yul\":1910:2287   */\n    tag_146:\n        /* \"#utility.yul\":1998:2001   */\n      0x00\n        /* \"#utility.yul\":2026:2065   */\n      tag_209\n        /* \"#utility.yul\":2059:2064   */\n      dup3\n        /* \"#utility.yul\":2026:2065   */\n      tag_142\n      jump\t// in\n    tag_209:\n        /* \"#utility.yul\":2081:2152   */\n      tag_210\n        /* \"#utility.yul\":2145:2151   */\n      dup2\n        /* \"#utility.yul\":2140:2143   */\n      dup6\n        /* \"#utility.yul\":2081:2152   */\n      tag_143\n      jump\t// in\n    tag_210:\n        /* \"#utility.yul\":2074:2152   */\n      swap4\n      pop\n        /* \"#utility.yul\":2161:2226   */\n      tag_211\n        /* \"#utility.yul\":2219:2225   */\n      dup2\n        /* \"#utility.yul\":2214:2217   */\n      dup6\n        /* \"#utility.yul\":2207:2211   */\n      0x20\n        /* \"#utility.yul\":2200:2205   */\n      dup7\n        /* \"#utility.yul\":2196:2212   */\n      add\n        /* \"#utility.yul\":2161:2226   */\n      tag_144\n      jump\t// in\n    tag_211:\n        /* \"#utility.yul\":2251:2280   */\n      tag_212\n        /* \"#utility.yul\":2273:2279   */\n      dup2\n        /* \"#utility.yul\":2251:2280   */\n      tag_145\n      jump\t// in\n    tag_212:\n        /* \"#utility.yul\":2246:2249   */\n      dup5\n        /* \"#utility.yul\":2242:2281   */\n      add\n        /* \"#utility.yul\":2235:2281   */\n      swap2\n      pop\n        /* \"#utility.yul\":2002:2287   */\n      pop\n        /* \"#utility.yul\":1910:2287   */\n      swap3\n      swap2\n      pop\n      pop\n      jump\t// out\n        /* \"#utility.yul\":2293:2606   */\n    tag_24:\n        /* \"#utility.yul\":2406:2410   */\n      0x00\n        /* \"#utility.yul\":2444:2446   */\n      0x20\n        /* \"#utility.yul\":2433:2442   */\n      dup3\n        /* \"#utility.yul\":2429:2447   */\n      add\n        /* \"#utility.yul\":2421:2447   */\n      swap1\n      pop\n        /* \"#utility.yul\":2493:2502   */\n      dup2\n        /* \"#utility.yul\":2487:2491   */\n      dup2\n        /* \"#utility.yul\":2483:2503   */\n      sub\n        /* \"#utility.yul\":2479:2480   */\n      0x00\n        /* \"#utility.yul\":2468:2477   */\n      dup4\n        /* \"#utility.yul\":2464:2481   */\n      add\n        /* \"#utility.yul\":2457:2504   */\n      mstore\n        /* \"#utility.yul\":2521:2599   */\n      tag_214\n        /* \"#utility.yul\":2594:2598   */\n      dup2\n        /* \"#utility.yul\":2585:2591   */\n      dup5\n        /* \"#utility.yul\":2521:2599   */\n      tag_146\n      jump\t// in\n    tag_214:\n        /* \"#utility.yul\":2513:2599   */\n      swap1\n      pop\n        /* \"#utility.yul\":2293:2606   */\n      swap3\n      swap2\n      pop\n      pop\n      jump\t// out\n        /* \"#utility.yul\":2612:2702   */\n    tag_147:\n        /* \"#utility.yul\":2646:2653   */\n      0x00\n        /* \"#utility.yul\":2689:2694   */\n      dup2\n        /* \"#utility.yul\":2682:2695   */\n      iszero\n        /* \"#utility.yul\":2675:2696   */\n      iszero\n        /* \"#utility.yul\":2664:2696   */\n      swap1\n      pop\n        /* \"#utility.yul\":2612:2702   */\n      swap2\n      swap1\n      pop\n      jump\t// out\n        /* \"#utility.yul\":2708:2824   */\n    tag_148:\n        /* \"#utility.yul\":2778:2799   */\n      tag_217\n        /* \"#utility.yul\":2793:2798   */\n      dup2\n        /* \"#utility.yul\":2778:2799   */\n      tag_147\n      jump\t// in\n    tag_217:\n        /* \"#utility.yul\":2771:2776   */\n      dup2\n        /* \"#utility.yul\":2768:2800   */\n      eq\n        /* \"#utility.yul\":2758:2818   */\n      tag_218\n      jumpi\n        /* \"#utility.yul\":2814:2815   */\n      0x00\n        /* \"#utility.yul\":2811:2812   */\n      0x00\n        /* \"#utility.yul\":2804:2816   */\n      revert\n        /* \"#utility.yul\":2758:2818   */\n    tag_218:\n        /* \"#utility.yul\":2708:2824   */\n      pop\n      jump\t// out\n        /* \"#utility.yul\":2830:2963   */\n    tag_149:\n        /* \"#utility.yul\":2873:2878   */\n      0x00\n        /* \"#utility.yul\":2911:2917   */\n      dup2\n        /* \"#utility.yul\":2898:2918   */\n      calldataload\n        /* \"#utility.yul\":2889:2918   */\n      swap1\n      pop\n        /* \"#utility.yul\":2927:2957   */\n      tag_220\n        /* \"#utility.yul\":2951:2956   */\n      dup2\n        /* \"#utility.yul\":2927:2957   */\n      tag_148\n      jump\t// in\n    tag_220:\n        /* \"#utility.yul\":2830:2963   */\n      swap3\n      swap2\n      pop\n      pop\n      jump\t// out\n        /* \"#utility.yul\":2969:3292   */\n    tag_30:\n        /* \"#utility.yul\":3025:3031   */\n      0x00\n        /* \"#utility.yul\":3074:3076   */\n      0x20\n        /* \"#utility.yul\":3062:3071   */\n      dup3\n        /* \"#utility.yul\":3053:3060   */\n      dup5\n        /* \"#utility.yul\":3049:3072   */\n      sub\n        /* \"#utility.yul\":3045:3077   */\n      slt\n        /* \"#utility.yul\":3042:3161   */\n      iszero\n      tag_222\n      jumpi\n        /* \"#utility.yul\":3080:3159   */\n      tag_223\n      tag_136\n      jump\t// in\n    tag_223:\n        /* \"#utility.yul\":3042:3161   */\n    tag_222:\n        /* \"#utility.yul\":3200:3201   */\n      0x00\n        /* \"#utility.yul\":3225:3275   */\n      tag_224\n        /* \"#utility.yul\":3267:3274   */\n      dup5\n        /* \"#utility.yul\":3258:3264   */\n      dup3\n        /* \"#utility.yul\":3247:3256   */\n      dup6\n        /* \"#utility.yul\":3243:3265   */\n      add\n        /* \"#utility.yul\":3225:3275   */\n      tag_149\n      jump\t// in\n    tag_224:\n        /* \"#utility.yul\":3215:3275   */\n      swap2\n      pop\n        /* \"#utility.yul\":3171:3285   */\n      pop\n        /* \"#utility.yul\":2969:3292   */\n      swap3\n      swap2\n      pop\n      pop\n      jump\t// out\n        /* \"#utility.yul\":3298:3415   */\n    tag_150:\n        /* \"#utility.yul\":3407:3408   */\n      0x00\n        /* \"#utility.yul\":3404:3405   */\n      0x00\n        /* \"#utility.yul\":3397:3409   */\n      revert\n        /* \"#utility.yul\":3421:3538   */\n    tag_151:\n        /* \"#utility.yul\":3530:3531   */\n      0x00\n        /* \"#utility.yul\":3527:3528   */\n      0x00\n        /* \"#utility.yul\":3520:3532   */\n      revert\n        /* \"#utility.yul\":3544:3724   */\n    tag_107:\n        /* \"#utility.yul\":3592:3669   */\n      0x4e487b7100000000000000000000000000000000000000000000000000000000\n        /* \"#utility.yul\":3589:3590   */\n      0x00\n        /* \"#utility.yul\":3582:3670   */\n      mstore\n        /* \"#utility.yul\":3689:3693   */\n      0x41\n        /* \"#utility.yul\":3686:3687   */\n      0x04\n        /* \"#utility.yul\":3679:3694   */\n      mstore\n        /* \"#utility.yul\":3713:3717   */\n      0x24\n        /* \"#utility.yul\":3710:3711   */\n      0x00\n        /* \"#utility.yul\":3703:3718   */\n      revert\n        /* \"#utility.yul\":3730:4011   */\n    tag_152:\n        /* \"#utility.yul\":3813:3840   */\n      tag_229\n        /* \"#utility.yul\":3835:3839   */\n      dup3\n        /* \"#utility.yul\":3813:3840   */\n      tag_145\n      jump\t// in\n    tag_229:\n        /* \"#utility.yul\":3805:3811   */\n      dup2\n        /* \"#utility.yul\":3801:3841   */\n      add\n        /* \"#utility.yul\":3943:3949   */\n      dup2\n        /* \"#utility.yul\":3931:3941   */\n      dup2\n        /* \"#utility.yul\":3928:3950   */\n      lt\n        /* \"#utility.yul\":3907:3925   */\n      0xffffffffffffffff\n        /* \"#utility.yul\":3895:3905   */\n      dup3\n        /* \"#utility.yul\":3892:3926   */\n      gt\n        /* \"#utility.yul\":3889:3951   */\n      or\n        /* \"#utility.yul\":3886:3974   */\n      iszero\n      tag_230\n      jumpi\n        /* \"#utility.yul\":3954:3972   */\n      tag_231\n      tag_107\n      jump\t// in\n    tag_231:\n        /* \"#utility.yul\":3886:3974   */\n    tag_230:\n        /* \"#utility.yul\":3994:4004   */\n      dup1\n        /* \"#utility.yul\":3990:3992   */\n      0x40\n        /* \"#utility.yul\":3983:4005   */\n      mstore\n        /* \"#utility.yul\":3773:4011   */\n      pop\n        /* \"#utility.yul\":3730:4011   */\n      pop\n      pop\n      jump\t// out\n        /* \"#utility.yul\":4017:4146   */\n    tag_153:\n        /* \"#utility.yul\":4051:4057   */\n      0x00\n        /* \"#utility.yul\":4078:4098   */\n      tag_233\n      tag_135\n      jump\t// in\n    tag_233:\n        /* \"#utility.yul\":4068:4098   */\n      swap1\n      pop\n        /* \"#utility.yul\":4107:4140   */\n      tag_234\n        /* \"#utility.yul\":4135:4139   */\n      dup3\n        /* \"#utility.yul\":4127:4133   */\n      dup3\n        /* \"#utility.yul\":4107:4140   */\n      tag_152\n      jump\t// in\n    tag_234:\n        /* \"#utility.yul\":4017:4146   */\n      swap2\n      swap1\n      pop\n      jump\t// out\n        /* \"#utility.yul\":4152:4460   */\n    tag_154:\n        /* \"#utility.yul\":4214:4218   */\n      0x00\n        /* \"#utility.yul\":4304:4322   */\n      0xffffffffffffffff\n        /* \"#utility.yul\":4296:4302   */\n      dup3\n        /* \"#utility.yul\":4293:4323   */\n      gt\n        /* \"#utility.yul\":4290:4346   */\n      iszero\n      tag_236\n      jumpi\n        /* \"#utility.yul\":4326:4344   */\n      tag_237\n      tag_107\n      jump\t// in\n    tag_237:\n        /* \"#utility.yul\":4290:4346   */\n    tag_236:\n        /* \"#utility.yul\":4364:4393   */\n      tag_238\n        /* \"#utility.yul\":4386:4392   */\n      dup3\n        /* \"#utility.yul\":4364:4393   */\n      tag_145\n      jump\t// in\n    tag_238:\n        /* \"#utility.yul\":4356:4393   */\n      swap1\n      pop\n        /* \"#utility.yul\":4448:4452   */\n      0x20\n        /* \"#utility.yul\":4442:4446   */\n      dup2\n        /* \"#utility.yul\":4438:4453   */\n      add\n        /* \"#utility.yul\":4430:4453   */\n      swap1\n      pop\n        /* \"#utility.yul\":4152:4460   */\n      swap2\n      swap1\n      pop\n      jump\t// out\n        /* \"#utility.yul\":4466:4614   */\n    tag_155:\n        /* \"#utility.yul\":4564:4570   */\n      dup3\n        /* \"#utility.yul\":4559:4562   */\n      dup2\n        /* \"#utility.yul\":4554:4557   */\n      dup4\n        /* \"#utility.yul\":4541:4571   */\n      calldatacopy\n        /* \"#utility.yul\":4605:4606   */\n      0x00\n        /* \"#utility.yul\":4596:4602   */\n      dup4\n        /* \"#utility.yul\":4591:4594   */\n      dup4\n        /* \"#utility.yul\":4587:4603   */\n      add\n        /* \"#utility.yul\":4580:4607   */\n      mstore\n        /* \"#utility.yul\":4466:4614   */\n      pop\n      pop\n      pop\n      jump\t// out\n        /* \"#utility.yul\":4620:5045   */\n    tag_156:\n        /* \"#utility.yul\":4698:4703   */\n      0x00\n        /* \"#utility.yul\":4723:4789   */\n      tag_241\n        /* \"#utility.yul\":4739:4788   */\n      tag_242\n        /* \"#utility.yul\":4781:4787   */\n      dup5\n        /* \"#utility.yul\":4739:4788   */\n      tag_154\n      jump\t// in\n    tag_242:\n        /* \"#utility.yul\":4723:4789   */\n      tag_153\n      jump\t// in\n    tag_241:\n        /* \"#utility.yul\":4714:4789   */\n      swap1\n      pop\n        /* \"#utility.yul\":4812:4818   */\n      dup3\n        /* \"#utility.yul\":4805:4810   */\n      dup2\n        /* \"#utility.yul\":4798:4819   */\n      mstore\n        /* \"#utility.yul\":4850:4854   */\n      0x20\n        /* \"#utility.yul\":4843:4848   */\n      dup2\n        /* \"#utility.yul\":4839:4855   */\n      add\n        /* \"#utility.yul\":4888:4891   */\n      dup5\n        /* \"#utility.yul\":4879:4885   */\n      dup5\n        /* \"#utility.yul\":4874:4877   */\n      dup5\n        /* \"#utility.yul\":4870:4886   */\n      add\n        /* \"#utility.yul\":4867:4892   */\n      gt\n        /* \"#utility.yul\":4864:4976   */\n      iszero\n      tag_243\n      jumpi\n        /* \"#utility.yul\":4895:4974   */\n      tag_244\n      tag_151\n      jump\t// in\n    tag_244:\n        /* \"#utility.yul\":4864:4976   */\n    tag_243:\n        /* \"#utility.yul\":4985:5039   */\n      tag_245\n        /* \"#utility.yul\":5032:5038   */\n      dup5\n        /* \"#utility.yul\":5027:5030   */\n      dup3\n        /* \"#utility.yul\":5022:5025   */\n      dup6\n        /* \"#utility.yul\":4985:5039   */\n      tag_155\n      jump\t// in\n    tag_245:\n        /* \"#utility.yul\":4704:5045   */\n      pop\n        /* \"#utility.yul\":4620:5045   */\n      swap4\n      swap3\n      pop\n      pop\n      pop\n      jump\t// out\n        /* \"#utility.yul\":5065:5405   */\n    tag_157:\n        /* \"#utility.yul\":5121:5126   */\n      0x00\n        /* \"#utility.yul\":5170:5173   */\n      dup3\n        /* \"#utility.yul\":5163:5167   */\n      0x1f\n        /* \"#utility.yul\":5155:5161   */\n      dup4\n        /* \"#utility.yul\":5151:5168   */\n      add\n        /* \"#utility.yul\":5147:5174   */\n      slt\n        /* \"#utility.yul\":5137:5259   */\n      tag_247\n      jumpi\n        /* \"#utility.yul\":5178:5257   */\n      tag_248\n      tag_150\n      jump\t// in\n    tag_248:\n        /* \"#utility.yul\":5137:5259   */\n    tag_247:\n        /* \"#utility.yul\":5295:5301   */\n      dup2\n        /* \"#utility.yul\":5282:5302   */\n      calldataload\n        /* \"#utility.yul\":5320:5399   */\n      tag_249\n        /* \"#utility.yul\":5395:5398   */\n      dup5\n        /* \"#utility.yul\":5387:5393   */\n      dup3\n        /* \"#utility.yul\":5380:5384   */\n      0x20\n        /* \"#utility.yul\":5372:5378   */\n      dup7\n        /* \"#utility.yul\":5368:5385   */\n      add\n        /* \"#utility.yul\":5320:5399   */\n      tag_156\n      jump\t// in\n    tag_249:\n        /* \"#utility.yul\":5311:5399   */\n      swap2\n      pop\n        /* \"#utility.yul\":5127:5405   */\n      pop\n        /* \"#utility.yul\":5065:5405   */\n      swap3\n      swap2\n      pop\n      pop\n      jump\t// out\n        /* \"#utility.yul\":5411:6245   */\n    tag_44:\n        /* \"#utility.yul\":5499:5505   */\n      0x00\n        /* \"#utility.yul\":5507:5513   */\n      0x00\n        /* \"#utility.yul\":5556:5558   */\n      0x40\n        /* \"#utility.yul\":5544:5553   */\n      dup4\n        /* \"#utility.yul\":5535:5542   */\n      dup6\n        /* \"#utility.yul\":5531:5554   */\n      sub\n        /* \"#utility.yul\":5527:5559   */\n      slt\n        /* \"#utility.yul\":5524:5643   */\n      iszero\n      tag_251\n      jumpi\n        /* \"#utility.yul\":5562:5641   */\n      tag_252\n      tag_136\n      jump\t// in\n    tag_252:\n        /* \"#utility.yul\":5524:5643   */\n    tag_251:\n        /* \"#utility.yul\":5710:5711   */\n      0x00\n        /* \"#utility.yul\":5699:5708   */\n      dup4\n        /* \"#utility.yul\":5695:5712   */\n      add\n        /* \"#utility.yul\":5682:5713   */\n      calldataload\n        /* \"#utility.yul\":5740:5758   */\n      0xffffffffffffffff\n        /* \"#utility.yul\":5732:5738   */\n      dup2\n        /* \"#utility.yul\":5729:5759   */\n      gt\n        /* \"#utility.yul\":5726:5843   */\n      iszero\n      tag_253\n      jumpi\n        /* \"#utility.yul\":5762:5841   */\n      tag_254\n      tag_137\n      jump\t// in\n    tag_254:\n        /* \"#utility.yul\":5726:5843   */\n    tag_253:\n        /* \"#utility.yul\":5867:5930   */\n      tag_255\n        /* \"#utility.yul\":5922:5929   */\n      dup6\n        /* \"#utility.yul\":5913:5919   */\n      dup3\n        /* \"#utility.yul\":5902:5911   */\n      dup7\n        /* \"#utility.yul\":5898:5920   */\n      add\n        /* \"#utility.yul\":5867:5930   */\n      tag_157\n      jump\t// in\n    tag_255:\n        /* \"#utility.yul\":5857:5930   */\n      swap3\n      pop\n        /* \"#utility.yul\":5653:5940   */\n      pop\n        /* \"#utility.yul\":6007:6009   */\n      0x20\n        /* \"#utility.yul\":5996:6005   */\n      dup4\n        /* \"#utility.yul\":5992:6010   */\n      add\n        /* \"#utility.yul\":5979:6011   */\n      calldataload\n        /* \"#utility.yul\":6038:6056   */\n      0xffffffffffffffff\n        /* \"#utility.yul\":6030:6036   */\n      dup2\n        /* \"#utility.yul\":6027:6057   */\n      gt\n        /* \"#utility.yul\":6024:6141   */\n      iszero\n      tag_256\n      jumpi\n        /* \"#utility.yul\":6060:6139   */\n      tag_257\n      tag_137\n      jump\t// in\n    tag_257:\n        /* \"#utility.yul\":6024:6141   */\n    tag_256:\n        /* \"#utility.yul\":6165:6228   */\n      tag_258\n        /* \"#utility.yul\":6220:6227   */\n      dup6\n        /* \"#utility.yul\":6211:6217   */\n      dup3\n        /* \"#utility.yul\":6200:6209   */\n      dup7\n        /* \"#utility.yul\":6196:6218   */\n      add\n        /* \"#utility.yul\":6165:6228   */\n      tag_157\n      jump\t// in\n    tag_258:\n        /* \"#utility.yul\":6155:6228   */\n      swap2\n      pop\n        /* \"#utility.yul\":5950:6238   */\n      pop\n        /* \"#utility.yul\":5411:6245   */\n      swap3\n      pop\n      swap3\n      swap1\n      pop\n      jump\t// out\n        /* \"#utility.yul\":6251:6431   */\n    tag_158:\n        /* \"#utility.yul\":6299:6376   */\n      0x4e487b7100000000000000000000000000000000000000000000000000000000\n        /* \"#utility.yul\":6296:6297   */\n      0x00\n        /* \"#utility.yul\":6289:6377   */\n      mstore\n        /* \"#utility.yul\":6396:6400   */\n      0x11\n        /* \"#utility.yul\":6393:6394   */\n      0x04\n        /* \"#utility.yul\":6386:6401   */\n      mstore\n        /* \"#utility.yul\":6420:6424   */\n      0x24\n        /* \"#utility.yul\":6417:6418   */\n      0x00\n        /* \"#utility.yul\":6410:6425   */\n      revert\n        /* \"#utility.yul\":6437:6628   */\n    tag_57:\n        /* \"#utility.yul\":6477:6480   */\n      0x00\n        /* \"#utility.yul\":6496:6516   */\n      tag_261\n        /* \"#utility.yul\":6514:6515   */\n      dup3\n        /* \"#utility.yul\":6496:6516   */\n      tag_138\n      jump\t// in\n    tag_261:\n        /* \"#utility.yul\":6491:6516   */\n      swap2\n      pop\n        /* \"#utility.yul\":6530:6550   */\n      tag_262\n        /* \"#utility.yul\":6548:6549   */\n      dup4\n        /* \"#utility.yul\":6530:6550   */\n      tag_138\n      jump\t// in\n    tag_262:\n        /* \"#utility.yul\":6525:6550   */\n      swap3\n      pop\n        /* \"#utility.yul\":6573:6574   */\n      dup3\n        /* \"#utility.yul\":6570:6571   */\n      dup3\n        /* \"#utility.yul\":6566:6575   */\n      add\n        /* \"#utility.yul\":6559:6575   */\n      swap1\n      pop\n        /* \"#utility.yul\":6594:6597   */\n      dup1\n        /* \"#utility.yul\":6591:6592   */\n      dup3\n        /* \"#utility.yul\":6588:6598   */\n      gt\n        /* \"#utility.yul\":6585:6621   */\n      iszero\n      tag_263\n      jumpi\n        /* \"#utility.yul\":6601:6619   */\n      tag_264\n      tag_158\n      jump\t// in\n    tag_264:\n        /* \"#utility.yul\":6585:6621   */\n    tag_263:\n        /* \"#utility.yul\":6437:6628   */\n      swap3\n      swap2\n      pop\n      pop\n      jump\t// out\n        /* \"#utility.yul\":6634:6760   */\n    tag_159:\n        /* \"#utility.yul\":6671:6678   */\n      0x00\n        /* \"#utility.yul\":6711:6753   */\n      0xffffffffffffffffffffffffffffffffffffffff\n        /* \"#utility.yul\":6704:6709   */\n      dup3\n        /* \"#utility.yul\":6700:6754   */\n      and\n        /* \"#utility.yul\":6689:6754   */\n      swap1\n      pop\n        /* \"#utility.yul\":6634:6760   */\n      swap2\n      swap1\n      pop\n      jump\t// out\n        /* \"#utility.yul\":6766:6862   */\n    tag_160:\n        /* \"#utility.yul\":6803:6810   */\n      0x00\n        /* \"#utility.yul\":6832:6856   */\n      tag_267\n        /* \"#utility.yul\":6850:6855   */\n      dup3\n        /* \"#utility.yul\":6832:6856   */\n      tag_159\n      jump\t// in\n    tag_267:\n        /* \"#utility.yul\":6821:6856   */\n      swap1\n      pop\n        /* \"#utility.yul\":6766:6862   */\n      swap2\n      swap1\n      pop\n      jump\t// out\n        /* \"#utility.yul\":6868:6986   */\n    tag_161:\n        /* \"#utility.yul\":6955:6979   */\n      tag_269\n        /* \"#utility.yul\":6973:6978   */\n      dup2\n        /* \"#utility.yul\":6955:6979   */\n      tag_160\n      jump\t// in\n    tag_269:\n        /* \"#utility.yul\":6950:6953   */\n      dup3\n        /* \"#utility.yul\":6943:6980   */\n      mstore\n        /* \"#utility.yul\":6868:6986   */\n      pop\n      pop\n      jump\t// out\n        /* \"#utility.yul\":6992:7434   */\n    tag_60:\n        /* \"#utility.yul\":7141:7145   */\n      0x00\n        /* \"#utility.yul\":7179:7181   */\n      0x60\n        /* \"#utility.yul\":7168:7177   */\n      dup3\n        /* \"#utility.yul\":7164:7182   */\n      add\n        /* \"#utility.yul\":7156:7182   */\n      swap1\n      pop\n        /* \"#utility.yul\":7192:7263   */\n      tag_271\n        /* \"#utility.yul\":7260:7261   */\n      0x00\n        /* \"#utility.yul\":7249:7258   */\n      dup4\n        /* \"#utility.yul\":7245:7262   */\n      add\n        /* \"#utility.yul\":7236:7242   */\n      dup7\n        /* \"#utility.yul\":7192:7263   */\n      tag_141\n      jump\t// in\n    tag_271:\n        /* \"#utility.yul\":7273:7345   */\n      tag_272\n        /* \"#utility.yul\":7341:7343   */\n      0x20\n        /* \"#utility.yul\":7330:7339   */\n      dup4\n        /* \"#utility.yul\":7326:7344   */\n      add\n        /* \"#utility.yul\":7317:7323   */\n      dup6\n        /* \"#utility.yul\":7273:7345   */\n      tag_161\n      jump\t// in\n    tag_272:\n        /* \"#utility.yul\":7355:7427   */\n      tag_273\n        /* \"#utility.yul\":7423:7425   */\n      0x40\n        /* \"#utility.yul\":7412:7421   */\n      dup4\n        /* \"#utility.yul\":7408:7426   */\n      add\n        /* \"#utility.yul\":7399:7405   */\n      dup5\n        /* \"#utility.yul\":7355:7427   */\n      tag_141\n      jump\t// in\n    tag_273:\n        /* \"#utility.yul\":6992:7434   */\n      swap5\n      swap4\n      pop\n      pop\n      pop\n      pop\n      jump\t// out\n        /* \"#utility.yul\":7440:7620   */\n    tag_69:\n        /* \"#utility.yul\":7488:7565   */\n      0x4e487b7100000000000000000000000000000000000000000000000000000000\n        /* \"#utility.yul\":7485:7486   */\n      0x00\n        /* \"#utility.yul\":7478:7566   */\n      mstore\n        /* \"#utility.yul\":7585:7589   */\n      0x32\n        /* \"#utility.yul\":7582:7583   */\n      0x04\n        /* \"#utility.yul\":7575:7590   */\n      mstore\n        /* \"#utility.yul\":7609:7613   */\n      0x24\n        /* \"#utility.yul\":7606:7607   */\n      0x00\n        /* \"#utility.yul\":7599:7614   */\n      revert\n        /* \"#utility.yul\":7626:7774   */\n    tag_162:\n        /* \"#utility.yul\":7728:7739   */\n      0x00\n        /* \"#utility.yul\":7765:7768   */\n      dup2\n        /* \"#utility.yul\":7750:7768   */\n      swap1\n      pop\n        /* \"#utility.yul\":7626:7774   */\n      swap3\n      swap2\n      pop\n      pop\n      jump\t// out\n        /* \"#utility.yul\":7780:8170   */\n    tag_163:\n        /* \"#utility.yul\":7886:7889   */\n      0x00\n        /* \"#utility.yul\":7914:7953   */\n      tag_277\n        /* \"#utility.yul\":7947:7952   */\n      dup3\n        /* \"#utility.yul\":7914:7953   */\n      tag_142\n      jump\t// in\n    tag_277:\n        /* \"#utility.yul\":7969:8058   */\n      tag_278\n        /* \"#utility.yul\":8051:8057   */\n      dup2\n        /* \"#utility.yul\":8046:8049   */\n      dup6\n        /* \"#utility.yul\":7969:8058   */\n      tag_162\n      jump\t// in\n    tag_278:\n        /* \"#utility.yul\":7962:8058   */\n      swap4\n      pop\n        /* \"#utility.yul\":8067:8132   */\n      tag_279\n        /* \"#utility.yul\":8125:8131   */\n      dup2\n        /* \"#utility.yul\":8120:8123   */\n      dup6\n        /* \"#utility.yul\":8113:8117   */\n      0x20\n        /* \"#utility.yul\":8106:8111   */\n      dup7\n        /* \"#utility.yul\":8102:8118   */\n      add\n        /* \"#utility.yul\":8067:8132   */\n      tag_144\n      jump\t// in\n    tag_279:\n        /* \"#utility.yul\":8157:8163   */\n      dup1\n        /* \"#utility.yul\":8152:8155   */\n      dup5\n        /* \"#utility.yul\":8148:8164   */\n      add\n        /* \"#utility.yul\":8141:8164   */\n      swap2\n      pop\n        /* \"#utility.yul\":7890:8170   */\n      pop\n        /* \"#utility.yul\":7780:8170   */\n      swap3\n      swap2\n      pop\n      pop\n      jump\t// out\n        /* \"#utility.yul\":8176:8347   */\n    tag_164:\n        /* \"#utility.yul\":8340:8344   */\n      0x2920000000000000000000000000000000000000000000000000000000000000\n        /* \"#utility.yul\":8335:8338   */\n      dup2\n        /* \"#utility.yul\":8328:8345   */\n      mstore\n        /* \"#utility.yul\":8176:8347   */\n      pop\n      jump\t// out\n        /* \"#utility.yul\":8349:8513   */\n    tag_165:\n        /* \"#utility.yul\":8393:8470   */\n      0x4e487b7100000000000000000000000000000000000000000000000000000000\n        /* \"#utility.yul\":8390:8391   */\n      0x00\n        /* \"#utility.yul\":8383:8471   */\n      mstore\n        /* \"#utility.yul\":8486:8490   */\n      0x22\n        /* \"#utility.yul\":8483:8484   */\n      0x04\n        /* \"#utility.yul\":8476:8491   */\n      mstore\n        /* \"#utility.yul\":8506:8510   */\n      0x24\n        /* \"#utility.yul\":8503:8504   */\n      0x00\n        /* \"#utility.yul\":8496:8511   */\n      revert\n        /* \"#utility.yul\":8515:8799   */\n    tag_166:\n        /* \"#utility.yul\":8559:8565   */\n      0x00\n        /* \"#utility.yul\":8592:8593   */\n      0x02\n        /* \"#utility.yul\":8586:8590   */\n      dup3\n        /* \"#utility.yul\":8582:8594   */\n      div\n        /* \"#utility.yul\":8572:8594   */\n      swap1\n      pop\n        /* \"#utility.yul\":8635:8636   */\n      0x01\n        /* \"#utility.yul\":8629:8633   */\n      dup3\n        /* \"#utility.yul\":8625:8637   */\n      and\n        /* \"#utility.yul\":8652:8670   */\n      dup1\n        /* \"#utility.yul\":8642:8715   */\n      tag_283\n      jumpi\n        /* \"#utility.yul\":8704:8708   */\n      0x7f\n        /* \"#utility.yul\":8696:8702   */\n      dup3\n        /* \"#utility.yul\":8692:8709   */\n      and\n        /* \"#utility.yul\":8682:8709   */\n      swap2\n      pop\n        /* \"#utility.yul\":8642:8715   */\n    tag_283:\n        /* \"#utility.yul\":8758:8760   */\n      0x20\n        /* \"#utility.yul\":8750:8756   */\n      dup3\n        /* \"#utility.yul\":8747:8761   */\n      lt\n        /* \"#utility.yul\":8727:8745   */\n      dup2\n        /* \"#utility.yul\":8724:8762   */\n      sub\n        /* \"#utility.yul\":8721:8797   */\n      tag_284\n      jumpi\n        /* \"#utility.yul\":8773:8791   */\n      tag_285\n      tag_165\n      jump\t// in\n    tag_285:\n        /* \"#utility.yul\":8721:8797   */\n    tag_284:\n        /* \"#utility.yul\":8566:8799   */\n      pop\n        /* \"#utility.yul\":8515:8799   */\n      swap2\n      swap1\n      pop\n      jump\t// out\n        /* \"#utility.yul\":8801:8926   */\n    tag_167:\n        /* \"#utility.yul\":8850:8854   */\n      0x00\n        /* \"#utility.yul\":8869:8872   */\n      dup2\n        /* \"#utility.yul\":8861:8872   */\n      swap1\n      pop\n        /* \"#utility.yul\":8888:8891   */\n      dup2\n        /* \"#utility.yul\":8885:8886   */\n      0x00\n        /* \"#utility.yul\":8878:8892   */\n      mstore\n        /* \"#utility.yul\":8918:8922   */\n      0x20\n        /* \"#utility.yul\":8915:8916   */\n      0x00\n        /* \"#utility.yul\":8905:8923   */\n      keccak256\n        /* \"#utility.yul\":8897:8923   */\n      swap1\n      pop\n        /* \"#utility.yul\":8801:8926   */\n      swap2\n      swap1\n      pop\n      jump\t// out\n        /* \"#utility.yul\":8948:9742   */\n    tag_168:\n        /* \"#utility.yul\":9051:9054   */\n      0x00\n        /* \"#utility.yul\":9084:9089   */\n      dup2\n        /* \"#utility.yul\":9078:9090   */\n      sload\n        /* \"#utility.yul\":9109:9145   */\n      tag_288\n        /* \"#utility.yul\":9135:9144   */\n      dup2\n        /* \"#utility.yul\":9109:9145   */\n      tag_166\n      jump\t// in\n    tag_288:\n        /* \"#utility.yul\":9157:9246   */\n      tag_289\n        /* \"#utility.yul\":9239:9245   */\n      dup2\n        /* \"#utility.yul\":9234:9237   */\n      dup7\n        /* \"#utility.yul\":9157:9246   */\n      tag_162\n      jump\t// in\n    tag_289:\n        /* \"#utility.yul\":9150:9246   */\n      swap5\n      pop\n        /* \"#utility.yul\":9273:9274   */\n      0x01\n        /* \"#utility.yul\":9262:9271   */\n      dup3\n        /* \"#utility.yul\":9258:9275   */\n      and\n        /* \"#utility.yul\":9285:9286   */\n      0x00\n        /* \"#utility.yul\":9280:9430   */\n      dup2\n      eq\n      tag_291\n      jumpi\n        /* \"#utility.yul\":9440:9441   */\n      0x01\n        /* \"#utility.yul\":9435:9740   */\n      dup2\n      eq\n      tag_292\n      jumpi\n        /* \"#utility.yul\":9251:9740   */\n      jump(tag_290)\n        /* \"#utility.yul\":9280:9430   */\n    tag_291:\n        /* \"#utility.yul\":9356:9360   */\n      0xff\n        /* \"#utility.yul\":9352:9361   */\n      not\n        /* \"#utility.yul\":9341:9350   */\n      dup4\n        /* \"#utility.yul\":9337:9362   */\n      and\n        /* \"#utility.yul\":9332:9335   */\n      dup7\n        /* \"#utility.yul\":9325:9363   */\n      mstore\n        /* \"#utility.yul\":9414:9420   */\n      dup2\n        /* \"#utility.yul\":9407:9421   */\n      iszero\n        /* \"#utility.yul\":9400:9422   */\n      iszero\n        /* \"#utility.yul\":9392:9398   */\n      dup3\n        /* \"#utility.yul\":9388:9423   */\n      mul\n        /* \"#utility.yul\":9383:9386   */\n      dup7\n        /* \"#utility.yul\":9379:9424   */\n      add\n        /* \"#utility.yul\":9372:9424   */\n      swap4\n      pop\n        /* \"#utility.yul\":9280:9430   */\n      jump(tag_290)\n        /* \"#utility.yul\":9435:9740   */\n    tag_292:\n        /* \"#utility.yul\":9494:9532   */\n      tag_293\n        /* \"#utility.yul\":9526:9531   */\n      dup6\n        /* \"#utility.yul\":9494:9532   */\n      tag_167\n      jump\t// in\n    tag_293:\n        /* \"#utility.yul\":9550:9551   */\n      0x00\n        /* \"#utility.yul\":9560:9702   */\n    tag_294:\n        /* \"#utility.yul\":9574:9580   */\n      dup4\n        /* \"#utility.yul\":9571:9572   */\n      dup2\n        /* \"#utility.yul\":9568:9581   */\n      lt\n        /* \"#utility.yul\":9560:9702   */\n      iszero\n      tag_296\n      jumpi\n        /* \"#utility.yul\":9644:9651   */\n      dup2\n        /* \"#utility.yul\":9638:9652   */\n      sload\n        /* \"#utility.yul\":9634:9635   */\n      dup2\n        /* \"#utility.yul\":9629:9632   */\n      dup10\n        /* \"#utility.yul\":9625:9636   */\n      add\n        /* \"#utility.yul\":9618:9653   */\n      mstore\n        /* \"#utility.yul\":9690:9691   */\n      0x01\n        /* \"#utility.yul\":9681:9688   */\n      dup3\n        /* \"#utility.yul\":9677:9692   */\n      add\n        /* \"#utility.yul\":9666:9692   */\n      swap2\n      pop\n        /* \"#utility.yul\":9596:9600   */\n      0x20\n        /* \"#utility.yul\":9593:9594   */\n      dup2\n        /* \"#utility.yul\":9589:9601   */\n      add\n        /* \"#utility.yul\":9584:9601   */\n      swap1\n      pop\n        /* \"#utility.yul\":9560:9702   */\n      jump(tag_294)\n    tag_296:\n        /* \"#utility.yul\":9727:9733   */\n      dup4\n        /* \"#utility.yul\":9722:9725   */\n      dup9\n        /* \"#utility.yul\":9718:9734   */\n      add\n        /* \"#utility.yul\":9711:9734   */\n      swap6\n      pop\n        /* \"#utility.yul\":9442:9740   */\n      pop\n      pop\n        /* \"#utility.yul\":9251:9740   */\n    tag_290:\n      pop\n        /* \"#utility.yul\":9055:9742   */\n      pop\n      pop\n        /* \"#utility.yul\":8948:9742   */\n      swap3\n      swap2\n      pop\n      pop\n      jump\t// out\n        /* \"#utility.yul\":9744:9917   */\n    tag_169:\n        /* \"#utility.yul\":9908:9914   */\n      0x202d202700000000000000000000000000000000000000000000000000000000\n        /* \"#utility.yul\":9903:9906   */\n      dup2\n        /* \"#utility.yul\":9896:9915   */\n      mstore\n        /* \"#utility.yul\":9744:9917   */\n      pop\n      jump\t// out\n        /* \"#utility.yul\":9919:10090   */\n    tag_170:\n        /* \"#utility.yul\":10083:10087   */\n      0x2720000000000000000000000000000000000000000000000000000000000000\n        /* \"#utility.yul\":10078:10081   */\n      dup2\n        /* \"#utility.yul\":10071:10088   */\n      mstore\n        /* \"#utility.yul\":9919:10090   */\n      pop\n      jump\t// out\n        /* \"#utility.yul\":10092:11579   */\n    tag_75:\n        /* \"#utility.yul\":10632:10635   */\n      0x00\n        /* \"#utility.yul\":10650:10745   */\n      tag_300\n        /* \"#utility.yul\":10741:10744   */\n      dup3\n        /* \"#utility.yul\":10732:10738   */\n      dup8\n        /* \"#utility.yul\":10650:10745   */\n      tag_163\n      jump\t// in\n    tag_300:\n        /* \"#utility.yul\":10643:10745   */\n      swap2\n      pop\n        /* \"#utility.yul\":10758:10853   */\n      tag_301\n        /* \"#utility.yul\":10849:10852   */\n      dup3\n        /* \"#utility.yul\":10840:10846   */\n      dup7\n        /* \"#utility.yul\":10758:10853   */\n      tag_163\n      jump\t// in\n    tag_301:\n        /* \"#utility.yul\":10751:10853   */\n      swap2\n      pop\n        /* \"#utility.yul\":10859:10996   */\n      tag_302\n        /* \"#utility.yul\":10992:10995   */\n      dup3\n        /* \"#utility.yul\":10859:10996   */\n      tag_164\n      jump\t// in\n    tag_302:\n        /* \"#utility.yul\":11017:11018   */\n      0x02\n        /* \"#utility.yul\":11012:11015   */\n      dup3\n        /* \"#utility.yul\":11008:11019   */\n      add\n        /* \"#utility.yul\":11001:11019   */\n      swap2\n      pop\n        /* \"#utility.yul\":11032:11124   */\n      tag_303\n        /* \"#utility.yul\":11120:11123   */\n      dup3\n        /* \"#utility.yul\":11111:11117   */\n      dup6\n        /* \"#utility.yul\":11032:11124   */\n      tag_168\n      jump\t// in\n    tag_303:\n        /* \"#utility.yul\":11025:11124   */\n      swap2\n      pop\n        /* \"#utility.yul\":11130:11267   */\n      tag_304\n        /* \"#utility.yul\":11263:11266   */\n      dup3\n        /* \"#utility.yul\":11130:11267   */\n      tag_169\n      jump\t// in\n    tag_304:\n        /* \"#utility.yul\":11288:11289   */\n      0x04\n        /* \"#utility.yul\":11283:11286   */\n      dup3\n        /* \"#utility.yul\":11279:11290   */\n      add\n        /* \"#utility.yul\":11272:11290   */\n      swap2\n      pop\n        /* \"#utility.yul\":11303:11395   */\n      tag_305\n        /* \"#utility.yul\":11391:11394   */\n      dup3\n        /* \"#utility.yul\":11382:11388   */\n      dup5\n        /* \"#utility.yul\":11303:11395   */\n      tag_168\n      jump\t// in\n    tag_305:\n        /* \"#utility.yul\":11296:11395   */\n      swap2\n      pop\n        /* \"#utility.yul\":11401:11538   */\n      tag_306\n        /* \"#utility.yul\":11534:11537   */\n      dup3\n        /* \"#utility.yul\":11401:11538   */\n      tag_170\n      jump\t// in\n    tag_306:\n        /* \"#utility.yul\":11559:11560   */\n      0x02\n        /* \"#utility.yul\":11554:11557   */\n      dup3\n        /* \"#utility.yul\":11550:11561   */\n      add\n        /* \"#utility.yul\":11543:11561   */\n      swap2\n      pop\n        /* \"#utility.yul\":11574:11577   */\n      dup2\n        /* \"#utility.yul\":11567:11577   */\n      swap1\n      pop\n        /* \"#utility.yul\":10092:11579   */\n      swap6\n      swap5\n      pop\n      pop\n      pop\n      pop\n      pop\n      jump\t// out\n        /* \"#utility.yul\":11581:11752   */\n    tag_171:\n        /* \"#utility.yul\":11745:11749   */\n      0x3a20000000000000000000000000000000000000000000000000000000000000\n        /* \"#utility.yul\":11740:11743   */\n      dup2\n        /* \"#utility.yul\":11733:11750   */\n      mstore\n        /* \"#utility.yul\":11581:11752   */\n      pop\n      jump\t// out\n        /* \"#utility.yul\":11754:12423   */\n    tag_91:\n        /* \"#utility.yul\":12021:12024   */\n      0x00\n        /* \"#utility.yul\":12039:12131   */\n      tag_309\n        /* \"#utility.yul\":12127:12130   */\n      dup3\n        /* \"#utility.yul\":12118:12124   */\n      dup6\n        /* \"#utility.yul\":12039:12131   */\n      tag_168\n      jump\t// in\n    tag_309:\n        /* \"#utility.yul\":12032:12131   */\n      swap2\n      pop\n        /* \"#utility.yul\":12137:12274   */\n      tag_310\n        /* \"#utility.yul\":12270:12273   */\n      dup3\n        /* \"#utility.yul\":12137:12274   */\n      tag_171\n      jump\t// in\n    tag_310:\n        /* \"#utility.yul\":12295:12296   */\n      0x02\n        /* \"#utility.yul\":12290:12293   */\n      dup3\n        /* \"#utility.yul\":12286:12297   */\n      add\n        /* \"#utility.yul\":12279:12297   */\n      swap2\n      pop\n        /* \"#utility.yul\":12310:12405   */\n      tag_311\n        /* \"#utility.yul\":12401:12404   */\n      dup3\n        /* \"#utility.yul\":12392:12398   */\n      dup5\n        /* \"#utility.yul\":12310:12405   */\n      tag_163\n      jump\t// in\n    tag_311:\n        /* \"#utility.yul\":12303:12405   */\n      swap2\n      pop\n        /* \"#utility.yul\":12418:12421   */\n      dup2\n        /* \"#utility.yul\":12411:12421   */\n      swap1\n      pop\n        /* \"#utility.yul\":11754:12423   */\n      swap4\n      swap3\n      pop\n      pop\n      pop\n      jump\t// out\n        /* \"#utility.yul\":12425:12510   */\n    tag_172:\n        /* \"#utility.yul\":12462:12468   */\n      0x00\n        /* \"#utility.yul\":12505:12507   */\n      0x20\n        /* \"#utility.yul\":12500:12502   */\n      0x1f\n        /* \"#utility.yul\":12493:12498   */\n      dup4\n        /* \"#utility.yul\":12489:12503   */\n      add\n        /* \"#utility.yul\":12485:12508   */\n      div\n        /* \"#utility.yul\":12475:12508   */\n      swap1\n      pop\n        /* \"#utility.yul\":12425:12510   */\n      swap2\n      swap1\n      pop\n      jump\t// out\n        /* \"#utility.yul\":12512:12607   */\n    tag_173:\n        /* \"#utility.yul\":12556:12564   */\n      0x00\n        /* \"#utility.yul\":12598:12603   */\n      dup3\n        /* \"#utility.yul\":12592:12596   */\n      dup3\n        /* \"#utility.yul\":12588:12604   */\n      shl\n        /* \"#utility.yul\":12571:12604   */\n      swap1\n      pop\n        /* \"#utility.yul\":12512:12607   */\n      swap3\n      swap2\n      pop\n      pop\n      jump\t// out\n        /* \"#utility.yul\":12609:12978   */\n    tag_174:\n        /* \"#utility.yul\":12678:12684   */\n      0x00\n        /* \"#utility.yul\":12724:12725   */\n      0x08\n        /* \"#utility.yul\":12712:12722   */\n      dup4\n        /* \"#utility.yul\":12708:12726   */\n      mul\n        /* \"#utility.yul\":12743:12840   */\n      tag_315\n        /* \"#utility.yul\":12773:12839   */\n      0xffffffffffffffffffffffffffffffffffffffffffffffffffffffffffffffff\n        /* \"#utility.yul\":12762:12771   */\n      dup3\n        /* \"#utility.yul\":12743:12840   */\n      tag_173\n      jump\t// in\n    tag_315:\n        /* \"#utility.yul\":12857:12896   */\n      tag_316\n        /* \"#utility.yul\":12887:12895   */\n      dup7\n        /* \"#utility.yul\":12876:12885   */\n      dup4\n        /* \"#utility.yul\":12857:12896   */\n      tag_173\n      jump\t// in\n    tag_316:\n        /* \"#utility.yul\":12845:12896   */\n      swap6\n      pop\n        /* \"#utility.yul\":12925:12929   */\n      dup1\n        /* \"#utility.yul\":12921:12930   */\n      not\n        /* \"#utility.yul\":12914:12919   */\n      dup5\n        /* \"#utility.yul\":12910:12931   */\n      and\n        /* \"#utility.yul\":12901:12931   */\n      swap4\n      pop\n        /* \"#utility.yul\":12970:12974   */\n      dup1\n        /* \"#utility.yul\":12960:12968   */\n      dup7\n        /* \"#utility.yul\":12956:12975   */\n      and\n        /* \"#utility.yul\":12949:12954   */\n      dup5\n        /* \"#utility.yul\":12946:12976   */\n      or\n        /* \"#utility.yul\":12936:12976   */\n      swap3\n      pop\n        /* \"#utility.yul\":12685:12978   */\n      pop\n      pop\n        /* \"#utility.yul\":12609:12978   */\n      swap4\n      swap3\n      pop\n      pop\n      pop\n      jump\t// out\n        /* \"#utility.yul\":12980:13032   */\n    tag_175:\n        /* \"#utility.yul\":13008:13011   */\n      0x00\n        /* \"#utility.yul\":13025:13030   */\n      dup2\n        /* \"#utility.yul\":13018:13030   */\n      swap1\n      pop\n        /* \"#utility.yul\":12980:13032   */\n      swap2\n      swap1\n      pop\n      jump\t// out\n        /* \"#utility.yul\":13034:13168   */\n    tag_176:\n        /* \"#utility.yul\":13084:13093   */\n      0x00\n        /* \"#utility.yul\":13113:13166   */\n      tag_319\n        /* \"#utility.yul\":13131:13165   */\n      tag_320\n        /* \"#utility.yul\":13140:13164   */\n      tag_321\n        /* \"#utility.yul\":13158:13163   */\n      dup5\n        /* \"#utility.yul\":13140:13164   */\n      tag_138\n      jump\t// in\n    tag_321:\n        /* \"#utility.yul\":13131:13165   */\n      tag_175\n      jump\t// in\n    tag_320:\n        /* \"#utility.yul\":13113:13166   */\n      tag_138\n      jump\t// in\n    tag_319:\n        /* \"#utility.yul\":13100:13166   */\n      swap1\n      pop\n        /* \"#utility.yul\":13034:13168   */\n      swap2\n      swap1\n      pop\n      jump\t// out\n        /* \"#utility.yul\":13170:13237   */\n    tag_177:\n        /* \"#utility.yul\":13213:13216   */\n      0x00\n        /* \"#utility.yul\":13230:13235   */\n      dup2\n        /* \"#utility.yul\":13223:13235   */\n      swap1\n      pop\n        /* \"#utility.yul\":13170:13237   */\n      swap2\n      swap1\n      pop\n      jump\t// out\n        /* \"#utility.yul\":13239:13496   */\n    tag_178:\n        /* \"#utility.yul\":13345:13384   */\n      tag_324\n        /* \"#utility.yul\":13376:13383   */\n      dup4\n        /* \"#utility.yul\":13345:13384   */\n      tag_176\n      jump\t// in\n    tag_324:\n        /* \"#utility.yul\":13402:13493   */\n      tag_325\n        /* \"#utility.yul\":13451:13492   */\n      tag_326\n        /* \"#utility.yul\":13475:13491   */\n      dup3\n        /* \"#utility.yul\":13451:13492   */\n      tag_177\n      jump\t// in\n    tag_326:\n        /* \"#utility.yul\":13443:13449   */\n      dup5\n        /* \"#utility.yul\":13436:13440   */\n      dup5\n        /* \"#utility.yul\":13430:13441   */\n      sload\n        /* \"#utility.yul\":13402:13493   */\n      tag_174\n      jump\t// in\n    tag_325:\n        /* \"#utility.yul\":13396:13400   */\n      dup3\n        /* \"#utility.yul\":13389:13494   */\n      sstore\n        /* \"#utility.yul\":13315:13496   */\n      pop\n        /* \"#utility.yul\":13239:13496   */\n      pop\n      pop\n      pop\n      jump\t// out\n        /* \"#utility.yul\":13498:13563   */\n    tag_179:\n        /* \"#utility.yul\":13543:13546   */\n      0x00\n        /* \"#utility.yul\":13560:13561   */\n      0x00\n        /* \"#utility.yul\":13553:13561   */\n      swap1\n      pop\n        /* \"#utility.yul\":13498:13563   */\n      swap1\n      jump\t// out\n        /* \"#utility.yul\":13565:13742   */\n    tag_180:\n        /* \"#utility.yul\":13638:13670   */\n      tag_329\n      tag_179\n      jump\t// in\n    tag_329:\n        /* \"#utility.yul\":13675:13740   */\n      tag_330\n        /* \"#utility.yul\":13733:13739   */\n      dup2\n        /* \"#utility.yul\":13725:13731   */\n      dup5\n        /* \"#utility.yul\":13719:13723   */\n      dup5\n        /* \"#utility.yul\":13675:13740   */\n      tag_178\n      jump\t// in\n    tag_330:\n        /* \"#utility.yul\":13618:13742   */\n      pop\n        /* \"#utility.yul\":13565:13742   */\n      pop\n      pop\n      jump\t// out\n        /* \"#utility.yul\":13744:13910   */\n    tag_181:\n        /* \"#utility.yul\":13800:13908   */\n    tag_332:\n        /* \"#utility.yul\":13817:13820   */\n      dup2\n        /* \"#utility.yul\":13810:13815   */\n      dup2\n        /* \"#utility.yul\":13807:13821   */\n      lt\n        /* \"#utility.yul\":13800:13908   */\n      iszero\n      tag_334\n      jumpi\n        /* \"#utility.yul\":13863:13902   */\n      tag_335\n        /* \"#utility.yul\":13900:13901   */\n      0x00\n        /* \"#utility.yul\":13893:13898   */\n      dup3\n        /* \"#utility.yul\":13863:13902   */\n      tag_180\n      jump\t// in\n    tag_335:\n        /* \"#utility.yul\":13844:13845   */\n      0x01\n        /* \"#utility.yul\":13837:13842   */\n      dup2\n        /* \"#utility.yul\":13833:13846   */\n      add\n        /* \"#utility.yul\":13824:13846   */\n      swap1\n      pop\n        /* \"#utility.yul\":13800:13908   */\n      jump(tag_332)\n    tag_334:\n        /* \"#utility.yul\":13744:13910   */\n      pop\n      pop\n      jump\t// out\n        /* \"#utility.yul\":13912:14423   */\n    tag_182:\n        /* \"#utility.yul\":14009:14011   */\n      0x1f\n        /* \"#utility.yul\":14004:14007   */\n      dup3\n        /* \"#utility.yul\":14001:14012   */\n      gt\n        /* \"#utility.yul\":13998:14420   */\n      iszero\n      tag_337\n      jumpi\n        /* \"#utility.yul\":14039:14077   */\n      tag_338\n        /* \"#utility.yul\":14071:14076   */\n      dup2\n        /* \"#utility.yul\":14039:14077   */\n      tag_167\n      jump\t// in\n    tag_338:\n        /* \"#utility.yul\":14119:14148   */\n      tag_339\n        /* \"#utility.yul\":14137:14147   */\n      dup5\n        /* \"#utility.yul\":14119:14148   */\n      tag_172\n      jump\t// in\n    tag_339:\n        /* \"#utility.yul\":14109:14117   */\n      dup2\n        /* \"#utility.yul\":14105:14149   */\n      add\n        /* \"#utility.yul\":14294:14296   */\n      0x20\n        /* \"#utility.yul\":14282:14292   */\n      dup6\n        /* \"#utility.yul\":14279:14297   */\n      lt\n        /* \"#utility.yul\":14276:14325   */\n      iszero\n      tag_340\n      jumpi\n        /* \"#utility.yul\":14315:14323   */\n      dup2\n        /* \"#utility.yul\":14300:14323   */\n      swap1\n      pop\n        /* \"#utility.yul\":14276:14325   */\n    tag_340:\n        /* \"#utility.yul\":14334:14414   */\n      tag_341\n        /* \"#utility.yul\":14390:14412   */\n      tag_342\n        /* \"#utility.yul\":14408:14411   */\n      dup6\n        /* \"#utility.yul\":14390:14412   */\n      tag_172\n      jump\t// in\n    tag_342:\n        /* \"#utility.yul\":14380:14388   */\n      dup4\n        /* \"#utility.yul\":14376:14413   */\n      add\n        /* \"#utility.yul\":14363:14374   */\n      dup3\n        /* \"#utility.yul\":14334:14414   */\n      tag_181\n      jump\t// in\n    tag_341:\n        /* \"#utility.yul\":14013:14420   */\n      pop\n      pop\n        /* \"#utility.yul\":13998:14420   */\n    tag_337:\n        /* \"#utility.yul\":13912:14423   */\n      pop\n      pop\n      pop\n      jump\t// out\n        /* \"#utility.yul\":14425:14530   */\n    tag_183:\n        /* \"#utility.yul\":14479:14487   */\n      0x00\n        /* \"#utility.yul\":14521:14526   */\n      dup3\n        /* \"#utility.yul\":14515:14519   */\n      dup3\n        /* \"#utility.yul\":14511:14527   */\n      shr\n        /* \"#utility.yul\":14494:14527   */\n      swap1\n      pop\n        /* \"#utility.yul\":14425:14530   */\n      swap3\n      swap2\n      pop\n      pop\n      jump\t// out\n        /* \"#utility.yul\":14532:14689   */\n    tag_184:\n        /* \"#utility.yul\":14576:14582   */\n      0x00\n        /* \"#utility.yul\":14605:14656   */\n      tag_345\n        /* \"#utility.yul\":14653:14654   */\n      0x00\n        /* \"#utility.yul\":14649:14655   */\n      not\n        /* \"#utility.yul\":14641:14646   */\n      dup5\n        /* \"#utility.yul\":14638:14639   */\n      0x08\n        /* \"#utility.yul\":14634:14647   */\n      mul\n        /* \"#utility.yul\":14605:14656   */\n      tag_183\n      jump\t// in\n    tag_345:\n        /* \"#utility.yul\":14601:14657   */\n      not\n        /* \"#utility.yul\":14682:14686   */\n      dup1\n        /* \"#utility.yul\":14676:14680   */\n      dup4\n        /* \"#utility.yul\":14672:14687   */\n      and\n        /* \"#utility.yul\":14662:14687   */\n      swap2\n      pop\n        /* \"#utility.yul\":14583:14689   */\n      pop\n        /* \"#utility.yul\":14532:14689   */\n      swap3\n      swap2\n      pop\n      pop\n      jump\t// out\n        /* \"#utility.yul\":14690:14965   */\n    tag_185:\n        /* \"#utility.yul\":14766:14770   */\n      0x00\n        /* \"#utility.yul\":14900:14929   */\n      tag_347\n        /* \"#utility.yul\":14925:14928   */\n      dup4\n        /* \"#utility.yul\":14919:14923   */\n      dup4\n        /* \"#utility.yul\":14900:14929   */\n      tag_184\n      jump\t// in\n    tag_347:\n        /* \"#utility.yul\":14892:14929   */\n      swap2\n      pop\n        /* \"#utility.yul\":14958:14961   */\n      dup3\n        /* \"#utility.yul\":14955:14956   */\n      0x02\n        /* \"#utility.yul\":14951:14962   */\n      mul\n        /* \"#utility.yul\":14945:14949   */\n      dup3\n        /* \"#utility.yul\":14942:14963   */\n      or\n        /* \"#utility.yul\":14934:14963   */\n      swap1\n      pop\n        /* \"#utility.yul\":14690:14965   */\n      swap3\n      swap2\n      pop\n      pop\n      jump\t// out\n        /* \"#utility.yul\":14966:16233   */\n    tag_100:\n        /* \"#utility.yul\":15079:15116   */\n      tag_349\n        /* \"#utility.yul\":15112:15115   */\n      dup3\n        /* \"#utility.yul\":15079:15116   */\n      tag_142\n      jump\t// in\n    tag_349:\n        /* \"#utility.yul\":15173:15191   */\n      0xffffffffffffffff\n        /* \"#utility.yul\":15165:15171   */\n      dup2\n        /* \"#utility.yul\":15162:15192   */\n      gt\n        /* \"#utility.yul\":15159:15215   */\n      iszero\n      tag_350\n      jumpi\n        /* \"#utility.yul\":15195:15213   */\n      tag_351\n      tag_107\n      jump\t// in\n    tag_351:\n        /* \"#utility.yul\":15159:15215   */\n    tag_350:\n        /* \"#utility.yul\":15235:15273   */\n      tag_352\n        /* \"#utility.yul\":15267:15271   */\n      dup3\n        /* \"#utility.yul\":15261:15272   */\n      sload\n        /* \"#utility.yul\":15235:15273   */\n      tag_166\n      jump\t// in\n    tag_352:\n        /* \"#utility.yul\":15312:15379   */\n      tag_353\n        /* \"#utility.yul\":15372:15378   */\n      dup3\n        /* \"#utility.yul\":15364:15370   */\n      dup3\n        /* \"#utility.yul\":15358:15362   */\n      dup6\n        /* \"#utility.yul\":15312:15379   */\n      tag_182\n      jump\t// in\n    tag_353:\n        /* \"#utility.yul\":15402:15403   */\n      0x00\n        /* \"#utility.yul\":15422:15426   */\n      0x20\n        /* \"#utility.yul\":15409:15426   */\n      swap1\n      pop\n        /* \"#utility.yul\":15450:15452   */\n      0x1f\n        /* \"#utility.yul\":15442:15448   */\n      dup4\n        /* \"#utility.yul\":15439:15453   */\n      gt\n        /* \"#utility.yul\":15463:15464   */\n      0x01\n        /* \"#utility.yul\":15458:16020   */\n      dup2\n      eq\n      tag_355\n      jumpi\n        /* \"#utility.yul\":16056:16057   */\n      0x00\n        /* \"#utility.yul\":16069:16075   */\n      dup5\n        /* \"#utility.yul\":16066:16135   */\n      iszero\n      tag_356\n      jumpi\n        /* \"#utility.yul\":16114:16123   */\n      dup3\n        /* \"#utility.yul\":16109:16112   */\n      dup8\n        /* \"#utility.yul\":16105:16124   */\n      add\n        /* \"#utility.yul\":16099:16125   */\n      mload\n        /* \"#utility.yul\":16090:16125   */\n      swap1\n      pop\n        /* \"#utility.yul\":16066:16135   */\n    tag_356:\n        /* \"#utility.yul\":16157:16224   */\n      tag_357\n        /* \"#utility.yul\":16217:16223   */\n      dup6\n        /* \"#utility.yul\":16210:16215   */\n      dup3\n        /* \"#utility.yul\":16157:16224   */\n      tag_185\n      jump\t// in\n    tag_357:\n        /* \"#utility.yul\":16151:16155   */\n      dup7\n        /* \"#utility.yul\":16144:16225   */\n      sstore\n        /* \"#utility.yul\":16033:16231   */\n      pop\n        /* \"#utility.yul\":15432:16231   */\n      jump(tag_354)\n        /* \"#utility.yul\":15458:16020   */\n    tag_355:\n        /* \"#utility.yul\":15506:15510   */\n      0x1f\n        /* \"#utility.yul\":15502:15511   */\n      not\n        /* \"#utility.yul\":15494:15500   */\n      dup5\n        /* \"#utility.yul\":15490:15512   */\n      and\n        /* \"#utility.yul\":15536:15573   */\n      tag_358\n        /* \"#utility.yul\":15568:15572   */\n      dup7\n        /* \"#utility.yul\":15536:15573   */\n      tag_167\n      jump\t// in\n    tag_358:\n        /* \"#utility.yul\":15591:15592   */\n      0x00\n        /* \"#utility.yul\":15601:15793   */\n    tag_359:\n        /* \"#utility.yul\":15615:15622   */\n      dup3\n        /* \"#utility.yul\":15612:15613   */\n      dup2\n        /* \"#utility.yul\":15609:15623   */\n      lt\n        /* \"#utility.yul\":15601:15793   */\n      iszero\n      tag_361\n      jumpi\n        /* \"#utility.yul\":15690:15699   */\n      dup5\n        /* \"#utility.yul\":15685:15688   */\n      dup10\n        /* \"#utility.yul\":15681:15700   */\n      add\n        /* \"#utility.yul\":15675:15701   */\n      mload\n        /* \"#utility.yul\":15667:15673   */\n      dup3\n        /* \"#utility.yul\":15660:15702   */\n      sstore\n        /* \"#utility.yul\":15737:15738   */\n      0x01\n        /* \"#utility.yul\":15729:15735   */\n      dup3\n        /* \"#utility.yul\":15725:15739   */\n      add\n        /* \"#utility.yul\":15715:15739   */\n      swap2\n      pop\n        /* \"#utility.yul\":15780:15782   */\n      0x20\n        /* \"#utility.yul\":15769:15778   */\n      dup6\n        /* \"#utility.yul\":15765:15783   */\n      add\n        /* \"#utility.yul\":15752:15783   */\n      swap5\n      pop\n        /* \"#utility.yul\":15638:15642   */\n      0x20\n        /* \"#utility.yul\":15635:15636   */\n      dup2\n        /* \"#utility.yul\":15631:15643   */\n      add\n        /* \"#utility.yul\":15626:15643   */\n      swap1\n      pop\n        /* \"#utility.yul\":15601:15793   */\n      jump(tag_359)\n    tag_361:\n        /* \"#utility.yul\":15817:15823   */\n      dup7\n        /* \"#utility.yul\":15808:15815   */\n      dup4\n        /* \"#utility.yul\":15805:15824   */\n      lt\n        /* \"#utility.yul\":15802:15969   */\n      iszero\n      tag_362\n      jumpi\n        /* \"#utility.yul\":15871:15880   */\n      dup5\n        /* \"#utility.yul\":15866:15869   */\n      dup10\n        /* \"#utility.yul\":15862:15881   */\n      add\n        /* \"#utility.yul\":15856:15882   */\n      mload\n        /* \"#utility.yul\":15910:15958   */\n      tag_363\n        /* \"#utility.yul\":15952:15956   */\n      0x1f\n        /* \"#utility.yul\":15944:15950   */\n      dup10\n        /* \"#utility.yul\":15940:15957   */\n      and\n        /* \"#utility.yul\":15929:15938   */\n      dup3\n        /* \"#utility.yul\":15910:15958   */\n      tag_184\n      jump\t// in\n    tag_363:\n        /* \"#utility.yul\":15902:15908   */\n      dup4\n        /* \"#utility.yul\":15895:15959   */\n      sstore\n        /* \"#utility.yul\":15825:15969   */\n      pop\n        /* \"#utility.yul\":15802:15969   */\n    tag_362:\n        /* \"#utility.yul\":16011:16012   */\n      0x01\n        /* \"#utility.yul\":16007:16008   */\n      0x02\n        /* \"#utility.yul\":15999:16005   */\n      dup9\n        /* \"#utility.yul\":15995:16009   */\n      mul\n        /* \"#utility.yul\":15991:16013   */\n      add\n        /* \"#utility.yul\":15985:15989   */\n      dup9\n        /* \"#utility.yul\":15978:16014   */\n      sstore\n        /* \"#utility.yul\":15465:16020   */\n      pop\n      pop\n      pop\n        /* \"#utility.yul\":15432:16231   */\n    tag_354:\n      pop\n        /* \"#utility.yul\":15058:16233   */\n      pop\n      pop\n      pop\n        /* \"#utility.yul\":14966:16233   */\n      pop\n      pop\n      jump\t// out\n        /* \"#utility.yul\":16235:16399   */\n    tag_113:\n        /* \"#utility.yul\":16279:16356   */\n      0x4e487b7100000000000000000000000000000000000000000000000000000000\n        /* \"#utility.yul\":16276:16277   */\n      0x00\n        /* \"#utility.yul\":16269:16357   */\n      mstore\n        /* \"#utility.yul\":16372:16376   */\n      0x12\n        /* \"#utility.yul\":16369:16370   */\n      0x04\n        /* \"#utility.yul\":16362:16377   */\n      mstore\n        /* \"#utility.yul\":16392:16396   */\n      0x24\n        /* \"#utility.yul\":16389:16390   */\n      0x00\n        /* \"#utility.yul\":16382:16397   */\n      revert\n\n    auxdata: 0xa2646970667358221220e8415aae90773b73ca0d30b68f90aa4041408aefe040cf20cf301a0eb2fd721c64736f6c634300081e0033\n}\n",
				"bytecode": {
					"linkReferences": {},
					"object": "608060405260015f5f6101000a81548160ff0219169083151502179055505f60025534801561002c575f5ffd5b50604051611ccc380380611ccc833981810160405281019061004e9190610510565b81600181905550335f60016101000a81548173ffffffffffffffffffffffffffffffffffffffff021916908373ffffffffffffffffffffffffffffffffffffffff16021790555080426100a191906105a9565b6003819055505f835190505f81116101325761012d6040518060400160405280600481526020017f4a6f686e000000000000000000000000000000000000000000000000000000008152506040518060400160405280601b81526020017f536f6d65206465736372697074696f6e2061626f7574204a6f686e00000000008152506101b460201b60201c565b6101ab565b5f5b818162ffffff1610156101a957610196858262ffffff168151811061015c5761015b6105dc565b5b60200260200101515f0151868362ffffff168151811061017f5761017e6105dc565b5b6020026020010151602001516101b460201b60201c565b80806101a190610617565b915050610134565b505b50505050610917565b6004604051806040016040528084815260200183815250908060018154018082558091505060019003905f5260205f2090600202015f909190919091505f820151815f0190816102049190610848565b50602082015181600101908161021a9190610848565b5050505050565b5f604051905090565b5f5ffd5b5f5ffd5b5f5ffd5b5f601f19601f8301169050919050565b7f4e487b71000000000000000000000000000000000000000000000000000000005f52604160045260245ffd5b61027c82610236565b810181811067ffffffffffffffff8211171561029b5761029a610246565b5b80604052505050565b5f6102ad610221565b90506102b98282610273565b919050565b5f67ffffffffffffffff8211156102d8576102d7610246565b5b602082029050602081019050919050565b5f5ffd5b5f5ffd5b5f5ffd5b5f5ffd5b5f67ffffffffffffffff82111561031357610312610246565b5b61031c82610236565b9050602081019050919050565b8281835e5f83830152505050565b5f610349610344846102f9565b6102a4565b905082815260208101848484011115610365576103646102f5565b5b610370848285610329565b509392505050565b5f82601f83011261038c5761038b610232565b5b815161039c848260208601610337565b91505092915050565b5f604082840312156103ba576103b96102ed565b5b6103c460406102a4565b90505f82015167ffffffffffffffff8111156103e3576103e26102f1565b5b6103ef84828501610378565b5f83015250602082015167ffffffffffffffff811115610412576104116102f1565b5b61041e84828501610378565b60208301525092915050565b5f61043c610437846102be565b6102a4565b9050808382526020820190506020840283018581111561045f5761045e6102e9565b5b835b818110156104a657805167ffffffffffffffff81111561048457610483610232565b5b80860161049189826103a5565b85526020850194505050602081019050610461565b5050509392505050565b5f82601f8301126104c4576104c3610232565b5b81516104d484826020860161042a565b91505092915050565b5f819050919050565b6104ef816104dd565b81146104f9575f5ffd5b50565b5f8151905061050a816104e6565b92915050565b5f5f5f606084860312156105275761052661022a565b5b5f84015167ffffffffffffffff8111156105445761054361022e565b5b610550868287016104b0565b9350506020610561868287016104fc565b9250506040610572868287016104fc565b9150509250925092565b7f4e487b71000000000000000000000000000000000000000000000000000000005f52601160045260245ffd5b5f6105b3826104dd565b91506105be836104dd565b92508282019050808211156105d6576105d561057c565b5b92915050565b7f4e487b71000000000000000000000000000000000000000000000000000000005f52603260045260245ffd5b5f62ffffff82169050919050565b5f61062182610609565b915062ffffff82036106365761063561057c565b5b600182019050919050565b5f81519050919050565b7f4e487b71000000000000000000000000000000000000000000000000000000005f52602260045260245ffd5b5f600282049050600182168061068f57607f821691505b6020821081036106a2576106a161064b565b5b50919050565b5f819050815f5260205f209050919050565b5f6020601f8301049050919050565b5f82821b905092915050565b5f600883026107047fffffffffffffffffffffffffffffffffffffffffffffffffffffffffffffffff826106c9565b61070e86836106c9565b95508019841693508086168417925050509392505050565b5f819050919050565b5f61074961074461073f846104dd565b610726565b6104dd565b9050919050565b5f819050919050565b6107628361072f565b61077661076e82610750565b8484546106d5565b825550505050565b5f5f905090565b61078d61077e565b610798818484610759565b505050565b5b818110156107bb576107b05f82610785565b60018101905061079e565b5050565b601f821115610800576107d1816106a8565b6107da846106ba565b810160208510156107e9578190505b6107fd6107f5856106ba565b83018261079d565b50505b505050565b5f82821c905092915050565b5f6108205f1984600802610805565b1980831691505092915050565b5f6108388383610811565b9150826002028217905092915050565b61085182610641565b67ffffffffffffffff81111561086a57610869610246565b5b6108748254610678565b61087f8282856107bf565b5f60209050601f8311600181146108b0575f841561089e578287015190505b6108a8858261082d565b86555061090f565b601f1984166108be866106a8565b5f5b828110156108e5578489015182556001820191506020850194506020810190506108c0565b8683101561090257848901516108fe601f891682610811565b8355505b6001600288020188555050505b505050505050565b6113a8806109245f395ff3fe608060405234801561000f575f5ffd5b5060043610610091575f3560e01c806359a6026d1161006457806359a6026d14610109578063777c3acf146101255780637a1edd771461014357806392bc5e2b14610173578063be82d07d1461019157610091565b80630121b93f146100955780630d15fd77146100b157806322c17e05146100cf5780632f6d1581146100ed575b5f5ffd5b6100af60048036038101906100aa9190610aa5565b6101ad565b005b6100b96104c1565b6040516100c69190610adf565b60405180910390f35b6100d76104c7565b6040516100e49190610b68565b60405180910390f35b61010760048036038101906101029190610aa5565b61057a565b005b610123600480360381019061011e9190610bbd565b61061b565b005b61012d6106bc565b60405161013a9190610adf565b60405180910390f35b61015d60048036038101906101589190610aa5565b6106c2565b60405161016a9190610b68565b60405180910390f35b61017b610777565b6040516101889190610adf565b60405180910390f35b6101ab60048036038101906101a69190610d14565b6107d9565b005b600115155f5f9054906101000a900460ff161515146101f8576040517f3c7769f400000000000000000000000000000000000000000000000000000000815260040160405180910390fd5b3373ffffffffffffffffffffffffffffffffffffffff165f60019054906101000a900473ffffffffffffffffffffffffffffffffffffffff1673ffffffffffffffffffffffffffffffffffffffff160361027e576040517fb47bf5f800000000000000000000000000000000000000000000000000000000815260040160405180910390fd5b60015460025410600154906102c9576040517f11e7fc560000000000000000000000000000000000000000000000000000000081526004016102c09190610adf565b60405180910390fd5b5060035442111560035490610314576040517f8f9a963d00000000000000000000000000000000000000000000000000000000815260040161030b9190610adf565b60405180910390fd5b505f151560055f3373ffffffffffffffffffffffffffffffffffffffff1673ffffffffffffffffffffffffffffffffffffffff1681526020019081526020015f205f9054906101000a900460ff1615151461039b576040517f1f601b3f00000000000000000000000000000000000000000000000000000000815260040160405180910390fd5b6004805490508110600480549050906103ea576040517fcd6d071e0000000000000000000000000000000000000000000000000000000081526004016103e19190610adf565b60405180910390fd5b50600160055f3373ffffffffffffffffffffffffffffffffffffffff1673ffffffffffffffffffffffffffffffffffffffff1681526020019081526020015f205f6101000a81548160ff021916908315150217905550600160065f8381526020019081526020015f205f8282546104619190610db7565b92505081905550600160025f82825461047a9190610db7565b925050819055507fb613bb210e5ca6fd5d7bdb566e84384049d0bb0a23d9c416438a31a95826c1ab81336002546040516104b693929190610e29565b60405180910390a150565b60025481565b60605f60048054905090505f60405180602001604052805f81525090505f5f90505b8281101561057157816104fb82610846565b6004838154811061050f5761050e610e5e565b5b905f5260205f2090600202015f016004848154811061053157610530610e5e565b5b905f5260205f2090600202016001016040516020016105539493929190611026565b604051602081830303815290604052915080806001019150506104e9565b50809250505090565b3373ffffffffffffffffffffffffffffffffffffffff165f60019054906101000a900473ffffffffffffffffffffffffffffffffffffffff1673ffffffffffffffffffffffffffffffffffffffff1614610600576040517feabd223e00000000000000000000000000000000000000000000000000000000815260040160405180910390fd5b8060035f8282546106119190610db7565b9250508190555050565b3373ffffffffffffffffffffffffffffffffffffffff165f60019054906101000a900473ffffffffffffffffffffffffffffffffffffffff1673ffffffffffffffffffffffffffffffffffffffff16146106a1576040517feabd223e00000000000000000000000000000000000000000000000000000000815260040160405180910390fd5b805f5f6101000a81548160ff02191690831515021790555050565b60015481565b6060600480549050821060048054905090610713576040517fcd6d071e00000000000000000000000000000000000000000000000000000000815260040161070a9190610adf565b60405180910390fd5b506004828154811061072857610727610e5e565b5b905f5260205f2090600202015f0161075060065f8581526020019081526020015f2054610846565b6040516020016107619291906110b6565b6040516020818303038152906040529050919050565b5f5f5f90505f5f90505f5f90505b6004805490508110156107d0578260065f8381526020019081526020015f205411156107c35760065f8281526020019081526020015f205492508091505b8080600101915050610785565b50809250505090565b6004604051806040016040528084815260200183815250908060018154018082558091505060019003905f5260205f2090600202015f909190919091505f820151815f0190816108299190611276565b50602082015181600101908161083f9190611276565b5050505050565b60605f600161085484610910565b0190505f8167ffffffffffffffff81111561087257610871610bf0565b5b6040519080825280601f01601f1916602001820160405280156108a45781602001600182028036833780820191505090505b5090505f82602083010190505b600115610905578080600190039150507f3031323334353637383961626364656600000000000000000000000000000000600a86061a8153600a85816108fa576108f9611345565b5b0494505f85036108b1575b819350505050919050565b5f5f5f90507a184f03e93ff9f4daa797ed6e38ed64bf6a1f010000000000000000831061096c577a184f03e93ff9f4daa797ed6e38ed64bf6a1f010000000000000000838161096257610961611345565b5b0492506040810190505b6d04ee2d6d415b85acef810000000083106109a9576d04ee2d6d415b85acef8100000000838161099f5761099e611345565b5b0492506020810190505b662386f26fc1000083106109d857662386f26fc1000083816109ce576109cd611345565b5b0492506010810190505b6305f5e1008310610a01576305f5e10083816109f7576109f6611345565b5b0492506008810190505b6127108310610a26576127108381610a1c57610a1b611345565b5b0492506004810190505b60648310610a495760648381610a3f57610a3e611345565b5b0492506002810190505b600a8310610a58576001810190505b80915050919050565b5f604051905090565b5f5ffd5b5f5ffd5b5f819050919050565b610a8481610a72565b8114610a8e575f5ffd5b50565b5f81359050610a9f81610a7b565b92915050565b5f60208284031215610aba57610ab9610a6a565b5b5f610ac784828501610a91565b91505092915050565b610ad981610a72565b82525050565b5f602082019050610af25f830184610ad0565b92915050565b5f81519050919050565b5f82825260208201905092915050565b8281835e5f83830152505050565b5f601f19601f8301169050919050565b5f610b3a82610af8565b610b448185610b02565b9350610b54818560208601610b12565b610b5d81610b20565b840191505092915050565b5f6020820190508181035f830152610b808184610b30565b905092915050565b5f8115159050919050565b610b9c81610b88565b8114610ba6575f5ffd5b50565b5f81359050610bb781610b93565b92915050565b5f60208284031215610bd257610bd1610a6a565b5b5f610bdf84828501610ba9565b91505092915050565b5f5ffd5b5f5ffd5b7f4e487b71000000000000000000000000000000000000000000000000000000005f52604160045260245ffd5b610c2682610b20565b810181811067ffffffffffffffff82111715610c4557610c44610bf0565b5b80604052505050565b5f610c57610a61565b9050610c638282610c1d565b919050565b5f67ffffffffffffffff821115610c8257610c81610bf0565b5b610c8b82610b20565b9050602081019050919050565b828183375f83830152505050565b5f610cb8610cb384610c68565b610c4e565b905082815260208101848484011115610cd457610cd3610bec565b5b610cdf848285610c98565b509392505050565b5f82601f830112610cfb57610cfa610be8565b5b8135610d0b848260208601610ca6565b91505092915050565b5f5f60408385031215610d2a57610d29610a6a565b5b5f83013567ffffffffffffffff811115610d4757610d46610a6e565b5b610d5385828601610ce7565b925050602083013567ffffffffffffffff811115610d7457610d73610a6e565b5b610d8085828601610ce7565b9150509250929050565b7f4e487b71000000000000000000000000000000000000000000000000000000005f52601160045260245ffd5b5f610dc182610a72565b9150610dcc83610a72565b9250828201905080821115610de457610de3610d8a565b5b92915050565b5f73ffffffffffffffffffffffffffffffffffffffff82169050919050565b5f610e1382610dea565b9050919050565b610e2381610e09565b82525050565b5f606082019050610e3c5f830186610ad0565b610e496020830185610e1a565b610e566040830184610ad0565b949350505050565b7f4e487b71000000000000000000000000000000000000000000000000000000005f52603260045260245ffd5b5f81905092915050565b5f610e9f82610af8565b610ea98185610e8b565b9350610eb9818560208601610b12565b80840191505092915050565b7f2920000000000000000000000000000000000000000000000000000000000000815250565b7f4e487b71000000000000000000000000000000000000000000000000000000005f52602260045260245ffd5b5f6002820490506001821680610f2f57607f821691505b602082108103610f4257610f41610eeb565b5b50919050565b5f819050815f5260205f209050919050565b5f8154610f6681610f18565b610f708186610e8b565b9450600182165f8114610f8a5760018114610f9f57610fd1565b60ff1983168652811515820286019350610fd1565b610fa885610f48565b5f5b83811015610fc957815481890152600182019150602081019050610faa565b838801955050505b50505092915050565b7f202d202700000000000000000000000000000000000000000000000000000000815250565b7f2720000000000000000000000000000000000000000000000000000000000000815250565b5f6110318287610e95565b915061103d8286610e95565b915061104882610ec5565b6002820191506110588285610f5a565b915061106382610fda565b6004820191506110738284610f5a565b915061107e82611000565b60028201915081905095945050505050565b7f3a20000000000000000000000000000000000000000000000000000000000000815250565b5f6110c18285610f5a565b91506110cc82611090565b6002820191506110dc8284610e95565b91508190509392505050565b5f6020601f8301049050919050565b5f82821b905092915050565b5f600883026111327fffffffffffffffffffffffffffffffffffffffffffffffffffffffffffffffff826110f7565b61113c86836110f7565b95508019841693508086168417925050509392505050565b5f819050919050565b5f61117761117261116d84610a72565b611154565b610a72565b9050919050565b5f819050919050565b6111908361115d565b6111a461119c8261117e565b848454611103565b825550505050565b5f5f905090565b6111bb6111ac565b6111c6818484611187565b505050565b5b818110156111e9576111de5f826111b3565b6001810190506111cc565b5050565b601f82111561122e576111ff81610f48565b611208846110e8565b81016020851015611217578190505b61122b611223856110e8565b8301826111cb565b50505b505050565b5f82821c905092915050565b5f61124e5f1984600802611233565b1980831691505092915050565b5f611266838361123f565b9150826002028217905092915050565b61127f82610af8565b67ffffffffffffffff81111561129857611297610bf0565b5b6112a28254610f18565b6112ad8282856111ed565b5f60209050601f8311600181146112de575f84156112cc578287015190505b6112d6858261125b565b86555061133d565b601f1984166112ec86610f48565b5f5b82811015611313578489015182556001820191506020850194506020810190506112ee565b86831015611330578489015161132c601f89168261123f565b8355505b6001600288020188555050505b505050505050565b7f4e487b71000000000000000000000000000000000000000000000000000000005f52601260045260245ffdfea2646970667358221220e8415aae90773b73ca0d30b68f90aa4041408aefe040cf20cf301a0eb2fd721c64736f6c634300081e0033",
					"opcodes": "PUSH1 0x80 PUSH1 0x40 MSTORE PUSH1 0x1 PUSH0 PUSH0 PUSH2 0x100 EXP DUP2 SLOAD DUP2 PUSH1 0xFF MUL NOT AND SWAP1 DUP4 ISZERO ISZERO MUL OR SWAP1 SSTORE POP PUSH0 PUSH1 0x2 SSTORE CALLVALUE DUP1 ISZERO PUSH2 0x2C JUMPI PUSH0 PUSH0 REVERT JUMPDEST POP PUSH1 0x40 MLOAD PUSH2 0x1CCC CODESIZE SUB DUP1 PUSH2 0x1CCC DUP4 CODECOPY DUP2 DUP2 ADD PUSH1 0x40 MSTORE DUP2 ADD SWAP1 PUSH2 0x4E SWAP2 SWAP1 PUSH2 0x510 JUMP JUMPDEST DUP2 PUSH1 0x1 DUP2 SWAP1 SSTORE POP CALLER PUSH0 PUSH1 0x1 PUSH2 0x100 EXP DUP2 SLOAD DUP2 PUSH20 0xFFFFFFFFFFFFFFFFFFFFFFFFFFFFFFFFFFFFFFFF MUL NOT AND SWAP1 DUP4 PUSH20 0xFFFFFFFFFFFFFFFFFFFFFFFFFFFFFFFFFFFFFFFF AND MUL OR SWAP1 SSTORE POP DUP1 TIMESTAMP PUSH2 0xA1 SWAP2 SWAP1 PUSH2 0x5A9 JUMP JUMPDEST PUSH1 0x3 DUP2 SWAP1 SSTORE POP PUSH0 DUP4 MLOAD SWAP1 POP PUSH0 DUP2 GT PUSH2 0x132 JUMPI PUSH2 0x12D PUSH1 0x40 MLOAD DUP1 PUSH1 0x40 ADD PUSH1 0x40 MSTORE DUP1 PUSH1 0x4 DUP2 MSTORE PUSH1 0x20 ADD PUSH32 0x4A6F686E00000000000000000000000000000000000000000000000000000000 DUP2 MSTORE POP PUSH1 0x40 MLOAD DUP1 PUSH1 0x40 ADD PUSH1 0x40 MSTORE DUP1 PUSH1 0x1B DUP2 MSTORE PUSH1 0x20 ADD PUSH32 0x536F6D65206465736372697074696F6E2061626F7574204A6F686E0000000000 DUP2 MSTORE POP PUSH2 0x1B4 PUSH1 0x20 SHL PUSH1 0x20 SHR JUMP JUMPDEST PUSH2 0x1AB JUMP JUMPDEST PUSH0 JUMPDEST DUP2 DUP2 PUSH3 0xFFFFFF AND LT ISZERO PUSH2 0x1A9 JUMPI PUSH2 0x196 DUP6 DUP3 PUSH3 0xFFFFFF AND DUP2 MLOAD DUP2 LT PUSH2 0x15C JUMPI PUSH2 0x15B PUSH2 0x5DC JUMP JUMPDEST JUMPDEST PUSH1 0x20 MUL PUSH1 0x20 ADD ADD MLOAD PUSH0 ADD MLOAD DUP7 DUP4 PUSH3 0xFFFFFF AND DUP2 MLOAD DUP2 LT PUSH2 0x17F JUMPI PUSH2 0x17E PUSH2 0x5DC JUMP JUMPDEST JUMPDEST PUSH1 0x20 MUL PUSH1 0x20 ADD ADD MLOAD PUSH1 0x20 ADD MLOAD PUSH2 0x1B4 PUSH1 0x20 SHL PUSH1 0x20 SHR JUMP JUMPDEST DUP1 DUP1 PUSH2 0x1A1 SWAP1 PUSH2 0x617 JUMP JUMPDEST SWAP2 POP POP PUSH2 0x134 JUMP JUMPDEST POP JUMPDEST POP POP POP POP PUSH2 0x917 JUMP JUMPDEST PUSH1 0x4 PUSH1 0x40 MLOAD DUP1 PUSH1 0x40 ADD PUSH1 0x40 MSTORE DUP1 DUP5 DUP2 MSTORE PUSH1 0x20 ADD DUP4 DUP2 MSTORE POP SWAP1 DUP1 PUSH1 0x1 DUP2 SLOAD ADD DUP1 DUP3 SSTORE DUP1 SWAP2 POP POP PUSH1 0x1 SWAP1 SUB SWAP1 PUSH0 MSTORE PUSH1 0x20 PUSH0 KECCAK256 SWAP1 PUSH1 0x2 MUL ADD PUSH0 SWAP1 SWAP2 SWAP1 SWAP2 SWAP1 SWAP2 POP PUSH0 DUP3 ADD MLOAD DUP2 PUSH0 ADD SWAP1 DUP2 PUSH2 0x204 SWAP2 SWAP1 PUSH2 0x848 JUMP JUMPDEST POP PUSH1 0x20 DUP3 ADD MLOAD DUP2 PUSH1 0x1 ADD SWAP1 DUP2 PUSH2 0x21A SWAP2 SWAP1 PUSH2 0x848 JUMP JUMPDEST POP POP POP POP POP JUMP JUMPDEST PUSH0 PUSH1 0x40 MLOAD SWAP1 POP SWAP1 JUMP JUMPDEST PUSH0 PUSH0 REVERT JUMPDEST PUSH0 PUSH0 REVERT JUMPDEST PUSH0 PUSH0 REVERT JUMPDEST PUSH0 PUSH1 0x1F NOT PUSH1 0x1F DUP4 ADD AND SWAP1 POP SWAP2 SWAP1 POP JUMP JUMPDEST PUSH32 0x4E487B7100000000000000000000000000000000000000000000000000000000 PUSH0 MSTORE PUSH1 0x41 PUSH1 0x4 MSTORE PUSH1 0x24 PUSH0 REVERT JUMPDEST PUSH2 0x27C DUP3 PUSH2 0x236 JUMP JUMPDEST DUP2 ADD DUP2 DUP2 LT PUSH8 0xFFFFFFFFFFFFFFFF DUP3 GT OR ISZERO PUSH2 0x29B JUMPI PUSH2 0x29A PUSH2 0x246 JUMP JUMPDEST JUMPDEST DUP1 PUSH1 0x40 MSTORE POP POP POP JUMP JUMPDEST PUSH0 PUSH2 0x2AD PUSH2 0x221 JUMP JUMPDEST SWAP1 POP PUSH2 0x2B9 DUP3 DUP3 PUSH2 0x273 JUMP JUMPDEST SWAP2 SWAP1 POP JUMP JUMPDEST PUSH0 PUSH8 0xFFFFFFFFFFFFFFFF DUP3 GT ISZERO PUSH2 0x2D8 JUMPI PUSH2 0x2D7 PUSH2 0x246 JUMP JUMPDEST JUMPDEST PUSH1 0x20 DUP3 MUL SWAP1 POP PUSH1 0x20 DUP2 ADD SWAP1 POP SWAP2 SWAP1 POP JUMP JUMPDEST PUSH0 PUSH0 REVERT JUMPDEST PUSH0 PUSH0 REVERT JUMPDEST PUSH0 PUSH0 REVERT JUMPDEST PUSH0 PUSH0 REVERT JUMPDEST PUSH0 PUSH8 0xFFFFFFFFFFFFFFFF DUP3 GT ISZERO PUSH2 0x313 JUMPI PUSH2 0x312 PUSH2 0x246 JUMP JUMPDEST JUMPDEST PUSH2 0x31C DUP3 PUSH2 0x236 JUMP JUMPDEST SWAP1 POP PUSH1 0x20 DUP2 ADD SWAP1 POP SWAP2 SWAP1 POP JUMP JUMPDEST DUP3 DUP2 DUP4 MCOPY PUSH0 DUP4 DUP4 ADD MSTORE POP POP POP JUMP JUMPDEST PUSH0 PUSH2 0x349 PUSH2 0x344 DUP5 PUSH2 0x2F9 JUMP JUMPDEST PUSH2 0x2A4 JUMP JUMPDEST SWAP1 POP DUP3 DUP2 MSTORE PUSH1 0x20 DUP2 ADD DUP5 DUP5 DUP5 ADD GT ISZERO PUSH2 0x365 JUMPI PUSH2 0x364 PUSH2 0x2F5 JUMP JUMPDEST JUMPDEST PUSH2 0x370 DUP5 DUP3 DUP6 PUSH2 0x329 JUMP JUMPDEST POP SWAP4 SWAP3 POP POP POP JUMP JUMPDEST PUSH0 DUP3 PUSH1 0x1F DUP4 ADD SLT PUSH2 0x38C JUMPI PUSH2 0x38B PUSH2 0x232 JUMP JUMPDEST JUMPDEST DUP2 MLOAD PUSH2 0x39C DUP5 DUP3 PUSH1 0x20 DUP7 ADD PUSH2 0x337 JUMP JUMPDEST SWAP2 POP POP SWAP3 SWAP2 POP POP JUMP JUMPDEST PUSH0 PUSH1 0x40 DUP3 DUP5 SUB SLT ISZERO PUSH2 0x3BA JUMPI PUSH2 0x3B9 PUSH2 0x2ED JUMP JUMPDEST JUMPDEST PUSH2 0x3C4 PUSH1 0x40 PUSH2 0x2A4 JUMP JUMPDEST SWAP1 POP PUSH0 DUP3 ADD MLOAD PUSH8 0xFFFFFFFFFFFFFFFF DUP2 GT ISZERO PUSH2 0x3E3 JUMPI PUSH2 0x3E2 PUSH2 0x2F1 JUMP JUMPDEST JUMPDEST PUSH2 0x3EF DUP5 DUP3 DUP6 ADD PUSH2 0x378 JUMP JUMPDEST PUSH0 DUP4 ADD MSTORE POP PUSH1 0x20 DUP3 ADD MLOAD PUSH8 0xFFFFFFFFFFFFFFFF DUP2 GT ISZERO PUSH2 0x412 JUMPI PUSH2 0x411 PUSH2 0x2F1 JUMP JUMPDEST JUMPDEST PUSH2 0x41E DUP5 DUP3 DUP6 ADD PUSH2 0x378 JUMP JUMPDEST PUSH1 0x20 DUP4 ADD MSTORE POP SWAP3 SWAP2 POP POP JUMP JUMPDEST PUSH0 PUSH2 0x43C PUSH2 0x437 DUP5 PUSH2 0x2BE JUMP JUMPDEST PUSH2 0x2A4 JUMP JUMPDEST SWAP1 POP DUP1 DUP4 DUP3 MSTORE PUSH1 0x20 DUP3 ADD SWAP1 POP PUSH1 0x20 DUP5 MUL DUP4 ADD DUP6 DUP2 GT ISZERO PUSH2 0x45F JUMPI PUSH2 0x45E PUSH2 0x2E9 JUMP JUMPDEST JUMPDEST DUP4 JUMPDEST DUP2 DUP2 LT ISZERO PUSH2 0x4A6 JUMPI DUP1 MLOAD PUSH8 0xFFFFFFFFFFFFFFFF DUP2 GT ISZERO PUSH2 0x484 JUMPI PUSH2 0x483 PUSH2 0x232 JUMP JUMPDEST JUMPDEST DUP1 DUP7 ADD PUSH2 0x491 DUP10 DUP3 PUSH2 0x3A5 JUMP JUMPDEST DUP6 MSTORE PUSH1 0x20 DUP6 ADD SWAP5 POP POP POP PUSH1 0x20 DUP2 ADD SWAP1 POP PUSH2 0x461 JUMP JUMPDEST POP POP POP SWAP4 SWAP3 POP POP POP JUMP JUMPDEST PUSH0 DUP3 PUSH1 0x1F DUP4 ADD SLT PUSH2 0x4C4 JUMPI PUSH2 0x4C3 PUSH2 0x232 JUMP JUMPDEST JUMPDEST DUP2 MLOAD PUSH2 0x4D4 DUP5 DUP3 PUSH1 0x20 DUP7 ADD PUSH2 0x42A JUMP JUMPDEST SWAP2 POP POP SWAP3 SWAP2 POP POP JUMP JUMPDEST PUSH0 DUP2 SWAP1 POP SWAP2 SWAP1 POP JUMP JUMPDEST PUSH2 0x4EF DUP2 PUSH2 0x4DD JUMP JUMPDEST DUP2 EQ PUSH2 0x4F9 JUMPI PUSH0 PUSH0 REVERT JUMPDEST POP JUMP JUMPDEST PUSH0 DUP2 MLOAD SWAP1 POP PUSH2 0x50A DUP2 PUSH2 0x4E6 JUMP JUMPDEST SWAP3 SWAP2 POP POP JUMP JUMPDEST PUSH0 PUSH0 PUSH0 PUSH1 0x60 DUP5 DUP7 SUB SLT ISZERO PUSH2 0x527 JUMPI PUSH2 0x526 PUSH2 0x22A JUMP JUMPDEST JUMPDEST PUSH0 DUP5 ADD MLOAD PUSH8 0xFFFFFFFFFFFFFFFF DUP2 GT ISZERO PUSH2 0x544 JUMPI PUSH2 0x543 PUSH2 0x22E JUMP JUMPDEST JUMPDEST PUSH2 0x550 DUP7 DUP3 DUP8 ADD PUSH2 0x4B0 JUMP JUMPDEST SWAP4 POP POP PUSH1 0x20 PUSH2 0x561 DUP7 DUP3 DUP8 ADD PUSH2 0x4FC JUMP JUMPDEST SWAP3 POP POP PUSH1 0x40 PUSH2 0x572 DUP7 DUP3 DUP8 ADD PUSH2 0x4FC JUMP JUMPDEST SWAP2 POP POP SWAP3 POP SWAP3 POP SWAP3 JUMP JUMPDEST PUSH32 0x4E487B7100000000000000000000000000000000000000000000000000000000 PUSH0 MSTORE PUSH1 0x11 PUSH1 0x4 MSTORE PUSH1 0x24 PUSH0 REVERT JUMPDEST PUSH0 PUSH2 0x5B3 DUP3 PUSH2 0x4DD JUMP JUMPDEST SWAP2 POP PUSH2 0x5BE DUP4 PUSH2 0x4DD JUMP JUMPDEST SWAP3 POP DUP3 DUP3 ADD SWAP1 POP DUP1 DUP3 GT ISZERO PUSH2 0x5D6 JUMPI PUSH2 0x5D5 PUSH2 0x57C JUMP JUMPDEST JUMPDEST SWAP3 SWAP2 POP POP JUMP JUMPDEST PUSH32 0x4E487B7100000000000000000000000000000000000000000000000000000000 PUSH0 MSTORE PUSH1 0x32 PUSH1 0x4 MSTORE PUSH1 0x24 PUSH0 REVERT JUMPDEST PUSH0 PUSH3 0xFFFFFF DUP3 AND SWAP1 POP SWAP2 SWAP1 POP JUMP JUMPDEST PUSH0 PUSH2 0x621 DUP3 PUSH2 0x609 JUMP JUMPDEST SWAP2 POP PUSH3 0xFFFFFF DUP3 SUB PUSH2 0x636 JUMPI PUSH2 0x635 PUSH2 0x57C JUMP JUMPDEST JUMPDEST PUSH1 0x1 DUP3 ADD SWAP1 POP SWAP2 SWAP1 POP JUMP JUMPDEST PUSH0 DUP2 MLOAD SWAP1 POP SWAP2 SWAP1 POP JUMP JUMPDEST PUSH32 0x4E487B7100000000000000000000000000000000000000000000000000000000 PUSH0 MSTORE PUSH1 0x22 PUSH1 0x4 MSTORE PUSH1 0x24 PUSH0 REVERT JUMPDEST PUSH0 PUSH1 0x2 DUP3 DIV SWAP1 POP PUSH1 0x1 DUP3 AND DUP1 PUSH2 0x68F JUMPI PUSH1 0x7F DUP3 AND SWAP2 POP JUMPDEST PUSH1 0x20 DUP3 LT DUP2 SUB PUSH2 0x6A2 JUMPI PUSH2 0x6A1 PUSH2 0x64B JUMP JUMPDEST JUMPDEST POP SWAP2 SWAP1 POP JUMP JUMPDEST PUSH0 DUP2 SWAP1 POP DUP2 PUSH0 MSTORE PUSH1 0x20 PUSH0 KECCAK256 SWAP1 POP SWAP2 SWAP1 POP JUMP JUMPDEST PUSH0 PUSH1 0x20 PUSH1 0x1F DUP4 ADD DIV SWAP1 POP SWAP2 SWAP1 POP JUMP JUMPDEST PUSH0 DUP3 DUP3 SHL SWAP1 POP SWAP3 SWAP2 POP POP JUMP JUMPDEST PUSH0 PUSH1 0x8 DUP4 MUL PUSH2 0x704 PUSH32 0xFFFFFFFFFFFFFFFFFFFFFFFFFFFFFFFFFFFFFFFFFFFFFFFFFFFFFFFFFFFFFFFF DUP3 PUSH2 0x6C9 JUMP JUMPDEST PUSH2 0x70E DUP7 DUP4 PUSH2 0x6C9 JUMP JUMPDEST SWAP6 POP DUP1 NOT DUP5 AND SWAP4 POP DUP1 DUP7 AND DUP5 OR SWAP3 POP POP POP SWAP4 SWAP3 POP POP POP JUMP JUMPDEST PUSH0 DUP2 SWAP1 POP SWAP2 SWAP1 POP JUMP JUMPDEST PUSH0 PUSH2 0x749 PUSH2 0x744 PUSH2 0x73F DUP5 PUSH2 0x4DD JUMP JUMPDEST PUSH2 0x726 JUMP JUMPDEST PUSH2 0x4DD JUMP JUMPDEST SWAP1 POP SWAP2 SWAP1 POP JUMP JUMPDEST PUSH0 DUP2 SWAP1 POP SWAP2 SWAP1 POP JUMP JUMPDEST PUSH2 0x762 DUP4 PUSH2 0x72F JUMP JUMPDEST PUSH2 0x776 PUSH2 0x76E DUP3 PUSH2 0x750 JUMP JUMPDEST DUP5 DUP5 SLOAD PUSH2 0x6D5 JUMP JUMPDEST DUP3 SSTORE POP POP POP POP JUMP JUMPDEST PUSH0 PUSH0 SWAP1 POP SWAP1 JUMP JUMPDEST PUSH2 0x78D PUSH2 0x77E JUMP JUMPDEST PUSH2 0x798 DUP2 DUP5 DUP5 PUSH2 0x759 JUMP JUMPDEST POP POP POP JUMP JUMPDEST JUMPDEST DUP2 DUP2 LT ISZERO PUSH2 0x7BB JUMPI PUSH2 0x7B0 PUSH0 DUP3 PUSH2 0x785 JUMP JUMPDEST PUSH1 0x1 DUP2 ADD SWAP1 POP PUSH2 0x79E JUMP JUMPDEST POP POP JUMP JUMPDEST PUSH1 0x1F DUP3 GT ISZERO PUSH2 0x800 JUMPI PUSH2 0x7D1 DUP2 PUSH2 0x6A8 JUMP JUMPDEST PUSH2 0x7DA DUP5 PUSH2 0x6BA JUMP JUMPDEST DUP2 ADD PUSH1 0x20 DUP6 LT ISZERO PUSH2 0x7E9 JUMPI DUP2 SWAP1 POP JUMPDEST PUSH2 0x7FD PUSH2 0x7F5 DUP6 PUSH2 0x6BA JUMP JUMPDEST DUP4 ADD DUP3 PUSH2 0x79D JUMP JUMPDEST POP POP JUMPDEST POP POP POP JUMP JUMPDEST PUSH0 DUP3 DUP3 SHR SWAP1 POP SWAP3 SWAP2 POP POP JUMP JUMPDEST PUSH0 PUSH2 0x820 PUSH0 NOT DUP5 PUSH1 0x8 MUL PUSH2 0x805 JUMP JUMPDEST NOT DUP1 DUP4 AND SWAP2 POP POP SWAP3 SWAP2 POP POP JUMP JUMPDEST PUSH0 PUSH2 0x838 DUP4 DUP4 PUSH2 0x811 JUMP JUMPDEST SWAP2 POP DUP3 PUSH1 0x2 MUL DUP3 OR SWAP1 POP SWAP3 SWAP2 POP POP JUMP JUMPDEST PUSH2 0x851 DUP3 PUSH2 0x641 JUMP JUMPDEST PUSH8 0xFFFFFFFFFFFFFFFF DUP2 GT ISZERO PUSH2 0x86A JUMPI PUSH2 0x869 PUSH2 0x246 JUMP JUMPDEST JUMPDEST PUSH2 0x874 DUP3 SLOAD PUSH2 0x678 JUMP JUMPDEST PUSH2 0x87F DUP3 DUP3 DUP6 PUSH2 0x7BF JUMP JUMPDEST PUSH0 PUSH1 0x20 SWAP1 POP PUSH1 0x1F DUP4 GT PUSH1 0x1 DUP2 EQ PUSH2 0x8B0 JUMPI PUSH0 DUP5 ISZERO PUSH2 0x89E JUMPI DUP3 DUP8 ADD MLOAD SWAP1 POP JUMPDEST PUSH2 0x8A8 DUP6 DUP3 PUSH2 0x82D JUMP JUMPDEST DUP7 SSTORE POP PUSH2 0x90F JUMP JUMPDEST PUSH1 0x1F NOT DUP5 AND PUSH2 0x8BE DUP7 PUSH2 0x6A8 JUMP JUMPDEST PUSH0 JUMPDEST DUP3 DUP2 LT ISZERO PUSH2 0x8E5 JUMPI DUP5 DUP10 ADD MLOAD DUP3 SSTORE PUSH1 0x1 DUP3 ADD SWAP2 POP PUSH1 0x20 DUP6 ADD SWAP5 POP PUSH1 0x20 DUP2 ADD SWAP1 POP PUSH2 0x8C0 JUMP JUMPDEST DUP7 DUP4 LT ISZERO PUSH2 0x902 JUMPI DUP5 DUP10 ADD MLOAD PUSH2 0x8FE PUSH1 0x1F DUP10 AND DUP3 PUSH2 0x811 JUMP JUMPDEST DUP4 SSTORE POP JUMPDEST PUSH1 0x1 PUSH1 0x2 DUP9 MUL ADD DUP9 SSTORE POP POP POP JUMPDEST POP POP POP POP POP POP JUMP JUMPDEST PUSH2 0x13A8 DUP1 PUSH2 0x924 PUSH0 CODECOPY PUSH0 RETURN INVALID PUSH1 0x80 PUSH1 0x40 MSTORE CALLVALUE DUP1 ISZERO PUSH2 0xF JUMPI PUSH0 PUSH0 REVERT JUMPDEST POP PUSH1 0x4 CALLDATASIZE LT PUSH2 0x91 JUMPI PUSH0 CALLDATALOAD PUSH1 0xE0 SHR DUP1 PUSH4 0x59A6026D GT PUSH2 0x64 JUMPI DUP1 PUSH4 0x59A6026D EQ PUSH2 0x109 JUMPI DUP1 PUSH4 0x777C3ACF EQ PUSH2 0x125 JUMPI DUP1 PUSH4 0x7A1EDD77 EQ PUSH2 0x143 JUMPI DUP1 PUSH4 0x92BC5E2B EQ PUSH2 0x173 JUMPI DUP1 PUSH4 0xBE82D07D EQ PUSH2 0x191 JUMPI PUSH2 0x91 JUMP JUMPDEST DUP1 PUSH4 0x121B93F EQ PUSH2 0x95 JUMPI DUP1 PUSH4 0xD15FD77 EQ PUSH2 0xB1 JUMPI DUP1 PUSH4 0x22C17E05 EQ PUSH2 0xCF JUMPI DUP1 PUSH4 0x2F6D1581 EQ PUSH2 0xED JUMPI JUMPDEST PUSH0 PUSH0 REVERT JUMPDEST PUSH2 0xAF PUSH1 0x4 DUP1 CALLDATASIZE SUB DUP2 ADD SWAP1 PUSH2 0xAA SWAP2 SWAP1 PUSH2 0xAA5 JUMP JUMPDEST PUSH2 0x1AD JUMP JUMPDEST STOP JUMPDEST PUSH2 0xB9 PUSH2 0x4C1 JUMP JUMPDEST PUSH1 0x40 MLOAD PUSH2 0xC6 SWAP2 SWAP1 PUSH2 0xADF JUMP JUMPDEST PUSH1 0x40 MLOAD DUP1 SWAP2 SUB SWAP1 RETURN JUMPDEST PUSH2 0xD7 PUSH2 0x4C7 JUMP JUMPDEST PUSH1 0x40 MLOAD PUSH2 0xE4 SWAP2 SWAP1 PUSH2 0xB68 JUMP JUMPDEST PUSH1 0x40 MLOAD DUP1 SWAP2 SUB SWAP1 RETURN JUMPDEST PUSH2 0x107 PUSH1 0x4 DUP1 CALLDATASIZE SUB DUP2 ADD SWAP1 PUSH2 0x102 SWAP2 SWAP1 PUSH2 0xAA5 JUMP JUMPDEST PUSH2 0x57A JUMP JUMPDEST STOP JUMPDEST PUSH2 0x123 PUSH1 0x4 DUP1 CALLDATASIZE SUB DUP2 ADD SWAP1 PUSH2 0x11E SWAP2 SWAP1 PUSH2 0xBBD JUMP JUMPDEST PUSH2 0x61B JUMP JUMPDEST STOP JUMPDEST PUSH2 0x12D PUSH2 0x6BC JUMP JUMPDEST PUSH1 0x40 MLOAD PUSH2 0x13A SWAP2 SWAP1 PUSH2 0xADF JUMP JUMPDEST PUSH1 0x40 MLOAD DUP1 SWAP2 SUB SWAP1 RETURN JUMPDEST PUSH2 0x15D PUSH1 0x4 DUP1 CALLDATASIZE SUB DUP2 ADD SWAP1 PUSH2 0x158 SWAP2 SWAP1 PUSH2 0xAA5 JUMP JUMPDEST PUSH2 0x6C2 JUMP JUMPDEST PUSH1 0x40 MLOAD PUSH2 0x16A SWAP2 SWAP1 PUSH2 0xB68 JUMP JUMPDEST PUSH1 0x40 MLOAD DUP1 SWAP2 SUB SWAP1 RETURN JUMPDEST PUSH2 0x17B PUSH2 0x777 JUMP JUMPDEST PUSH1 0x40 MLOAD PUSH2 0x188 SWAP2 SWAP1 PUSH2 0xADF JUMP JUMPDEST PUSH1 0x40 MLOAD DUP1 SWAP2 SUB SWAP1 RETURN JUMPDEST PUSH2 0x1AB PUSH1 0x4 DUP1 CALLDATASIZE SUB DUP2 ADD SWAP1 PUSH2 0x1A6 SWAP2 SWAP1 PUSH2 0xD14 JUMP JUMPDEST PUSH2 0x7D9 JUMP JUMPDEST STOP JUMPDEST PUSH1 0x1 ISZERO ISZERO PUSH0 PUSH0 SWAP1 SLOAD SWAP1 PUSH2 0x100 EXP SWAP1 DIV PUSH1 0xFF AND ISZERO ISZERO EQ PUSH2 0x1F8 JUMPI PUSH1 0x40 MLOAD PUSH32 0x3C7769F400000000000000000000000000000000000000000000000000000000 DUP2 MSTORE PUSH1 0x4 ADD PUSH1 0x40 MLOAD DUP1 SWAP2 SUB SWAP1 REVERT JUMPDEST CALLER PUSH20 0xFFFFFFFFFFFFFFFFFFFFFFFFFFFFFFFFFFFFFFFF AND PUSH0 PUSH1 0x1 SWAP1 SLOAD SWAP1 PUSH2 0x100 EXP SWAP1 DIV PUSH20 0xFFFFFFFFFFFFFFFFFFFFFFFFFFFFFFFFFFFFFFFF AND PUSH20 0xFFFFFFFFFFFFFFFFFFFFFFFFFFFFFFFFFFFFFFFF AND SUB PUSH2 0x27E JUMPI PUSH1 0x40 MLOAD PUSH32 0xB47BF5F800000000000000000000000000000000000000000000000000000000 DUP2 MSTORE PUSH1 0x4 ADD PUSH1 0x40 MLOAD DUP1 SWAP2 SUB SWAP1 REVERT JUMPDEST PUSH1 0x1 SLOAD PUSH1 0x2 SLOAD LT PUSH1 0x1 SLOAD SWAP1 PUSH2 0x2C9 JUMPI PUSH1 0x40 MLOAD PUSH32 0x11E7FC5600000000000000000000000000000000000000000000000000000000 DUP2 MSTORE PUSH1 0x4 ADD PUSH2 0x2C0 SWAP2 SWAP1 PUSH2 0xADF JUMP JUMPDEST PUSH1 0x40 MLOAD DUP1 SWAP2 SUB SWAP1 REVERT JUMPDEST POP PUSH1 0x3 SLOAD TIMESTAMP GT ISZERO PUSH1 0x3 SLOAD SWAP1 PUSH2 0x314 JUMPI PUSH1 0x40 MLOAD PUSH32 0x8F9A963D00000000000000000000000000000000000000000000000000000000 DUP2 MSTORE PUSH1 0x4 ADD PUSH2 0x30B SWAP2 SWAP1 PUSH2 0xADF JUMP JUMPDEST PUSH1 0x40 MLOAD DUP1 SWAP2 SUB SWAP1 REVERT JUMPDEST POP PUSH0 ISZERO ISZERO PUSH1 0x5 PUSH0 CALLER PUSH20 0xFFFFFFFFFFFFFFFFFFFFFFFFFFFFFFFFFFFFFFFF AND PUSH20 0xFFFFFFFFFFFFFFFFFFFFFFFFFFFFFFFFFFFFFFFF AND DUP2 MSTORE PUSH1 0x20 ADD SWAP1 DUP2 MSTORE PUSH1 0x20 ADD PUSH0 KECCAK256 PUSH0 SWAP1 SLOAD SWAP1 PUSH2 0x100 EXP SWAP1 DIV PUSH1 0xFF AND ISZERO ISZERO EQ PUSH2 0x39B JUMPI PUSH1 0x40 MLOAD PUSH32 0x1F601B3F00000000000000000000000000000000000000000000000000000000 DUP2 MSTORE PUSH1 0x4 ADD PUSH1 0x40 MLOAD DUP1 SWAP2 SUB SWAP1 REVERT JUMPDEST PUSH1 0x4 DUP1 SLOAD SWAP1 POP DUP2 LT PUSH1 0x4 DUP1 SLOAD SWAP1 POP SWAP1 PUSH2 0x3EA JUMPI PUSH1 0x40 MLOAD PUSH32 0xCD6D071E00000000000000000000000000000000000000000000000000000000 DUP2 MSTORE PUSH1 0x4 ADD PUSH2 0x3E1 SWAP2 SWAP1 PUSH2 0xADF JUMP JUMPDEST PUSH1 0x40 MLOAD DUP1 SWAP2 SUB SWAP1 REVERT JUMPDEST POP PUSH1 0x1 PUSH1 0x5 PUSH0 CALLER PUSH20 0xFFFFFFFFFFFFFFFFFFFFFFFFFFFFFFFFFFFFFFFF AND PUSH20 0xFFFFFFFFFFFFFFFFFFFFFFFFFFFFFFFFFFFFFFFF AND DUP2 MSTORE PUSH1 0x20 ADD SWAP1 DUP2 MSTORE PUSH1 0x20 ADD PUSH0 KECCAK256 PUSH0 PUSH2 0x100 EXP DUP2 SLOAD DUP2 PUSH1 0xFF MUL NOT AND SWAP1 DUP4 ISZERO ISZERO MUL OR SWAP1 SSTORE POP PUSH1 0x1 PUSH1 0x6 PUSH0 DUP4 DUP2 MSTORE PUSH1 0x20 ADD SWAP1 DUP2 MSTORE PUSH1 0x20 ADD PUSH0 KECCAK256 PUSH0 DUP3 DUP3 SLOAD PUSH2 0x461 SWAP2 SWAP1 PUSH2 0xDB7 JUMP JUMPDEST SWAP3 POP POP DUP2 SWAP1 SSTORE POP PUSH1 0x1 PUSH1 0x2 PUSH0 DUP3 DUP3 SLOAD PUSH2 0x47A SWAP2 SWAP1 PUSH2 0xDB7 JUMP JUMPDEST SWAP3 POP POP DUP2 SWAP1 SSTORE POP PUSH32 0xB613BB210E5CA6FD5D7BDB566E84384049D0BB0A23D9C416438A31A95826C1AB DUP2 CALLER PUSH1 0x2 SLOAD PUSH1 0x40 MLOAD PUSH2 0x4B6 SWAP4 SWAP3 SWAP2 SWAP1 PUSH2 0xE29 JUMP JUMPDEST PUSH1 0x40 MLOAD DUP1 SWAP2 SUB SWAP1 LOG1 POP JUMP JUMPDEST PUSH1 0x2 SLOAD DUP2 JUMP JUMPDEST PUSH1 0x60 PUSH0 PUSH1 0x4 DUP1 SLOAD SWAP1 POP SWAP1 POP PUSH0 PUSH1 0x40 MLOAD DUP1 PUSH1 0x20 ADD PUSH1 0x40 MSTORE DUP1 PUSH0 DUP2 MSTORE POP SWAP1 POP PUSH0 PUSH0 SWAP1 POP JUMPDEST DUP3 DUP2 LT ISZERO PUSH2 0x571 JUMPI DUP2 PUSH2 0x4FB DUP3 PUSH2 0x846 JUMP JUMPDEST PUSH1 0x4 DUP4 DUP2 SLOAD DUP2 LT PUSH2 0x50F JUMPI PUSH2 0x50E PUSH2 0xE5E JUMP JUMPDEST JUMPDEST SWAP1 PUSH0 MSTORE PUSH1 0x20 PUSH0 KECCAK256 SWAP1 PUSH1 0x2 MUL ADD PUSH0 ADD PUSH1 0x4 DUP5 DUP2 SLOAD DUP2 LT PUSH2 0x531 JUMPI PUSH2 0x530 PUSH2 0xE5E JUMP JUMPDEST JUMPDEST SWAP1 PUSH0 MSTORE PUSH1 0x20 PUSH0 KECCAK256 SWAP1 PUSH1 0x2 MUL ADD PUSH1 0x1 ADD PUSH1 0x40 MLOAD PUSH1 0x20 ADD PUSH2 0x553 SWAP5 SWAP4 SWAP3 SWAP2 SWAP1 PUSH2 0x1026 JUMP JUMPDEST PUSH1 0x40 MLOAD PUSH1 0x20 DUP2 DUP4 SUB SUB DUP2 MSTORE SWAP1 PUSH1 0x40 MSTORE SWAP2 POP DUP1 DUP1 PUSH1 0x1 ADD SWAP2 POP POP PUSH2 0x4E9 JUMP JUMPDEST POP DUP1 SWAP3 POP POP POP SWAP1 JUMP JUMPDEST CALLER PUSH20 0xFFFFFFFFFFFFFFFFFFFFFFFFFFFFFFFFFFFFFFFF AND PUSH0 PUSH1 0x1 SWAP1 SLOAD SWAP1 PUSH2 0x100 EXP SWAP1 DIV PUSH20 0xFFFFFFFFFFFFFFFFFFFFFFFFFFFFFFFFFFFFFFFF AND PUSH20 0xFFFFFFFFFFFFFFFFFFFFFFFFFFFFFFFFFFFFFFFF AND EQ PUSH2 0x600 JUMPI PUSH1 0x40 MLOAD PUSH32 0xEABD223E00000000000000000000000000000000000000000000000000000000 DUP2 MSTORE PUSH1 0x4 ADD PUSH1 0x40 MLOAD DUP1 SWAP2 SUB SWAP1 REVERT JUMPDEST DUP1 PUSH1 0x3 PUSH0 DUP3 DUP3 SLOAD PUSH2 0x611 SWAP2 SWAP1 PUSH2 0xDB7 JUMP JUMPDEST SWAP3 POP POP DUP2 SWAP1 SSTORE POP POP JUMP JUMPDEST CALLER PUSH20 0xFFFFFFFFFFFFFFFFFFFFFFFFFFFFFFFFFFFFFFFF AND PUSH0 PUSH1 0x1 SWAP1 SLOAD SWAP1 PUSH2 0x100 EXP SWAP1 DIV PUSH20 0xFFFFFFFFFFFFFFFFFFFFFFFFFFFFFFFFFFFFFFFF AND PUSH20 0xFFFFFFFFFFFFFFFFFFFFFFFFFFFFFFFFFFFFFFFF AND EQ PUSH2 0x6A1 JUMPI PUSH1 0x40 MLOAD PUSH32 0xEABD223E00000000000000000000000000000000000000000000000000000000 DUP2 MSTORE PUSH1 0x4 ADD PUSH1 0x40 MLOAD DUP1 SWAP2 SUB SWAP1 REVERT JUMPDEST DUP1 PUSH0 PUSH0 PUSH2 0x100 EXP DUP2 SLOAD DUP2 PUSH1 0xFF MUL NOT AND SWAP1 DUP4 ISZERO ISZERO MUL OR SWAP1 SSTORE POP POP JUMP JUMPDEST PUSH1 0x1 SLOAD DUP2 JUMP JUMPDEST PUSH1 0x60 PUSH1 0x4 DUP1 SLOAD SWAP1 POP DUP3 LT PUSH1 0x4 DUP1 SLOAD SWAP1 POP SWAP1 PUSH2 0x713 JUMPI PUSH1 0x40 MLOAD PUSH32 0xCD6D071E00000000000000000000000000000000000000000000000000000000 DUP2 MSTORE PUSH1 0x4 ADD PUSH2 0x70A SWAP2 SWAP1 PUSH2 0xADF JUMP JUMPDEST PUSH1 0x40 MLOAD DUP1 SWAP2 SUB SWAP1 REVERT JUMPDEST POP PUSH1 0x4 DUP3 DUP2 SLOAD DUP2 LT PUSH2 0x728 JUMPI PUSH2 0x727 PUSH2 0xE5E JUMP JUMPDEST JUMPDEST SWAP1 PUSH0 MSTORE PUSH1 0x20 PUSH0 KECCAK256 SWAP1 PUSH1 0x2 MUL ADD PUSH0 ADD PUSH2 0x750 PUSH1 0x6 PUSH0 DUP6 DUP2 MSTORE PUSH1 0x20 ADD SWAP1 DUP2 MSTORE PUSH1 0x20 ADD PUSH0 KECCAK256 SLOAD PUSH2 0x846 JUMP JUMPDEST PUSH1 0x40 MLOAD PUSH1 0x20 ADD PUSH2 0x761 SWAP3 SWAP2 SWAP1 PUSH2 0x10B6 JUMP JUMPDEST PUSH1 0x40 MLOAD PUSH1 0x20 DUP2 DUP4 SUB SUB DUP2 MSTORE SWAP1 PUSH1 0x40 MSTORE SWAP1 POP SWAP2 SWAP1 POP JUMP JUMPDEST PUSH0 PUSH0 PUSH0 SWAP1 POP PUSH0 PUSH0 SWAP1 POP PUSH0 PUSH0 SWAP1 POP JUMPDEST PUSH1 0x4 DUP1 SLOAD SWAP1 POP DUP2 LT ISZERO PUSH2 0x7D0 JUMPI DUP3 PUSH1 0x6 PUSH0 DUP4 DUP2 MSTORE PUSH1 0x20 ADD SWAP1 DUP2 MSTORE PUSH1 0x20 ADD PUSH0 KECCAK256 SLOAD GT ISZERO PUSH2 0x7C3 JUMPI PUSH1 0x6 PUSH0 DUP3 DUP2 MSTORE PUSH1 0x20 ADD SWAP1 DUP2 MSTORE PUSH1 0x20 ADD PUSH0 KECCAK256 SLOAD SWAP3 POP DUP1 SWAP2 POP JUMPDEST DUP1 DUP1 PUSH1 0x1 ADD SWAP2 POP POP PUSH2 0x785 JUMP JUMPDEST POP DUP1 SWAP3 POP POP POP SWAP1 JUMP JUMPDEST PUSH1 0x4 PUSH1 0x40 MLOAD DUP1 PUSH1 0x40 ADD PUSH1 0x40 MSTORE DUP1 DUP5 DUP2 MSTORE PUSH1 0x20 ADD DUP4 DUP2 MSTORE POP SWAP1 DUP1 PUSH1 0x1 DUP2 SLOAD ADD DUP1 DUP3 SSTORE DUP1 SWAP2 POP POP PUSH1 0x1 SWAP1 SUB SWAP1 PUSH0 MSTORE PUSH1 0x20 PUSH0 KECCAK256 SWAP1 PUSH1 0x2 MUL ADD PUSH0 SWAP1 SWAP2 SWAP1 SWAP2 SWAP1 SWAP2 POP PUSH0 DUP3 ADD MLOAD DUP2 PUSH0 ADD SWAP1 DUP2 PUSH2 0x829 SWAP2 SWAP1 PUSH2 0x1276 JUMP JUMPDEST POP PUSH1 0x20 DUP3 ADD MLOAD DUP2 PUSH1 0x1 ADD SWAP1 DUP2 PUSH2 0x83F SWAP2 SWAP1 PUSH2 0x1276 JUMP JUMPDEST POP POP POP POP POP JUMP JUMPDEST PUSH1 0x60 PUSH0 PUSH1 0x1 PUSH2 0x854 DUP5 PUSH2 0x910 JUMP JUMPDEST ADD SWAP1 POP PUSH0 DUP2 PUSH8 0xFFFFFFFFFFFFFFFF DUP2 GT ISZERO PUSH2 0x872 JUMPI PUSH2 0x871 PUSH2 0xBF0 JUMP JUMPDEST JUMPDEST PUSH1 0x40 MLOAD SWAP1 DUP1 DUP3 MSTORE DUP1 PUSH1 0x1F ADD PUSH1 0x1F NOT AND PUSH1 0x20 ADD DUP3 ADD PUSH1 0x40 MSTORE DUP1 ISZERO PUSH2 0x8A4 JUMPI DUP2 PUSH1 0x20 ADD PUSH1 0x1 DUP3 MUL DUP1 CALLDATASIZE DUP4 CALLDATACOPY DUP1 DUP3 ADD SWAP2 POP POP SWAP1 POP JUMPDEST POP SWAP1 POP PUSH0 DUP3 PUSH1 0x20 DUP4 ADD ADD SWAP1 POP JUMPDEST PUSH1 0x1 ISZERO PUSH2 0x905 JUMPI DUP1 DUP1 PUSH1 0x1 SWAP1 SUB SWAP2 POP POP PUSH32 0x3031323334353637383961626364656600000000000000000000000000000000 PUSH1 0xA DUP7 MOD BYTE DUP2 MSTORE8 PUSH1 0xA DUP6 DUP2 PUSH2 0x8FA JUMPI PUSH2 0x8F9 PUSH2 0x1345 JUMP JUMPDEST JUMPDEST DIV SWAP5 POP PUSH0 DUP6 SUB PUSH2 0x8B1 JUMPI JUMPDEST DUP2 SWAP4 POP POP POP POP SWAP2 SWAP1 POP JUMP JUMPDEST PUSH0 PUSH0 PUSH0 SWAP1 POP PUSH27 0x184F03E93FF9F4DAA797ED6E38ED64BF6A1F010000000000000000 DUP4 LT PUSH2 0x96C JUMPI PUSH27 0x184F03E93FF9F4DAA797ED6E38ED64BF6A1F010000000000000000 DUP4 DUP2 PUSH2 0x962 JUMPI PUSH2 0x961 PUSH2 0x1345 JUMP JUMPDEST JUMPDEST DIV SWAP3 POP PUSH1 0x40 DUP2 ADD SWAP1 POP JUMPDEST PUSH14 0x4EE2D6D415B85ACEF8100000000 DUP4 LT PUSH2 0x9A9 JUMPI PUSH14 0x4EE2D6D415B85ACEF8100000000 DUP4 DUP2 PUSH2 0x99F JUMPI PUSH2 0x99E PUSH2 0x1345 JUMP JUMPDEST JUMPDEST DIV SWAP3 POP PUSH1 0x20 DUP2 ADD SWAP1 POP JUMPDEST PUSH7 0x2386F26FC10000 DUP4 LT PUSH2 0x9D8 JUMPI PUSH7 0x2386F26FC10000 DUP4 DUP2 PUSH2 0x9CE JUMPI PUSH2 0x9CD PUSH2 0x1345 JUMP JUMPDEST JUMPDEST DIV SWAP3 POP PUSH1 0x10 DUP2 ADD SWAP1 POP JUMPDEST PUSH4 0x5F5E100 DUP4 LT PUSH2 0xA01 JUMPI PUSH4 0x5F5E100 DUP4 DUP2 PUSH2 0x9F7 JUMPI PUSH2 0x9F6 PUSH2 0x1345 JUMP JUMPDEST JUMPDEST DIV SWAP3 POP PUSH1 0x8 DUP2 ADD SWAP1 POP JUMPDEST PUSH2 0x2710 DUP4 LT PUSH2 0xA26 JUMPI PUSH2 0x2710 DUP4 DUP2 PUSH2 0xA1C JUMPI PUSH2 0xA1B PUSH2 0x1345 JUMP JUMPDEST JUMPDEST DIV SWAP3 POP PUSH1 0x4 DUP2 ADD SWAP1 POP JUMPDEST PUSH1 0x64 DUP4 LT PUSH2 0xA49 JUMPI PUSH1 0x64 DUP4 DUP2 PUSH2 0xA3F JUMPI PUSH2 0xA3E PUSH2 0x1345 JUMP JUMPDEST JUMPDEST DIV SWAP3 POP PUSH1 0x2 DUP2 ADD SWAP1 POP JUMPDEST PUSH1 0xA DUP4 LT PUSH2 0xA58 JUMPI PUSH1 0x1 DUP2 ADD SWAP1 POP JUMPDEST DUP1 SWAP2 POP POP SWAP2 SWAP1 POP JUMP JUMPDEST PUSH0 PUSH1 0x40 MLOAD SWAP1 POP SWAP1 JUMP JUMPDEST PUSH0 PUSH0 REVERT JUMPDEST PUSH0 PUSH0 REVERT JUMPDEST PUSH0 DUP2 SWAP1 POP SWAP2 SWAP1 POP JUMP JUMPDEST PUSH2 0xA84 DUP2 PUSH2 0xA72 JUMP JUMPDEST DUP2 EQ PUSH2 0xA8E JUMPI PUSH0 PUSH0 REVERT JUMPDEST POP JUMP JUMPDEST PUSH0 DUP2 CALLDATALOAD SWAP1 POP PUSH2 0xA9F DUP2 PUSH2 0xA7B JUMP JUMPDEST SWAP3 SWAP2 POP POP JUMP JUMPDEST PUSH0 PUSH1 0x20 DUP3 DUP5 SUB SLT ISZERO PUSH2 0xABA JUMPI PUSH2 0xAB9 PUSH2 0xA6A JUMP JUMPDEST JUMPDEST PUSH0 PUSH2 0xAC7 DUP5 DUP3 DUP6 ADD PUSH2 0xA91 JUMP JUMPDEST SWAP2 POP POP SWAP3 SWAP2 POP POP JUMP JUMPDEST PUSH2 0xAD9 DUP2 PUSH2 0xA72 JUMP JUMPDEST DUP3 MSTORE POP POP JUMP JUMPDEST PUSH0 PUSH1 0x20 DUP3 ADD SWAP1 POP PUSH2 0xAF2 PUSH0 DUP4 ADD DUP5 PUSH2 0xAD0 JUMP JUMPDEST SWAP3 SWAP2 POP POP JUMP JUMPDEST PUSH0 DUP2 MLOAD SWAP1 POP SWAP2 SWAP1 POP JUMP JUMPDEST PUSH0 DUP3 DUP3 MSTORE PUSH1 0x20 DUP3 ADD SWAP1 POP SWAP3 SWAP2 POP POP JUMP JUMPDEST DUP3 DUP2 DUP4 MCOPY PUSH0 DUP4 DUP4 ADD MSTORE POP POP POP JUMP JUMPDEST PUSH0 PUSH1 0x1F NOT PUSH1 0x1F DUP4 ADD AND SWAP1 POP SWAP2 SWAP1 POP JUMP JUMPDEST PUSH0 PUSH2 0xB3A DUP3 PUSH2 0xAF8 JUMP JUMPDEST PUSH2 0xB44 DUP2 DUP6 PUSH2 0xB02 JUMP JUMPDEST SWAP4 POP PUSH2 0xB54 DUP2 DUP6 PUSH1 0x20 DUP7 ADD PUSH2 0xB12 JUMP JUMPDEST PUSH2 0xB5D DUP2 PUSH2 0xB20 JUMP JUMPDEST DUP5 ADD SWAP2 POP POP SWAP3 SWAP2 POP POP JUMP JUMPDEST PUSH0 PUSH1 0x20 DUP3 ADD SWAP1 POP DUP2 DUP2 SUB PUSH0 DUP4 ADD MSTORE PUSH2 0xB80 DUP2 DUP5 PUSH2 0xB30 JUMP JUMPDEST SWAP1 POP SWAP3 SWAP2 POP POP JUMP JUMPDEST PUSH0 DUP2 ISZERO ISZERO SWAP1 POP SWAP2 SWAP1 POP JUMP JUMPDEST PUSH2 0xB9C DUP2 PUSH2 0xB88 JUMP JUMPDEST DUP2 EQ PUSH2 0xBA6 JUMPI PUSH0 PUSH0 REVERT JUMPDEST POP JUMP JUMPDEST PUSH0 DUP2 CALLDATALOAD SWAP1 POP PUSH2 0xBB7 DUP2 PUSH2 0xB93 JUMP JUMPDEST SWAP3 SWAP2 POP POP JUMP JUMPDEST PUSH0 PUSH1 0x20 DUP3 DUP5 SUB SLT ISZERO PUSH2 0xBD2 JUMPI PUSH2 0xBD1 PUSH2 0xA6A JUMP JUMPDEST JUMPDEST PUSH0 PUSH2 0xBDF DUP5 DUP3 DUP6 ADD PUSH2 0xBA9 JUMP JUMPDEST SWAP2 POP POP SWAP3 SWAP2 POP POP JUMP JUMPDEST PUSH0 PUSH0 REVERT JUMPDEST PUSH0 PUSH0 REVERT JUMPDEST PUSH32 0x4E487B7100000000000000000000000000000000000000000000000000000000 PUSH0 MSTORE PUSH1 0x41 PUSH1 0x4 MSTORE PUSH1 0x24 PUSH0 REVERT JUMPDEST PUSH2 0xC26 DUP3 PUSH2 0xB20 JUMP JUMPDEST DUP2 ADD DUP2 DUP2 LT PUSH8 0xFFFFFFFFFFFFFFFF DUP3 GT OR ISZERO PUSH2 0xC45 JUMPI PUSH2 0xC44 PUSH2 0xBF0 JUMP JUMPDEST JUMPDEST DUP1 PUSH1 0x40 MSTORE POP POP POP JUMP JUMPDEST PUSH0 PUSH2 0xC57 PUSH2 0xA61 JUMP JUMPDEST SWAP1 POP PUSH2 0xC63 DUP3 DUP3 PUSH2 0xC1D JUMP JUMPDEST SWAP2 SWAP1 POP JUMP JUMPDEST PUSH0 PUSH8 0xFFFFFFFFFFFFFFFF DUP3 GT ISZERO PUSH2 0xC82 JUMPI PUSH2 0xC81 PUSH2 0xBF0 JUMP JUMPDEST JUMPDEST PUSH2 0xC8B DUP3 PUSH2 0xB20 JUMP JUMPDEST SWAP1 POP PUSH1 0x20 DUP2 ADD SWAP1 POP SWAP2 SWAP1 POP JUMP JUMPDEST DUP3 DUP2 DUP4 CALLDATACOPY PUSH0 DUP4 DUP4 ADD MSTORE POP POP POP JUMP JUMPDEST PUSH0 PUSH2 0xCB8 PUSH2 0xCB3 DUP5 PUSH2 0xC68 JUMP JUMPDEST PUSH2 0xC4E JUMP JUMPDEST SWAP1 POP DUP3 DUP2 MSTORE PUSH1 0x20 DUP2 ADD DUP5 DUP5 DUP5 ADD GT ISZERO PUSH2 0xCD4 JUMPI PUSH2 0xCD3 PUSH2 0xBEC JUMP JUMPDEST JUMPDEST PUSH2 0xCDF DUP5 DUP3 DUP6 PUSH2 0xC98 JUMP JUMPDEST POP SWAP4 SWAP3 POP POP POP JUMP JUMPDEST PUSH0 DUP3 PUSH1 0x1F DUP4 ADD SLT PUSH2 0xCFB JUMPI PUSH2 0xCFA PUSH2 0xBE8 JUMP JUMPDEST JUMPDEST DUP2 CALLDATALOAD PUSH2 0xD0B DUP5 DUP3 PUSH1 0x20 DUP7 ADD PUSH2 0xCA6 JUMP JUMPDEST SWAP2 POP POP SWAP3 SWAP2 POP POP JUMP JUMPDEST PUSH0 PUSH0 PUSH1 0x40 DUP4 DUP6 SUB SLT ISZERO PUSH2 0xD2A JUMPI PUSH2 0xD29 PUSH2 0xA6A JUMP JUMPDEST JUMPDEST PUSH0 DUP4 ADD CALLDATALOAD PUSH8 0xFFFFFFFFFFFFFFFF DUP2 GT ISZERO PUSH2 0xD47 JUMPI PUSH2 0xD46 PUSH2 0xA6E JUMP JUMPDEST JUMPDEST PUSH2 0xD53 DUP6 DUP3 DUP7 ADD PUSH2 0xCE7 JUMP JUMPDEST SWAP3 POP POP PUSH1 0x20 DUP4 ADD CALLDATALOAD PUSH8 0xFFFFFFFFFFFFFFFF DUP2 GT ISZERO PUSH2 0xD74 JUMPI PUSH2 0xD73 PUSH2 0xA6E JUMP JUMPDEST JUMPDEST PUSH2 0xD80 DUP6 DUP3 DUP7 ADD PUSH2 0xCE7 JUMP JUMPDEST SWAP2 POP POP SWAP3 POP SWAP3 SWAP1 POP JUMP JUMPDEST PUSH32 0x4E487B7100000000000000000000000000000000000000000000000000000000 PUSH0 MSTORE PUSH1 0x11 PUSH1 0x4 MSTORE PUSH1 0x24 PUSH0 REVERT JUMPDEST PUSH0 PUSH2 0xDC1 DUP3 PUSH2 0xA72 JUMP JUMPDEST SWAP2 POP PUSH2 0xDCC DUP4 PUSH2 0xA72 JUMP JUMPDEST SWAP3 POP DUP3 DUP3 ADD SWAP1 POP DUP1 DUP3 GT ISZERO PUSH2 0xDE4 JUMPI PUSH2 0xDE3 PUSH2 0xD8A JUMP JUMPDEST JUMPDEST SWAP3 SWAP2 POP POP JUMP JUMPDEST PUSH0 PUSH20 0xFFFFFFFFFFFFFFFFFFFFFFFFFFFFFFFFFFFFFFFF DUP3 AND SWAP1 POP SWAP2 SWAP1 POP JUMP JUMPDEST PUSH0 PUSH2 0xE13 DUP3 PUSH2 0xDEA JUMP JUMPDEST SWAP1 POP SWAP2 SWAP1 POP JUMP JUMPDEST PUSH2 0xE23 DUP2 PUSH2 0xE09 JUMP JUMPDEST DUP3 MSTORE POP POP JUMP JUMPDEST PUSH0 PUSH1 0x60 DUP3 ADD SWAP1 POP PUSH2 0xE3C PUSH0 DUP4 ADD DUP7 PUSH2 0xAD0 JUMP JUMPDEST PUSH2 0xE49 PUSH1 0x20 DUP4 ADD DUP6 PUSH2 0xE1A JUMP JUMPDEST PUSH2 0xE56 PUSH1 0x40 DUP4 ADD DUP5 PUSH2 0xAD0 JUMP JUMPDEST SWAP5 SWAP4 POP POP POP POP JUMP JUMPDEST PUSH32 0x4E487B7100000000000000000000000000000000000000000000000000000000 PUSH0 MSTORE PUSH1 0x32 PUSH1 0x4 MSTORE PUSH1 0x24 PUSH0 REVERT JUMPDEST PUSH0 DUP2 SWAP1 POP SWAP3 SWAP2 POP POP JUMP JUMPDEST PUSH0 PUSH2 0xE9F DUP3 PUSH2 0xAF8 JUMP JUMPDEST PUSH2 0xEA9 DUP2 DUP6 PUSH2 0xE8B JUMP JUMPDEST SWAP4 POP PUSH2 0xEB9 DUP2 DUP6 PUSH1 0x20 DUP7 ADD PUSH2 0xB12 JUMP JUMPDEST DUP1 DUP5 ADD SWAP2 POP POP SWAP3 SWAP2 POP POP JUMP JUMPDEST PUSH32 0x2920000000000000000000000000000000000000000000000000000000000000 DUP2 MSTORE POP JUMP JUMPDEST PUSH32 0x4E487B7100000000000000000000000000000000000000000000000000000000 PUSH0 MSTORE PUSH1 0x22 PUSH1 0x4 MSTORE PUSH1 0x24 PUSH0 REVERT JUMPDEST PUSH0 PUSH1 0x2 DUP3 DIV SWAP1 POP PUSH1 0x1 DUP3 AND DUP1 PUSH2 0xF2F JUMPI PUSH1 0x7F DUP3 AND SWAP2 POP JUMPDEST PUSH1 0x20 DUP3 LT DUP2 SUB PUSH2 0xF42 JUMPI PUSH2 0xF41 PUSH2 0xEEB JUMP JUMPDEST JUMPDEST POP SWAP2 SWAP1 POP JUMP JUMPDEST PUSH0 DUP2 SWAP1 POP DUP2 PUSH0 MSTORE PUSH1 0x20 PUSH0 KECCAK256 SWAP1 POP SWAP2 SWAP1 POP JUMP JUMPDEST PUSH0 DUP2 SLOAD PUSH2 0xF66 DUP2 PUSH2 0xF18 JUMP JUMPDEST PUSH2 0xF70 DUP2 DUP7 PUSH2 0xE8B JUMP JUMPDEST SWAP5 POP PUSH1 0x1 DUP3 AND PUSH0 DUP2 EQ PUSH2 0xF8A JUMPI PUSH1 0x1 DUP2 EQ PUSH2 0xF9F JUMPI PUSH2 0xFD1 JUMP JUMPDEST PUSH1 0xFF NOT DUP4 AND DUP7 MSTORE DUP2 ISZERO ISZERO DUP3 MUL DUP7 ADD SWAP4 POP PUSH2 0xFD1 JUMP JUMPDEST PUSH2 0xFA8 DUP6 PUSH2 0xF48 JUMP JUMPDEST PUSH0 JUMPDEST DUP4 DUP2 LT ISZERO PUSH2 0xFC9 JUMPI DUP2 SLOAD DUP2 DUP10 ADD MSTORE PUSH1 0x1 DUP3 ADD SWAP2 POP PUSH1 0x20 DUP2 ADD SWAP1 POP PUSH2 0xFAA JUMP JUMPDEST DUP4 DUP9 ADD SWAP6 POP POP POP JUMPDEST POP POP POP SWAP3 SWAP2 POP POP JUMP JUMPDEST PUSH32 0x202D202700000000000000000000000000000000000000000000000000000000 DUP2 MSTORE POP JUMP JUMPDEST PUSH32 0x2720000000000000000000000000000000000000000000000000000000000000 DUP2 MSTORE POP JUMP JUMPDEST PUSH0 PUSH2 0x1031 DUP3 DUP8 PUSH2 0xE95 JUMP JUMPDEST SWAP2 POP PUSH2 0x103D DUP3 DUP7 PUSH2 0xE95 JUMP JUMPDEST SWAP2 POP PUSH2 0x1048 DUP3 PUSH2 0xEC5 JUMP JUMPDEST PUSH1 0x2 DUP3 ADD SWAP2 POP PUSH2 0x1058 DUP3 DUP6 PUSH2 0xF5A JUMP JUMPDEST SWAP2 POP PUSH2 0x1063 DUP3 PUSH2 0xFDA JUMP JUMPDEST PUSH1 0x4 DUP3 ADD SWAP2 POP PUSH2 0x1073 DUP3 DUP5 PUSH2 0xF5A JUMP JUMPDEST SWAP2 POP PUSH2 0x107E DUP3 PUSH2 0x1000 JUMP JUMPDEST PUSH1 0x2 DUP3 ADD SWAP2 POP DUP2 SWAP1 POP SWAP6 SWAP5 POP POP POP POP POP JUMP JUMPDEST PUSH32 0x3A20000000000000000000000000000000000000000000000000000000000000 DUP2 MSTORE POP JUMP JUMPDEST PUSH0 PUSH2 0x10C1 DUP3 DUP6 PUSH2 0xF5A JUMP JUMPDEST SWAP2 POP PUSH2 0x10CC DUP3 PUSH2 0x1090 JUMP JUMPDEST PUSH1 0x2 DUP3 ADD SWAP2 POP PUSH2 0x10DC DUP3 DUP5 PUSH2 0xE95 JUMP JUMPDEST SWAP2 POP DUP2 SWAP1 POP SWAP4 SWAP3 POP POP POP JUMP JUMPDEST PUSH0 PUSH1 0x20 PUSH1 0x1F DUP4 ADD DIV SWAP1 POP SWAP2 SWAP1 POP JUMP JUMPDEST PUSH0 DUP3 DUP3 SHL SWAP1 POP SWAP3 SWAP2 POP POP JUMP JUMPDEST PUSH0 PUSH1 0x8 DUP4 MUL PUSH2 0x1132 PUSH32 0xFFFFFFFFFFFFFFFFFFFFFFFFFFFFFFFFFFFFFFFFFFFFFFFFFFFFFFFFFFFFFFFF DUP3 PUSH2 0x10F7 JUMP JUMPDEST PUSH2 0x113C DUP7 DUP4 PUSH2 0x10F7 JUMP JUMPDEST SWAP6 POP DUP1 NOT DUP5 AND SWAP4 POP DUP1 DUP7 AND DUP5 OR SWAP3 POP POP POP SWAP4 SWAP3 POP POP POP JUMP JUMPDEST PUSH0 DUP2 SWAP1 POP SWAP2 SWAP1 POP JUMP JUMPDEST PUSH0 PUSH2 0x1177 PUSH2 0x1172 PUSH2 0x116D DUP5 PUSH2 0xA72 JUMP JUMPDEST PUSH2 0x1154 JUMP JUMPDEST PUSH2 0xA72 JUMP JUMPDEST SWAP1 POP SWAP2 SWAP1 POP JUMP JUMPDEST PUSH0 DUP2 SWAP1 POP SWAP2 SWAP1 POP JUMP JUMPDEST PUSH2 0x1190 DUP4 PUSH2 0x115D JUMP JUMPDEST PUSH2 0x11A4 PUSH2 0x119C DUP3 PUSH2 0x117E JUMP JUMPDEST DUP5 DUP5 SLOAD PUSH2 0x1103 JUMP JUMPDEST DUP3 SSTORE POP POP POP POP JUMP JUMPDEST PUSH0 PUSH0 SWAP1 POP SWAP1 JUMP JUMPDEST PUSH2 0x11BB PUSH2 0x11AC JUMP JUMPDEST PUSH2 0x11C6 DUP2 DUP5 DUP5 PUSH2 0x1187 JUMP JUMPDEST POP POP POP JUMP JUMPDEST JUMPDEST DUP2 DUP2 LT ISZERO PUSH2 0x11E9 JUMPI PUSH2 0x11DE PUSH0 DUP3 PUSH2 0x11B3 JUMP JUMPDEST PUSH1 0x1 DUP2 ADD SWAP1 POP PUSH2 0x11CC JUMP JUMPDEST POP POP JUMP JUMPDEST PUSH1 0x1F DUP3 GT ISZERO PUSH2 0x122E JUMPI PUSH2 0x11FF DUP2 PUSH2 0xF48 JUMP JUMPDEST PUSH2 0x1208 DUP5 PUSH2 0x10E8 JUMP JUMPDEST DUP2 ADD PUSH1 0x20 DUP6 LT ISZERO PUSH2 0x1217 JUMPI DUP2 SWAP1 POP JUMPDEST PUSH2 0x122B PUSH2 0x1223 DUP6 PUSH2 0x10E8 JUMP JUMPDEST DUP4 ADD DUP3 PUSH2 0x11CB JUMP JUMPDEST POP POP JUMPDEST POP POP POP JUMP JUMPDEST PUSH0 DUP3 DUP3 SHR SWAP1 POP SWAP3 SWAP2 POP POP JUMP JUMPDEST PUSH0 PUSH2 0x124E PUSH0 NOT DUP5 PUSH1 0x8 MUL PUSH2 0x1233 JUMP JUMPDEST NOT DUP1 DUP4 AND SWAP2 POP POP SWAP3 SWAP2 POP POP JUMP JUMPDEST PUSH0 PUSH2 0x1266 DUP4 DUP4 PUSH2 0x123F JUMP JUMPDEST SWAP2 POP DUP3 PUSH1 0x2 MUL DUP3 OR SWAP1 POP SWAP3 SWAP2 POP POP JUMP JUMPDEST PUSH2 0x127F DUP3 PUSH2 0xAF8 JUMP JUMPDEST PUSH8 0xFFFFFFFFFFFFFFFF DUP2 GT ISZERO PUSH2 0x1298 JUMPI PUSH2 0x1297 PUSH2 0xBF0 JUMP JUMPDEST JUMPDEST PUSH2 0x12A2 DUP3 SLOAD PUSH2 0xF18 JUMP JUMPDEST PUSH2 0x12AD DUP3 DUP3 DUP6 PUSH2 0x11ED JUMP JUMPDEST PUSH0 PUSH1 0x20 SWAP1 POP PUSH1 0x1F DUP4 GT PUSH1 0x1 DUP2 EQ PUSH2 0x12DE JUMPI PUSH0 DUP5 ISZERO PUSH2 0x12CC JUMPI DUP3 DUP8 ADD MLOAD SWAP1 POP JUMPDEST PUSH2 0x12D6 DUP6 DUP3 PUSH2 0x125B JUMP JUMPDEST DUP7 SSTORE POP PUSH2 0x133D JUMP JUMPDEST PUSH1 0x1F NOT DUP5 AND PUSH2 0x12EC DUP7 PUSH2 0xF48 JUMP JUMPDEST PUSH0 JUMPDEST DUP3 DUP2 LT ISZERO PUSH2 0x1313 JUMPI DUP5 DUP10 ADD MLOAD DUP3 SSTORE PUSH1 0x1 DUP3 ADD SWAP2 POP PUSH1 0x20 DUP6 ADD SWAP5 POP PUSH1 0x20 DUP2 ADD SWAP1 POP PUSH2 0x12EE JUMP JUMPDEST DUP7 DUP4 LT ISZERO PUSH2 0x1330 JUMPI DUP5 DUP10 ADD MLOAD PUSH2 0x132C PUSH1 0x1F DUP10 AND DUP3 PUSH2 0x123F JUMP JUMPDEST DUP4 SSTORE POP JUMPDEST PUSH1 0x1 PUSH1 0x2 DUP9 MUL ADD DUP9 SSTORE POP POP POP JUMPDEST POP POP POP POP POP POP JUMP JUMPDEST PUSH32 0x4E487B7100000000000000000000000000000000000000000000000000000000 PUSH0 MSTORE PUSH1 0x12 PUSH1 0x4 MSTORE PUSH1 0x24 PUSH0 REVERT INVALID LOG2 PUSH5 0x6970667358 0x22 SLT KECCAK256 0xE8 COINBASE GAS 0xAE SWAP1 PUSH24 0x3B73CA0D30B68F90AA4041408AEFE040CF20CF301A0EB2FD PUSH19 0x1C64736F6C634300081E003300000000000000 "
				},
				"gasEstimates": {
					"creation": {
						"codeDepositCost": "1006400",
						"executionCost": "infinite",
						"totalCost": "infinite"
					},
					"external": {
						"addPresident(string,string)": "infinite",
						"addVotingTime(uint256)": "infinite",
						"getLeaderIndex()": "infinite",
						"getPresidentsInfoString()": "infinite",
						"getVotesOfPresident(uint256)": "infinite",
						"maxVotes()": "2447",
						"setStateOfVoting(bool)": "26891",
						"totalVotes()": "2448",
						"vote(uint256)": "infinite"
					}
				},
				"methodIdentifiers": {
					"addPresident(string,string)": "be82d07d",
					"addVotingTime(uint256)": "2f6d1581",
					"getLeaderIndex()": "92bc5e2b",
					"getPresidentsInfoString()": "22c17e05",
					"getVotesOfPresident(uint256)": "7a1edd77",
					"maxVotes()": "777c3acf",
					"setStateOfVoting(bool)": "59a6026d",
					"totalVotes()": "0d15fd77",
					"vote(uint256)": "0121b93f"
				}
			},
			"storageLayout": {
				"storage": [
					{
						"astId": 4994,
						"contract": "vote.sol:Election",
						"label": "isActiveVoting",
						"offset": 0,
						"slot": "0",
						"type": "t_bool"
					},
					{
						"astId": 4996,
						"contract": "vote.sol:Election",
						"label": "owner",
						"offset": 1,
						"slot": "0",
						"type": "t_address"
					},
					{
						"astId": 4998,
						"contract": "vote.sol:Election",
						"label": "maxVotes",
						"offset": 0,
						"slot": "1",
						"type": "t_uint256"
					},
					{
						"astId": 5001,
						"contract": "vote.sol:Election",
						"label": "totalVotes",
						"offset": 0,
						"slot": "2",
						"type": "t_uint256"
					},
					{
						"astId": 5003,
						"contract": "vote.sol:Election",
						"label": "electionCompletionTime",
						"offset": 0,
						"slot": "3",
						"type": "t_uint256"
					},
					{
						"astId": 5007,
						"contract": "vote.sol:Election",
						"label": "presidents",
						"offset": 0,
						"slot": "4",
						"type": "t_array(t_struct(President)4991_storage)dyn_storage"
					},
					{
						"astId": 5011,
						"contract": "vote.sol:Election",
						"label": "isAddressVote",
						"offset": 0,
						"slot": "5",
						"type": "t_mapping(t_address,t_bool)"
					},
					{
						"astId": 5015,
						"contract": "vote.sol:Election",
						"label": "votes",
						"offset": 0,
						"slot": "6",
						"type": "t_mapping(t_uint256,t_uint256)"
					}
				],
				"types": {
					"t_address": {
						"encoding": "inplace",
						"label": "address",
						"numberOfBytes": "20"
					},
					"t_array(t_struct(President)4991_storage)dyn_storage": {
						"base": "t_struct(President)4991_storage",
						"encoding": "dynamic_array",
						"label": "struct Election.President[]",
						"numberOfBytes": "32"
					},
					"t_bool": {
						"encoding": "inplace",
						"label": "bool",
						"numberOfBytes": "1"
					},
					"t_mapping(t_address,t_bool)": {
						"encoding": "mapping",
						"key": "t_address",
						"label": "mapping(address => bool)",
						"numberOfBytes": "32",
						"value": "t_bool"
					},
					"t_mapping(t_uint256,t_uint256)": {
						"encoding": "mapping",
						"key": "t_uint256",
						"label": "mapping(uint256 => uint256)",
						"numberOfBytes": "32",
						"value": "t_uint256"
					},
					"t_string_storage": {
						"encoding": "bytes",
						"label": "string",
						"numberOfBytes": "32"
					},
					"t_struct(President)4991_storage": {
						"encoding": "inplace",
						"label": "struct Election.President",
						"members": [
							{
								"astId": 4988,
								"contract": "vote.sol:Election",
								"label": "name",
								"offset": 0,
								"slot": "0",
								"type": "t_string_storage"
							},
							{
								"astId": 4990,
								"contract": "vote.sol:Election",
								"label": "description",
								"offset": 0,
								"slot": "1",
								"type": "t_string_storage"
							}
						],
						"numberOfBytes": "64"
					},
					"t_uint256": {
						"encoding": "inplace",
						"label": "uint256",
						"numberOfBytes": "32"
					}
				}
			},
			"userdoc": {
				"kind": "user",
				"methods": {},
				"version": 1
			}
		}
	}
}