{
	"data": {
		"bytecode": {
			"linkReferences": {},
			"object": "608060405260015f5f6101000a81548160ff0219169083151502179055505f60025534801561002c575f5ffd5b50604051611ccc380380611ccc833981810160405281019061004e9190610510565b81600181905550335f60016101000a81548173ffffffffffffffffffffffffffffffffffffffff021916908373ffffffffffffffffffffffffffffffffffffffff16021790555080426100a191906105a9565b6003819055505f835190505f81116101325761012d6040518060400160405280600481526020017f4a6f686e000000000000000000000000000000000000000000000000000000008152506040518060400160405280601b81526020017f536f6d65206465736372697074696f6e2061626f7574204a6f686e00000000008152506101b460201b60201c565b6101ab565b5f5b818162ffffff1610156101a957610196858262ffffff168151811061015c5761015b6105dc565b5b60200260200101515f0151868362ffffff168151811061017f5761017e6105dc565b5b6020026020010151602001516101b460201b60201c565b80806101a190610617565b915050610134565b505b50505050610917565b6004604051806040016040528084815260200183815250908060018154018082558091505060019003905f5260205f2090600202015f909190919091505f820151815f0190816102049190610848565b50602082015181600101908161021a9190610848565b5050505050565b5f604051905090565b5f5ffd5b5f5ffd5b5f5ffd5b5f601f19601f8301169050919050565b7f4e487b71000000000000000000000000000000000000000000000000000000005f52604160045260245ffd5b61027c82610236565b810181811067ffffffffffffffff8211171561029b5761029a610246565b5b80604052505050565b5f6102ad610221565b90506102b98282610273565b919050565b5f67ffffffffffffffff8211156102d8576102d7610246565b5b602082029050602081019050919050565b5f5ffd5b5f5ffd5b5f5ffd5b5f5ffd5b5f67ffffffffffffffff82111561031357610312610246565b5b61031c82610236565b9050602081019050919050565b8281835e5f83830152505050565b5f610349610344846102f9565b6102a4565b905082815260208101848484011115610365576103646102f5565b5b610370848285610329565b509392505050565b5f82601f83011261038c5761038b610232565b5b815161039c848260208601610337565b91505092915050565b5f604082840312156103ba576103b96102ed565b5b6103c460406102a4565b90505f82015167ffffffffffffffff8111156103e3576103e26102f1565b5b6103ef84828501610378565b5f83015250602082015167ffffffffffffffff811115610412576104116102f1565b5b61041e84828501610378565b60208301525092915050565b5f61043c610437846102be565b6102a4565b9050808382526020820190506020840283018581111561045f5761045e6102e9565b5b835b818110156104a657805167ffffffffffffffff81111561048457610483610232565b5b80860161049189826103a5565b85526020850194505050602081019050610461565b5050509392505050565b5f82601f8301126104c4576104c3610232565b5b81516104d484826020860161042a565b91505092915050565b5f819050919050565b6104ef816104dd565b81146104f9575f5ffd5b50565b5f8151905061050a816104e6565b92915050565b5f5f5f606084860312156105275761052661022a565b5b5f84015167ffffffffffffffff8111156105445761054361022e565b5b610550868287016104b0565b9350506020610561868287016104fc565b9250506040610572868287016104fc565b9150509250925092565b7f4e487b71000000000000000000000000000000000000000000000000000000005f52601160045260245ffd5b5f6105b3826104dd565b91506105be836104dd565b92508282019050808211156105d6576105d561057c565b5b92915050565b7f4e487b71000000000000000000000000000000000000000000000000000000005f52603260045260245ffd5b5f62ffffff82169050919050565b5f61062182610609565b915062ffffff82036106365761063561057c565b5b600182019050919050565b5f81519050919050565b7f4e487b71000000000000000000000000000000000000000000000000000000005f52602260045260245ffd5b5f600282049050600182168061068f57607f821691505b6020821081036106a2576106a161064b565b5b50919050565b5f819050815f5260205f209050919050565b5f6020601f8301049050919050565b5f82821b905092915050565b5f600883026107047fffffffffffffffffffffffffffffffffffffffffffffffffffffffffffffffff826106c9565b61070e86836106c9565b95508019841693508086168417925050509392505050565b5f819050919050565b5f61074961074461073f846104dd565b610726565b6104dd565b9050919050565b5f819050919050565b6107628361072f565b61077661076e82610750565b8484546106d5565b825550505050565b5f5f905090565b61078d61077e565b610798818484610759565b505050565b5b818110156107bb576107b05f82610785565b60018101905061079e565b5050565b601f821115610800576107d1816106a8565b6107da846106ba565b810160208510156107e9578190505b6107fd6107f5856106ba565b83018261079d565b50505b505050565b5f82821c905092915050565b5f6108205f1984600802610805565b1980831691505092915050565b5f6108388383610811565b9150826002028217905092915050565b61085182610641565b67ffffffffffffffff81111561086a57610869610246565b5b6108748254610678565b61087f8282856107bf565b5f60209050601f8311600181146108b0575f841561089e578287015190505b6108a8858261082d565b86555061090f565b601f1984166108be866106a8565b5f5b828110156108e5578489015182556001820191506020850194506020810190506108c0565b8683101561090257848901516108fe601f891682610811565b8355505b6001600288020188555050505b505050505050565b6113a8806109245f395ff3fe608060405234801561000f575f5ffd5b5060043610610091575f3560e01c806359a6026d1161006457806359a6026d14610109578063777c3acf146101255780637a1edd771461014357806392bc5e2b14610173578063be82d07d1461019157610091565b80630121b93f146100955780630d15fd77146100b157806322c17e05146100cf5780632f6d1581146100ed575b5f5ffd5b6100af60048036038101906100aa9190610aa5565b6101ad565b005b6100b96104c1565b6040516100c69190610adf565b60405180910390f35b6100d76104c7565b6040516100e49190610b68565b60405180910390f35b61010760048036038101906101029190610aa5565b61057a565b005b610123600480360381019061011e9190610bbd565b61061b565b005b61012d6106bc565b60405161013a9190610adf565b60405180910390f35b61015d60048036038101906101589190610aa5565b6106c2565b60405161016a9190610b68565b60405180910390f35b61017b610777565b6040516101889190610adf565b60405180910390f35b6101ab60048036038101906101a69190610d14565b6107d9565b005b600115155f5f9054906101000a900460ff161515146101f8576040517f3c7769f400000000000000000000000000000000000000000000000000000000815260040160405180910390fd5b3373ffffffffffffffffffffffffffffffffffffffff165f60019054906101000a900473ffffffffffffffffffffffffffffffffffffffff1673ffffffffffffffffffffffffffffffffffffffff160361027e576040517fb47bf5f800000000000000000000000000000000000000000000000000000000815260040160405180910390fd5b60015460025410600154906102c9576040517f11e7fc560000000000000000000000000000000000000000000000000000000081526004016102c09190610adf565b60405180910390fd5b5060035442111560035490610314576040517f8f9a963d00000000000000000000000000000000000000000000000000000000815260040161030b9190610adf565b60405180910390fd5b505f151560055f3373ffffffffffffffffffffffffffffffffffffffff1673ffffffffffffffffffffffffffffffffffffffff1681526020019081526020015f205f9054906101000a900460ff1615151461039b576040517f1f601b3f00000000000000000000000000000000000000000000000000000000815260040160405180910390fd5b6004805490508110600480549050906103ea576040517fcd6d071e0000000000000000000000000000000000000000000000000000000081526004016103e19190610adf565b60405180910390fd5b50600160055f3373ffffffffffffffffffffffffffffffffffffffff1673ffffffffffffffffffffffffffffffffffffffff1681526020019081526020015f205f6101000a81548160ff021916908315150217905550600160065f8381526020019081526020015f205f8282546104619190610db7565b92505081905550600160025f82825461047a9190610db7565b925050819055507fb613bb210e5ca6fd5d7bdb566e84384049d0bb0a23d9c416438a31a95826c1ab81336002546040516104b693929190610e29565b60405180910390a150565b60025481565b60605f60048054905090505f60405180602001604052805f81525090505f5f90505b8281101561057157816104fb82610846565b6004838154811061050f5761050e610e5e565b5b905f5260205f2090600202015f016004848154811061053157610530610e5e565b5b905f5260205f2090600202016001016040516020016105539493929190611026565b604051602081830303815290604052915080806001019150506104e9565b50809250505090565b3373ffffffffffffffffffffffffffffffffffffffff165f60019054906101000a900473ffffffffffffffffffffffffffffffffffffffff1673ffffffffffffffffffffffffffffffffffffffff1614610600576040517feabd223e00000000000000000000000000000000000000000000000000000000815260040160405180910390fd5b8060035f8282546106119190610db7565b9250508190555050565b3373ffffffffffffffffffffffffffffffffffffffff165f60019054906101000a900473ffffffffffffffffffffffffffffffffffffffff1673ffffffffffffffffffffffffffffffffffffffff16146106a1576040517feabd223e00000000000000000000000000000000000000000000000000000000815260040160405180910390fd5b805f5f6101000a81548160ff02191690831515021790555050565b60015481565b6060600480549050821060048054905090610713576040517fcd6d071e00000000000000000000000000000000000000000000000000000000815260040161070a9190610adf565b60405180910390fd5b506004828154811061072857610727610e5e565b5b905f5260205f2090600202015f0161075060065f8581526020019081526020015f2054610846565b6040516020016107619291906110b6565b6040516020818303038152906040529050919050565b5f5f5f90505f5f90505f5f90505b6004805490508110156107d0578260065f8381526020019081526020015f205411156107c35760065f8281526020019081526020015f205492508091505b8080600101915050610785565b50809250505090565b6004604051806040016040528084815260200183815250908060018154018082558091505060019003905f5260205f2090600202015f909190919091505f820151815f0190816108299190611276565b50602082015181600101908161083f9190611276565b5050505050565b60605f600161085484610910565b0190505f8167ffffffffffffffff81111561087257610871610bf0565b5b6040519080825280601f01601f1916602001820160405280156108a45781602001600182028036833780820191505090505b5090505f82602083010190505b600115610905578080600190039150507f3031323334353637383961626364656600000000000000000000000000000000600a86061a8153600a85816108fa576108f9611345565b5b0494505f85036108b1575b819350505050919050565b5f5f5f90507a184f03e93ff9f4daa797ed6e38ed64bf6a1f010000000000000000831061096c577a184f03e93ff9f4daa797ed6e38ed64bf6a1f010000000000000000838161096257610961611345565b5b0492506040810190505b6d04ee2d6d415b85acef810000000083106109a9576d04ee2d6d415b85acef8100000000838161099f5761099e611345565b5b0492506020810190505b662386f26fc1000083106109d857662386f26fc1000083816109ce576109cd611345565b5b0492506010810190505b6305f5e1008310610a01576305f5e10083816109f7576109f6611345565b5b0492506008810190505b6127108310610a26576127108381610a1c57610a1b611345565b5b0492506004810190505b60648310610a495760648381610a3f57610a3e611345565b5b0492506002810190505b600a8310610a58576001810190505b80915050919050565b5f604051905090565b5f5ffd5b5f5ffd5b5f819050919050565b610a8481610a72565b8114610a8e575f5ffd5b50565b5f81359050610a9f81610a7b565b92915050565b5f60208284031215610aba57610ab9610a6a565b5b5f610ac784828501610a91565b91505092915050565b610ad981610a72565b82525050565b5f602082019050610af25f830184610ad0565b92915050565b5f81519050919050565b5f82825260208201905092915050565b8281835e5f83830152505050565b5f601f19601f8301169050919050565b5f610b3a82610af8565b610b448185610b02565b9350610b54818560208601610b12565b610b5d81610b20565b840191505092915050565b5f6020820190508181035f830152610b808184610b30565b905092915050565b5f8115159050919050565b610b9c81610b88565b8114610ba6575f5ffd5b50565b5f81359050610bb781610b93565b92915050565b5f60208284031215610bd257610bd1610a6a565b5b5f610bdf84828501610ba9565b91505092915050565b5f5ffd5b5f5ffd5b7f4e487b71000000000000000000000000000000000000000000000000000000005f52604160045260245ffd5b610c2682610b20565b810181811067ffffffffffffffff82111715610c4557610c44610bf0565b5b80604052505050565b5f610c57610a61565b9050610c638282610c1d565b919050565b5f67ffffffffffffffff821115610c8257610c81610bf0565b5b610c8b82610b20565b9050602081019050919050565b828183375f83830152505050565b5f610cb8610cb384610c68565b610c4e565b905082815260208101848484011115610cd457610cd3610bec565b5b610cdf848285610c98565b509392505050565b5f82601f830112610cfb57610cfa610be8565b5b8135610d0b848260208601610ca6565b91505092915050565b5f5f60408385031215610d2a57610d29610a6a565b5b5f83013567ffffffffffffffff811115610d4757610d46610a6e565b5b610d5385828601610ce7565b925050602083013567ffffffffffffffff811115610d7457610d73610a6e565b5b610d8085828601610ce7565b9150509250929050565b7f4e487b71000000000000000000000000000000000000000000000000000000005f52601160045260245ffd5b5f610dc182610a72565b9150610dcc83610a72565b9250828201905080821115610de457610de3610d8a565b5b92915050565b5f73ffffffffffffffffffffffffffffffffffffffff82169050919050565b5f610e1382610dea565b9050919050565b610e2381610e09565b82525050565b5f606082019050610e3c5f830186610ad0565b610e496020830185610e1a565b610e566040830184610ad0565b949350505050565b7f4e487b71000000000000000000000000000000000000000000000000000000005f52603260045260245ffd5b5f81905092915050565b5f610e9f82610af8565b610ea98185610e8b565b9350610eb9818560208601610b12565b80840191505092915050565b7f2920000000000000000000000000000000000000000000000000000000000000815250565b7f4e487b71000000000000000000000000000000000000000000000000000000005f52602260045260245ffd5b5f6002820490506001821680610f2f57607f821691505b602082108103610f4257610f41610eeb565b5b50919050565b5f819050815f5260205f209050919050565b5f8154610f6681610f18565b610f708186610e8b565b9450600182165f8114610f8a5760018114610f9f57610fd1565b60ff1983168652811515820286019350610fd1565b610fa885610f48565b5f5b83811015610fc957815481890152600182019150602081019050610faa565b838801955050505b50505092915050565b7f202d202700000000000000000000000000000000000000000000000000000000815250565b7f2720000000000000000000000000000000000000000000000000000000000000815250565b5f6110318287610e95565b915061103d8286610e95565b915061104882610ec5565b6002820191506110588285610f5a565b915061106382610fda565b6004820191506110738284610f5a565b915061107e82611000565b60028201915081905095945050505050565b7f3a20000000000000000000000000000000000000000000000000000000000000815250565b5f6110c18285610f5a565b91506110cc82611090565b6002820191506110dc8284610e95565b91508190509392505050565b5f6020601f8301049050919050565b5f82821b905092915050565b5f600883026111327fffffffffffffffffffffffffffffffffffffffffffffffffffffffffffffffff826110f7565b61113c86836110f7565b95508019841693508086168417925050509392505050565b5f819050919050565b5f61117761117261116d84610a72565b611154565b610a72565b9050919050565b5f819050919050565b6111908361115d565b6111a461119c8261117e565b848454611103565b825550505050565b5f5f905090565b6111bb6111ac565b6111c6818484611187565b505050565b5b818110156111e9576111de5f826111b3565b6001810190506111cc565b5050565b601f82111561122e576111ff81610f48565b611208846110e8565b81016020851015611217578190505b61122b611223856110e8565b8301826111cb565b50505b505050565b5f82821c905092915050565b5f61124e5f1984600802611233565b1980831691505092915050565b5f611266838361123f565b9150826002028217905092915050565b61127f82610af8565b67ffffffffffffffff81111561129857611297610bf0565b5b6112a28254610f18565b6112ad8282856111ed565b5f60209050601f8311600181146112de575f84156112cc578287015190505b6112d6858261125b565b86555061133d565b601f1984166112ec86610f48565b5f5b82811015611313578489015182556001820191506020850194506020810190506112ee565b86831015611330578489015161132c601f89168261123f565b8355505b6001600288020188555050505b505050505050565b7f4e487b71000000000000000000000000000000000000000000000000000000005f52601260045260245ffdfea2646970667358221220e8415aae90773b73ca0d30b68f90aa4041408aefe040cf20cf301a0eb2fd721c64736f6c634300081e0033",
			"opcodes": "PUSH1 0x80 PUSH1 0x40 MSTORE PUSH1 0x1 PUSH0 PUSH0 PUSH2 0x100 EXP DUP2 SLOAD DUP2 PUSH1 0xFF MUL NOT AND SWAP1 DUP4 ISZERO ISZERO MUL OR SWAP1 SSTORE POP PUSH0 PUSH1 0x2 SSTORE CALLVALUE DUP1 ISZERO PUSH2 0x2C JUMPI PUSH0 PUSH0 REVERT JUMPDEST POP PUSH1 0x40 MLOAD PUSH2 0x1CCC CODESIZE SUB DUP1 PUSH2 0x1CCC DUP4 CODECOPY DUP2 DUP2 ADD PUSH1 0x40 MSTORE DUP2 ADD SWAP1 PUSH2 0x4E SWAP2 SWAP1 PUSH2 0x510 JUMP JUMPDEST DUP2 PUSH1 0x1 DUP2 SWAP1 SSTORE POP CALLER PUSH0 PUSH1 0x1 PUSH2 0x100 EXP DUP2 SLOAD DUP2 PUSH20 0xFFFFFFFFFFFFFFFFFFFFFFFFFFFFFFFFFFFFFFFF MUL NOT AND SWAP1 DUP4 PUSH20 0xFFFFFFFFFFFFFFFFFFFFFFFFFFFFFFFFFFFFFFFF AND MUL OR SWAP1 SSTORE POP DUP1 TIMESTAMP PUSH2 0xA1 SWAP2 SWAP1 PUSH2 0x5A9 JUMP JUMPDEST PUSH1 0x3 DUP2 SWAP1 SSTORE POP PUSH0 DUP4 MLOAD SWAP1 POP PUSH0 DUP2 GT PUSH2 0x132 JUMPI PUSH2 0x12D PUSH1 0x40 MLOAD DUP1 PUSH1 0x40 ADD PUSH1 0x40 MSTORE DUP1 PUSH1 0x4 DUP2 MSTORE PUSH1 0x20 ADD PUSH32 0x4A6F686E00000000000000000000000000000000000000000000000000000000 DUP2 MSTORE POP PUSH1 0x40 MLOAD DUP1 PUSH1 0x40 ADD PUSH1 0x40 MSTORE DUP1 PUSH1 0x1B DUP2 MSTORE PUSH1 0x20 ADD PUSH32 0x536F6D65206465736372697074696F6E2061626F7574204A6F686E0000000000 DUP2 MSTORE POP PUSH2 0x1B4 PUSH1 0x20 SHL PUSH1 0x20 SHR JUMP JUMPDEST PUSH2 0x1AB JUMP JUMPDEST PUSH0 JUMPDEST DUP2 DUP2 PUSH3 0xFFFFFF AND LT ISZERO PUSH2 0x1A9 JUMPI PUSH2 0x196 DUP6 DUP3 PUSH3 0xFFFFFF AND DUP2 MLOAD DUP2 LT PUSH2 0x15C JUMPI PUSH2 0x15B PUSH2 0x5DC JUMP JUMPDEST JUMPDEST PUSH1 0x20 MUL PUSH1 0x20 ADD ADD MLOAD PUSH0 ADD MLOAD DUP7 DUP4 PUSH3 0xFFFFFF AND DUP2 MLOAD DUP2 LT PUSH2 0x17F JUMPI PUSH2 0x17E PUSH2 0x5DC JUMP JUMPDEST JUMPDEST PUSH1 0x20 MUL PUSH1 0x20 ADD ADD MLOAD PUSH1 0x20 ADD MLOAD PUSH2 0x1B4 PUSH1 0x20 SHL PUSH1 0x20 SHR JUMP JUMPDEST DUP1 DUP1 PUSH2 0x1A1 SWAP1 PUSH2 0x617 JUMP JUMPDEST SWAP2 POP POP PUSH2 0x134 JUMP JUMPDEST POP JUMPDEST POP POP POP POP PUSH2 0x917 JUMP JUMPDEST PUSH1 0x4 PUSH1 0x40 MLOAD DUP1 PUSH1 0x40 ADD PUSH1 0x40 MSTORE DUP1 DUP5 DUP2 MSTORE PUSH1 0x20 ADD DUP4 DUP2 MSTORE POP SWAP1 DUP1 PUSH1 0x1 DUP2 SLOAD ADD DUP1 DUP3 SSTORE DUP1 SWAP2 POP POP PUSH1 0x1 SWAP1 SUB SWAP1 PUSH0 MSTORE PUSH1 0x20 PUSH0 KECCAK256 SWAP1 PUSH1 0x2 MUL ADD PUSH0 SWAP1 SWAP2 SWAP1 SWAP2 SWAP1 SWAP2 POP PUSH0 DUP3 ADD MLOAD DUP2 PUSH0 ADD SWAP1 DUP2 PUSH2 0x204 SWAP2 SWAP1 PUSH2 0x848 JUMP JUMPDEST POP PUSH1 0x20 DUP3 ADD MLOAD DUP2 PUSH1 0x1 ADD SWAP1 DUP2 PUSH2 0x21A SWAP2 SWAP1 PUSH2 0x848 JUMP JUMPDEST POP POP POP POP POP JUMP JUMPDEST PUSH0 PUSH1 0x40 MLOAD SWAP1 POP SWAP1 JUMP JUMPDEST PUSH0 PUSH0 REVERT JUMPDEST PUSH0 PUSH0 REVERT JUMPDEST PUSH0 PUSH0 REVERT JUMPDEST PUSH0 PUSH1 0x1F NOT PUSH1 0x1F DUP4 ADD AND SWAP1 POP SWAP2 SWAP1 POP JUMP JUMPDEST PUSH32 0x4E487B7100000000000000000000000000000000000000000000000000000000 PUSH0 MSTORE PUSH1 0x41 PUSH1 0x4 MSTORE PUSH1 0x24 PUSH0 REVERT JUMPDEST PUSH2 0x27C DUP3 PUSH2 0x236 JUMP JUMPDEST DUP2 ADD DUP2 DUP2 LT PUSH8 0xFFFFFFFFFFFFFFFF DUP3 GT OR ISZERO PUSH2 0x29B JUMPI PUSH2 0x29A PUSH2 0x246 JUMP JUMPDEST JUMPDEST DUP1 PUSH1 0x40 MSTORE POP POP POP JUMP JUMPDEST PUSH0 PUSH2 0x2AD PUSH2 0x221 JUMP JUMPDEST SWAP1 POP PUSH2 0x2B9 DUP3 DUP3 PUSH2 0x273 JUMP JUMPDEST SWAP2 SWAP1 POP JUMP JUMPDEST PUSH0 PUSH8 0xFFFFFFFFFFFFFFFF DUP3 GT ISZERO PUSH2 0x2D8 JUMPI PUSH2 0x2D7 PUSH2 0x246 JUMP JUMPDEST JUMPDEST PUSH1 0x20 DUP3 MUL SWAP1 POP PUSH1 0x20 DUP2 ADD SWAP1 POP SWAP2 SWAP1 POP JUMP JUMPDEST PUSH0 PUSH0 REVERT JUMPDEST PUSH0 PUSH0 REVERT JUMPDEST PUSH0 PUSH0 REVERT JUMPDEST PUSH0 PUSH0 REVERT JUMPDEST PUSH0 PUSH8 0xFFFFFFFFFFFFFFFF DUP3 GT ISZERO PUSH2 0x313 JUMPI PUSH2 0x312 PUSH2 0x246 JUMP JUMPDEST JUMPDEST PUSH2 0x31C DUP3 PUSH2 0x236 JUMP JUMPDEST SWAP1 POP PUSH1 0x20 DUP2 ADD SWAP1 POP SWAP2 SWAP1 POP JUMP JUMPDEST DUP3 DUP2 DUP4 MCOPY PUSH0 DUP4 DUP4 ADD MSTORE POP POP POP JUMP JUMPDEST PUSH0 PUSH2 0x349 PUSH2 0x344 DUP5 PUSH2 0x2F9 JUMP JUMPDEST PUSH2 0x2A4 JUMP JUMPDEST SWAP1 POP DUP3 DUP2 MSTORE PUSH1 0x20 DUP2 ADD DUP5 DUP5 DUP5 ADD GT ISZERO PUSH2 0x365 JUMPI PUSH2 0x364 PUSH2 0x2F5 JUMP JUMPDEST JUMPDEST PUSH2 0x370 DUP5 DUP3 DUP6 PUSH2 0x329 JUMP JUMPDEST POP SWAP4 SWAP3 POP POP POP JUMP JUMPDEST PUSH0 DUP3 PUSH1 0x1F DUP4 ADD SLT PUSH2 0x38C JUMPI PUSH2 0x38B PUSH2 0x232 JUMP JUMPDEST JUMPDEST DUP2 MLOAD PUSH2 0x39C DUP5 DUP3 PUSH1 0x20 DUP7 ADD PUSH2 0x337 JUMP JUMPDEST SWAP2 POP POP SWAP3 SWAP2 POP POP JUMP JUMPDEST PUSH0 PUSH1 0x40 DUP3 DUP5 SUB SLT ISZERO PUSH2 0x3BA JUMPI PUSH2 0x3B9 PUSH2 0x2ED JUMP JUMPDEST JUMPDEST PUSH2 0x3C4 PUSH1 0x40 PUSH2 0x2A4 JUMP JUMPDEST SWAP1 POP PUSH0 DUP3 ADD MLOAD PUSH8 0xFFFFFFFFFFFFFFFF DUP2 GT ISZERO PUSH2 0x3E3 JUMPI PUSH2 0x3E2 PUSH2 0x2F1 JUMP JUMPDEST JUMPDEST PUSH2 0x3EF DUP5 DUP3 DUP6 ADD PUSH2 0x378 JUMP JUMPDEST PUSH0 DUP4 ADD MSTORE POP PUSH1 0x20 DUP3 ADD MLOAD PUSH8 0xFFFFFFFFFFFFFFFF DUP2 GT ISZERO PUSH2 0x412 JUMPI PUSH2 0x411 PUSH2 0x2F1 JUMP JUMPDEST JUMPDEST PUSH2 0x41E DUP5 DUP3 DUP6 ADD PUSH2 0x378 JUMP JUMPDEST PUSH1 0x20 DUP4 ADD MSTORE POP SWAP3 SWAP2 POP POP JUMP JUMPDEST PUSH0 PUSH2 0x43C PUSH2 0x437 DUP5 PUSH2 0x2BE JUMP JUMPDEST PUSH2 0x2A4 JUMP JUMPDEST SWAP1 POP DUP1 DUP4 DUP3 MSTORE PUSH1 0x20 DUP3 ADD SWAP1 POP PUSH1 0x20 DUP5 MUL DUP4 ADD DUP6 DUP2 GT ISZERO PUSH2 0x45F JUMPI PUSH2 0x45E PUSH2 0x2E9 JUMP JUMPDEST JUMPDEST DUP4 JUMPDEST DUP2 DUP2 LT ISZERO PUSH2 0x4A6 JUMPI DUP1 MLOAD PUSH8 0xFFFFFFFFFFFFFFFF DUP2 GT ISZERO PUSH2 0x484 JUMPI PUSH2 0x483 PUSH2 0x232 JUMP JUMPDEST JUMPDEST DUP1 DUP7 ADD PUSH2 0x491 DUP10 DUP3 PUSH2 0x3A5 JUMP JUMPDEST DUP6 MSTORE PUSH1 0x20 DUP6 ADD SWAP5 POP POP POP PUSH1 0x20 DUP2 ADD SWAP1 POP PUSH2 0x461 JUMP JUMPDEST POP POP POP SWAP4 SWAP3 POP POP POP JUMP JUMPDEST PUSH0 DUP3 PUSH1 0x1F DUP4 ADD SLT PUSH2 0x4C4 JUMPI PUSH2 0x4C3 PUSH2 0x232 JUMP JUMPDEST JUMPDEST DUP2 MLOAD PUSH2 0x4D4 DUP5 DUP3 PUSH1 0x20 DUP7 ADD PUSH2 0x42A JUMP JUMPDEST SWAP2 POP POP SWAP3 SWAP2 POP POP JUMP JUMPDEST PUSH0 DUP2 SWAP1 POP SWAP2 SWAP1 POP JUMP JUMPDEST PUSH2 0x4EF DUP2 PUSH2 0x4DD JUMP JUMPDEST DUP2 EQ PUSH2 0x4F9 JUMPI PUSH0 PUSH0 REVERT JUMPDEST POP JUMP JUMPDEST PUSH0 DUP2 MLOAD SWAP1 POP PUSH2 0x50A DUP2 PUSH2 0x4E6 JUMP JUMPDEST SWAP3 SWAP2 POP POP JUMP JUMPDEST PUSH0 PUSH0 PUSH0 PUSH1 0x60 DUP5 DUP7 SUB SLT ISZERO PUSH2 0x527 JUMPI PUSH2 0x526 PUSH2 0x22A JUMP JUMPDEST JUMPDEST PUSH0 DUP5 ADD MLOAD PUSH8 0xFFFFFFFFFFFFFFFF DUP2 GT ISZERO PUSH2 0x544 JUMPI PUSH2 0x543 PUSH2 0x22E JUMP JUMPDEST JUMPDEST PUSH2 0x550 DUP7 DUP3 DUP8 ADD PUSH2 0x4B0 JUMP JUMPDEST SWAP4 POP POP PUSH1 0x20 PUSH2 0x561 DUP7 DUP3 DUP8 ADD PUSH2 0x4FC JUMP JUMPDEST SWAP3 POP POP PUSH1 0x40 PUSH2 0x572 DUP7 DUP3 DUP8 ADD PUSH2 0x4FC JUMP JUMPDEST SWAP2 POP POP SWAP3 POP SWAP3 POP SWAP3 JUMP JUMPDEST PUSH32 0x4E487B7100000000000000000000000000000000000000000000000000000000 PUSH0 MSTORE PUSH1 0x11 PUSH1 0x4 MSTORE PUSH1 0x24 PUSH0 REVERT JUMPDEST PUSH0 PUSH2 0x5B3 DUP3 PUSH2 0x4DD JUMP JUMPDEST SWAP2 POP PUSH2 0x5BE DUP4 PUSH2 0x4DD JUMP JUMPDEST SWAP3 POP DUP3 DUP3 ADD SWAP1 POP DUP1 DUP3 GT ISZERO PUSH2 0x5D6 JUMPI PUSH2 0x5D5 PUSH2 0x57C JUMP JUMPDEST JUMPDEST SWAP3 SWAP2 POP POP JUMP JUMPDEST PUSH32 0x4E487B7100000000000000000000000000000000000000000000000000000000 PUSH0 MSTORE PUSH1 0x32 PUSH1 0x4 MSTORE PUSH1 0x24 PUSH0 REVERT JUMPDEST PUSH0 PUSH3 0xFFFFFF DUP3 AND SWAP1 POP SWAP2 SWAP1 POP JUMP JUMPDEST PUSH0 PUSH2 0x621 DUP3 PUSH2 0x609 JUMP JUMPDEST SWAP2 POP PUSH3 0xFFFFFF DUP3 SUB PUSH2 0x636 JUMPI PUSH2 0x635 PUSH2 0x57C JUMP JUMPDEST JUMPDEST PUSH1 0x1 DUP3 ADD SWAP1 POP SWAP2 SWAP1 POP JUMP JUMPDEST PUSH0 DUP2 MLOAD SWAP1 POP SWAP2 SWAP1 POP JUMP JUMPDEST PUSH32 0x4E487B7100000000000000000000000000000000000000000000000000000000 PUSH0 MSTORE PUSH1 0x22 PUSH1 0x4 MSTORE PUSH1 0x24 PUSH0 REVERT JUMPDEST PUSH0 PUSH1 0x2 DUP3 DIV SWAP1 POP PUSH1 0x1 DUP3 AND DUP1 PUSH2 0x68F JUMPI PUSH1 0x7F DUP3 AND SWAP2 POP JUMPDEST PUSH1 0x20 DUP3 LT DUP2 SUB PUSH2 0x6A2 JUMPI PUSH2 0x6A1 PUSH2 0x64B JUMP JUMPDEST JUMPDEST POP SWAP2 SWAP1 POP JUMP JUMPDEST PUSH0 DUP2 SWAP1 POP DUP2 PUSH0 MSTORE PUSH1 0x20 PUSH0 KECCAK256 SWAP1 POP SWAP2 SWAP1 POP JUMP JUMPDEST PUSH0 PUSH1 0x20 PUSH1 0x1F DUP4 ADD DIV SWAP1 POP SWAP2 SWAP1 POP JUMP JUMPDEST PUSH0 DUP3 DUP3 SHL SWAP1 POP SWAP3 SWAP2 POP POP JUMP JUMPDEST PUSH0 PUSH1 0x8 DUP4 MUL PUSH2 0x704 PUSH32 0xFFFFFFFFFFFFFFFFFFFFFFFFFFFFFFFFFFFFFFFFFFFFFFFFFFFFFFFFFFFFFFFF DUP3 PUSH2 0x6C9 JUMP JUMPDEST PUSH2 0x70E DUP7 DUP4 PUSH2 0x6C9 JUMP JUMPDEST SWAP6 POP DUP1 NOT DUP5 AND SWAP4 POP DUP1 DUP7 AND DUP5 OR SWAP3 POP POP POP SWAP4 SWAP3 POP POP POP JUMP JUMPDEST PUSH0 DUP2 SWAP1 POP SWAP2 SWAP1 POP JUMP JUMPDEST PUSH0 PUSH2 0x749 PUSH2 0x744 PUSH2 0x73F DUP5 PUSH2 0x4DD JUMP JUMPDEST PUSH2 0x726 JUMP JUMPDEST PUSH2 0x4DD JUMP JUMPDEST SWAP1 POP SWAP2 SWAP1 POP JUMP JUMPDEST PUSH0 DUP2 SWAP1 POP SWAP2 SWAP1 POP JUMP JUMPDEST PUSH2 0x762 DUP4 PUSH2 0x72F JUMP JUMPDEST PUSH2 0x776 PUSH2 0x76E DUP3 PUSH2 0x750 JUMP JUMPDEST DUP5 DUP5 SLOAD PUSH2 0x6D5 JUMP JUMPDEST DUP3 SSTORE POP POP POP POP JUMP JUMPDEST PUSH0 PUSH0 SWAP1 POP SWAP1 JUMP JUMPDEST PUSH2 0x78D PUSH2 0x77E JUMP JUMPDEST PUSH2 0x798 DUP2 DUP5 DUP5 PUSH2 0x759 JUMP JUMPDEST POP POP POP JUMP JUMPDEST JUMPDEST DUP2 DUP2 LT ISZERO PUSH2 0x7BB JUMPI PUSH2 0x7B0 PUSH0 DUP3 PUSH2 0x785 JUMP JUMPDEST PUSH1 0x1 DUP2 ADD SWAP1 POP PUSH2 0x79E JUMP JUMPDEST POP POP JUMP JUMPDEST PUSH1 0x1F DUP3 GT ISZERO PUSH2 0x800 JUMPI PUSH2 0x7D1 DUP2 PUSH2 0x6A8 JUMP JUMPDEST PUSH2 0x7DA DUP5 PUSH2 0x6BA JUMP JUMPDEST DUP2 ADD PUSH1 0x20 DUP6 LT ISZERO PUSH2 0x7E9 JUMPI DUP2 SWAP1 POP JUMPDEST PUSH2 0x7FD PUSH2 0x7F5 DUP6 PUSH2 0x6BA JUMP JUMPDEST DUP4 ADD DUP3 PUSH2 0x79D JUMP JUMPDEST POP POP JUMPDEST POP POP POP JUMP JUMPDEST PUSH0 DUP3 DUP3 SHR SWAP1 POP SWAP3 SWAP2 POP POP JUMP JUMPDEST PUSH0 PUSH2 0x820 PUSH0 NOT DUP5 PUSH1 0x8 MUL PUSH2 0x805 JUMP JUMPDEST NOT DUP1 DUP4 AND SWAP2 POP POP SWAP3 SWAP2 POP POP JUMP JUMPDEST PUSH0 PUSH2 0x838 DUP4 DUP4 PUSH2 0x811 JUMP JUMPDEST SWAP2 POP DUP3 PUSH1 0x2 MUL DUP3 OR SWAP1 POP SWAP3 SWAP2 POP POP JUMP JUMPDEST PUSH2 0x851 DUP3 PUSH2 0x641 JUMP JUMPDEST PUSH8 0xFFFFFFFFFFFFFFFF DUP2 GT ISZERO PUSH2 0x86A JUMPI PUSH2 0x869 PUSH2 0x246 JUMP JUMPDEST JUMPDEST PUSH2 0x874 DUP3 SLOAD PUSH2 0x678 JUMP JUMPDEST PUSH2 0x87F DUP3 DUP3 DUP6 PUSH2 0x7BF JUMP JUMPDEST PUSH0 PUSH1 0x20 SWAP1 POP PUSH1 0x1F DUP4 GT PUSH1 0x1 DUP2 EQ PUSH2 0x8B0 JUMPI PUSH0 DUP5 ISZERO PUSH2 0x89E JUMPI DUP3 DUP8 ADD MLOAD SWAP1 POP JUMPDEST PUSH2 0x8A8 DUP6 DUP3 PUSH2 0x82D JUMP JUMPDEST DUP7 SSTORE POP PUSH2 0x90F JUMP JUMPDEST PUSH1 0x1F NOT DUP5 AND PUSH2 0x8BE DUP7 PUSH2 0x6A8 JUMP JUMPDEST PUSH0 JUMPDEST DUP3 DUP2 LT ISZERO PUSH2 0x8E5 JUMPI DUP5 DUP10 ADD MLOAD DUP3 SSTORE PUSH1 0x1 DUP3 ADD SWAP2 POP PUSH1 0x20 DUP6 ADD SWAP5 POP PUSH1 0x20 DUP2 ADD SWAP1 POP PUSH2 0x8C0 JUMP JUMPDEST DUP7 DUP4 LT ISZERO PUSH2 0x902 JUMPI DUP5 DUP10 ADD MLOAD PUSH2 0x8FE PUSH1 0x1F DUP10 AND DUP3 PUSH2 0x811 JUMP JUMPDEST DUP4 SSTORE POP JUMPDEST PUSH1 0x1 PUSH1 0x2 DUP9 MUL ADD DUP9 SSTORE POP POP POP JUMPDEST POP POP POP POP POP POP JUMP JUMPDEST PUSH2 0x13A8 DUP1 PUSH2 0x924 PUSH0 CODECOPY PUSH0 RETURN INVALID PUSH1 0x80 PUSH1 0x40 MSTORE CALLVALUE DUP1 ISZERO PUSH2 0xF JUMPI PUSH0 PUSH0 REVERT JUMPDEST POP PUSH1 0x4 CALLDATASIZE LT PUSH2 0x91 JUMPI PUSH0 CALLDATALOAD PUSH1 0xE0 SHR DUP1 PUSH4 0x59A6026D GT PUSH2 0x64 JUMPI DUP1 PUSH4 0x59A6026D EQ PUSH2 0x109 JUMPI DUP1 PUSH4 0x777C3ACF EQ PUSH2 0x125 JUMPI DUP1 PUSH4 0x7A1EDD77 EQ PUSH2 0x143 JUMPI DUP1 PUSH4 0x92BC5E2B EQ PUSH2 0x173 JUMPI DUP1 PUSH4 0xBE82D07D EQ PUSH2 0x191 JUMPI PUSH2 0x91 JUMP JUMPDEST DUP1 PUSH4 0x121B93F EQ PUSH2 0x95 JUMPI DUP1 PUSH4 0xD15FD77 EQ PUSH2 0xB1 JUMPI DUP1 PUSH4 0x22C17E05 EQ PUSH2 0xCF JUMPI DUP1 PUSH4 0x2F6D1581 EQ PUSH2 0xED JUMPI JUMPDEST PUSH0 PUSH0 REVERT JUMPDEST PUSH2 0xAF PUSH1 0x4 DUP1 CALLDATASIZE SUB DUP2 ADD SWAP1 PUSH2 0xAA SWAP2 SWAP1 PUSH2 0xAA5 JUMP JUMPDEST PUSH2 0x1AD JUMP JUMPDEST STOP JUMPDEST PUSH2 0xB9 PUSH2 0x4C1 JUMP JUMPDEST PUSH1 0x40 MLOAD PUSH2 0xC6 SWAP2 SWAP1 PUSH2 0xADF JUMP JUMPDEST PUSH1 0x40 MLOAD DUP1 SWAP2 SUB SWAP1 RETURN JUMPDEST PUSH2 0xD7 PUSH2 0x4C7 JUMP JUMPDEST PUSH1 0x40 MLOAD PUSH2 0xE4 SWAP2 SWAP1 PUSH2 0xB68 JUMP JUMPDEST PUSH1 0x40 MLOAD DUP1 SWAP2 SUB SWAP1 RETURN JUMPDEST PUSH2 0x107 PUSH1 0x4 DUP1 CALLDATASIZE SUB DUP2 ADD SWAP1 PUSH2 0x102 SWAP2 SWAP1 PUSH2 0xAA5 JUMP JUMPDEST PUSH2 0x57A JUMP JUMPDEST STOP JUMPDEST PUSH2 0x123 PUSH1 0x4 DUP1 CALLDATASIZE SUB DUP2 ADD SWAP1 PUSH2 0x11E SWAP2 SWAP1 PUSH2 0xBBD JUMP JUMPDEST PUSH2 0x61B JUMP JUMPDEST STOP JUMPDEST PUSH2 0x12D PUSH2 0x6BC JUMP JUMPDEST PUSH1 0x40 MLOAD PUSH2 0x13A SWAP2 SWAP1 PUSH2 0xADF JUMP JUMPDEST PUSH1 0x40 MLOAD DUP1 SWAP2 SUB SWAP1 RETURN JUMPDEST PUSH2 0x15D PUSH1 0x4 DUP1 CALLDATASIZE SUB DUP2 ADD SWAP1 PUSH2 0x158 SWAP2 SWAP1 PUSH2 0xAA5 JUMP JUMPDEST PUSH2 0x6C2 JUMP JUMPDEST PUSH1 0x40 MLOAD PUSH2 0x16A SWAP2 SWAP1 PUSH2 0xB68 JUMP JUMPDEST PUSH1 0x40 MLOAD DUP1 SWAP2 SUB SWAP1 RETURN JUMPDEST PUSH2 0x17B PUSH2 0x777 JUMP JUMPDEST PUSH1 0x40 MLOAD PUSH2 0x188 SWAP2 SWAP1 PUSH2 0xADF JUMP JUMPDEST PUSH1 0x40 MLOAD DUP1 SWAP2 SUB SWAP1 RETURN JUMPDEST PUSH2 0x1AB PUSH1 0x4 DUP1 CALLDATASIZE SUB DUP2 ADD SWAP1 PUSH2 0x1A6 SWAP2 SWAP1 PUSH2 0xD14 JUMP JUMPDEST PUSH2 0x7D9 JUMP JUMPDEST STOP JUMPDEST PUSH1 0x1 ISZERO ISZERO PUSH0 PUSH0 SWAP1 SLOAD SWAP1 PUSH2 0x100 EXP SWAP1 DIV PUSH1 0xFF AND ISZERO ISZERO EQ PUSH2 0x1F8 JUMPI PUSH1 0x40 MLOAD PUSH32 0x3C7769F400000000000000000000000000000000000000000000000000000000 DUP2 MSTORE PUSH1 0x4 ADD PUSH1 0x40 MLOAD DUP1 SWAP2 SUB SWAP1 REVERT JUMPDEST CALLER PUSH20 0xFFFFFFFFFFFFFFFFFFFFFFFFFFFFFFFFFFFFFFFF AND PUSH0 PUSH1 0x1 SWAP1 SLOAD SWAP1 PUSH2 0x100 EXP SWAP1 DIV PUSH20 0xFFFFFFFFFFFFFFFFFFFFFFFFFFFFFFFFFFFFFFFF AND PUSH20 0xFFFFFFFFFFFFFFFFFFFFFFFFFFFFFFFFFFFFFFFF AND SUB PUSH2 0x27E JUMPI PUSH1 0x40 MLOAD PUSH32 0xB47BF5F800000000000000000000000000000000000000000000000000000000 DUP2 MSTORE PUSH1 0x4 ADD PUSH1 0x40 MLOAD DUP1 SWAP2 SUB SWAP1 REVERT JUMPDEST PUSH1 0x1 SLOAD PUSH1 0x2 SLOAD LT PUSH1 0x1 SLOAD SWAP1 PUSH2 0x2C9 JUMPI PUSH1 0x40 MLOAD PUSH32 0x11E7FC5600000000000000000000000000000000000000000000000000000000 DUP2 MSTORE PUSH1 0x4 ADD PUSH2 0x2C0 SWAP2 SWAP1 PUSH2 0xADF JUMP JUMPDEST PUSH1 0x40 MLOAD DUP1 SWAP2 SUB SWAP1 REVERT JUMPDEST POP PUSH1 0x3 SLOAD TIMESTAMP GT ISZERO PUSH1 0x3 SLOAD SWAP1 PUSH2 0x314 JUMPI PUSH1 0x40 MLOAD PUSH32 0x8F9A963D00000000000000000000000000000000000000000000000000000000 DUP2 MSTORE PUSH1 0x4 ADD PUSH2 0x30B SWAP2 SWAP1 PUSH2 0xADF JUMP JUMPDEST PUSH1 0x40 MLOAD DUP1 SWAP2 SUB SWAP1 REVERT JUMPDEST POP PUSH0 ISZERO ISZERO PUSH1 0x5 PUSH0 CALLER PUSH20 0xFFFFFFFFFFFFFFFFFFFFFFFFFFFFFFFFFFFFFFFF AND PUSH20 0xFFFFFFFFFFFFFFFFFFFFFFFFFFFFFFFFFFFFFFFF AND DUP2 MSTORE PUSH1 0x20 ADD SWAP1 DUP2 MSTORE PUSH1 0x20 ADD PUSH0 KECCAK256 PUSH0 SWAP1 SLOAD SWAP1 PUSH2 0x100 EXP SWAP1 DIV PUSH1 0xFF AND ISZERO ISZERO EQ PUSH2 0x39B JUMPI PUSH1 0x40 MLOAD PUSH32 0x1F601B3F00000000000000000000000000000000000000000000000000000000 DUP2 MSTORE PUSH1 0x4 ADD PUSH1 0x40 MLOAD DUP1 SWAP2 SUB SWAP1 REVERT JUMPDEST PUSH1 0x4 DUP1 SLOAD SWAP1 POP DUP2 LT PUSH1 0x4 DUP1 SLOAD SWAP1 POP SWAP1 PUSH2 0x3EA JUMPI PUSH1 0x40 MLOAD PUSH32 0xCD6D071E00000000000000000000000000000000000000000000000000000000 DUP2 MSTORE PUSH1 0x4 ADD PUSH2 0x3E1 SWAP2 SWAP1 PUSH2 0xADF JUMP JUMPDEST PUSH1 0x40 MLOAD DUP1 SWAP2 SUB SWAP1 REVERT JUMPDEST POP PUSH1 0x1 PUSH1 0x5 PUSH0 CALLER PUSH20 0xFFFFFFFFFFFFFFFFFFFFFFFFFFFFFFFFFFFFFFFF AND PUSH20 0xFFFFFFFFFFFFFFFFFFFFFFFFFFFFFFFFFFFFFFFF AND DUP2 MSTORE PUSH1 0x20 ADD SWAP1 DUP2 MSTORE PUSH1 0x20 ADD PUSH0 KECCAK256 PUSH0 PUSH2 0x100 EXP DUP2 SLOAD DUP2 PUSH1 0xFF MUL NOT AND SWAP1 DUP4 ISZERO ISZERO MUL OR SWAP1 SSTORE POP PUSH1 0x1 PUSH1 0x6 PUSH0 DUP4 DUP2 MSTORE PUSH1 0x20 ADD SWAP1 DUP2 MSTORE PUSH1 0x20 ADD PUSH0 KECCAK256 PUSH0 DUP3 DUP3 SLOAD PUSH2 0x461 SWAP2 SWAP1 PUSH2 0xDB7 JUMP JUMPDEST SWAP3 POP POP DUP2 SWAP1 SSTORE POP PUSH1 0x1 PUSH1 0x2 PUSH0 DUP3 DUP3 SLOAD PUSH2 0x47A SWAP2 SWAP1 PUSH2 0xDB7 JUMP JUMPDEST SWAP3 POP POP DUP2 SWAP1 SSTORE POP PUSH32 0xB613BB210E5CA6FD5D7BDB566E84384049D0BB0A23D9C416438A31A95826C1AB DUP2 CALLER PUSH1 0x2 SLOAD PUSH1 0x40 MLOAD PUSH2 0x4B6 SWAP4 SWAP3 SWAP2 SWAP1 PUSH2 0xE29 JUMP JUMPDEST PUSH1 0x40 MLOAD DUP1 SWAP2 SUB SWAP1 LOG1 POP JUMP JUMPDEST PUSH1 0x2 SLOAD DUP2 JUMP JUMPDEST PUSH1 0x60 PUSH0 PUSH1 0x4 DUP1 SLOAD SWAP1 POP SWAP1 POP PUSH0 PUSH1 0x40 MLOAD DUP1 PUSH1 0x20 ADD PUSH1 0x40 MSTORE DUP1 PUSH0 DUP2 MSTORE POP SWAP1 POP PUSH0 PUSH0 SWAP1 POP JUMPDEST DUP3 DUP2 LT ISZERO PUSH2 0x571 JUMPI DUP2 PUSH2 0x4FB DUP3 PUSH2 0x846 JUMP JUMPDEST PUSH1 0x4 DUP4 DUP2 SLOAD DUP2 LT PUSH2 0x50F JUMPI PUSH2 0x50E PUSH2 0xE5E JUMP JUMPDEST JUMPDEST SWAP1 PUSH0 MSTORE PUSH1 0x20 PUSH0 KECCAK256 SWAP1 PUSH1 0x2 MUL ADD PUSH0 ADD PUSH1 0x4 DUP5 DUP2 SLOAD DUP2 LT PUSH2 0x531 JUMPI PUSH2 0x530 PUSH2 0xE5E JUMP JUMPDEST JUMPDEST SWAP1 PUSH0 MSTORE PUSH1 0x20 PUSH0 KECCAK256 SWAP1 PUSH1 0x2 MUL ADD PUSH1 0x1 ADD PUSH1 0x40 MLOAD PUSH1 0x20 ADD PUSH2 0x553 SWAP5 SWAP4 SWAP3 SWAP2 SWAP1 PUSH2 0x1026 JUMP JUMPDEST PUSH1 0x40 MLOAD PUSH1 0x20 DUP2 DUP4 SUB SUB DUP2 MSTORE SWAP1 PUSH1 0x40 MSTORE SWAP2 POP DUP1 DUP1 PUSH1 0x1 ADD SWAP2 POP POP PUSH2 0x4E9 JUMP JUMPDEST POP DUP1 SWAP3 POP POP POP SWAP1 JUMP JUMPDEST CALLER PUSH20 0xFFFFFFFFFFFFFFFFFFFFFFFFFFFFFFFFFFFFFFFF AND PUSH0 PUSH1 0x1 SWAP1 SLOAD SWAP1 PUSH2 0x100 EXP SWAP1 DIV PUSH20 0xFFFFFFFFFFFFFFFFFFFFFFFFFFFFFFFFFFFFFFFF AND PUSH20 0xFFFFFFFFFFFFFFFFFFFFFFFFFFFFFFFFFFFFFFFF AND EQ PUSH2 0x600 JUMPI PUSH1 0x40 MLOAD PUSH32 0xEABD223E00000000000000000000000000000000000000000000000000000000 DUP2 MSTORE PUSH1 0x4 ADD PUSH1 0x40 MLOAD DUP1 SWAP2 SUB SWAP1 REVERT JUMPDEST DUP1 PUSH1 0x3 PUSH0 DUP3 DUP3 SLOAD PUSH2 0x611 SWAP2 SWAP1 PUSH2 0xDB7 JUMP JUMPDEST SWAP3 POP POP DUP2 SWAP1 SSTORE POP POP JUMP JUMPDEST CALLER PUSH20 0xFFFFFFFFFFFFFFFFFFFFFFFFFFFFFFFFFFFFFFFF AND PUSH0 PUSH1 0x1 SWAP1 SLOAD SWAP1 PUSH2 0x100 EXP SWAP1 DIV PUSH20 0xFFFFFFFFFFFFFFFFFFFFFFFFFFFFFFFFFFFFFFFF AND PUSH20 0xFFFFFFFFFFFFFFFFFFFFFFFFFFFFFFFFFFFFFFFF AND EQ PUSH2 0x6A1 JUMPI PUSH1 0x40 MLOAD PUSH32 0xEABD223E00000000000000000000000000000000000000000000000000000000 DUP2 MSTORE PUSH1 0x4 ADD PUSH1 0x40 MLOAD DUP1 SWAP2 SUB SWAP1 REVERT JUMPDEST DUP1 PUSH0 PUSH0 PUSH2 0x100 EXP DUP2 SLOAD DUP2 PUSH1 0xFF MUL NOT AND SWAP1 DUP4 ISZERO ISZERO MUL OR SWAP1 SSTORE POP POP JUMP JUMPDEST PUSH1 0x1 SLOAD DUP2 JUMP JUMPDEST PUSH1 0x60 PUSH1 0x4 DUP1 SLOAD SWAP1 POP DUP3 LT PUSH1 0x4 DUP1 SLOAD SWAP1 POP SWAP1 PUSH2 0x713 JUMPI PUSH1 0x40 MLOAD PUSH32 0xCD6D071E00000000000000000000000000000000000000000000000000000000 DUP2 MSTORE PUSH1 0x4 ADD PUSH2 0x70A SWAP2 SWAP1 PUSH2 0xADF JUMP JUMPDEST PUSH1 0x40 MLOAD DUP1 SWAP2 SUB SWAP1 REVERT JUMPDEST POP PUSH1 0x4 DUP3 DUP2 SLOAD DUP2 LT PUSH2 0x728 JUMPI PUSH2 0x727 PUSH2 0xE5E JUMP JUMPDEST JUMPDEST SWAP1 PUSH0 MSTORE PUSH1 0x20 PUSH0 KECCAK256 SWAP1 PUSH1 0x2 MUL ADD PUSH0 ADD PUSH2 0x750 PUSH1 0x6 PUSH0 DUP6 DUP2 MSTORE PUSH1 0x20 ADD SWAP1 DUP2 MSTORE PUSH1 0x20 ADD PUSH0 KECCAK256 SLOAD PUSH2 0x846 JUMP JUMPDEST PUSH1 0x40 MLOAD PUSH1 0x20 ADD PUSH2 0x761 SWAP3 SWAP2 SWAP1 PUSH2 0x10B6 JUMP JUMPDEST PUSH1 0x40 MLOAD PUSH1 0x20 DUP2 DUP4 SUB SUB DUP2 MSTORE SWAP1 PUSH1 0x40 MSTORE SWAP1 POP SWAP2 SWAP1 POP JUMP JUMPDEST PUSH0 PUSH0 PUSH0 SWAP1 POP PUSH0 PUSH0 SWAP1 POP PUSH0 PUSH0 SWAP1 POP JUMPDEST PUSH1 0x4 DUP1 SLOAD SWAP1 POP DUP2 LT ISZERO PUSH2 0x7D0 JUMPI DUP3 PUSH1 0x6 PUSH0 DUP4 DUP2 MSTORE PUSH1 0x20 ADD SWAP1 DUP2 MSTORE PUSH1 0x20 ADD PUSH0 KECCAK256 SLOAD GT ISZERO PUSH2 0x7C3 JUMPI PUSH1 0x6 PUSH0 DUP3 DUP2 MSTORE PUSH1 0x20 ADD SWAP1 DUP2 MSTORE PUSH1 0x20 ADD PUSH0 KECCAK256 SLOAD SWAP3 POP DUP1 SWAP2 POP JUMPDEST DUP1 DUP1 PUSH1 0x1 ADD SWAP2 POP POP PUSH2 0x785 JUMP JUMPDEST POP DUP1 SWAP3 POP POP POP SWAP1 JUMP JUMPDEST PUSH1 0x4 PUSH1 0x40 MLOAD DUP1 PUSH1 0x40 ADD PUSH1 0x40 MSTORE DUP1 DUP5 DUP2 MSTORE PUSH1 0x20 ADD DUP4 DUP2 MSTORE POP SWAP1 DUP1 PUSH1 0x1 DUP2 SLOAD ADD DUP1 DUP3 SSTORE DUP1 SWAP2 POP POP PUSH1 0x1 SWAP1 SUB SWAP1 PUSH0 MSTORE PUSH1 0x20 PUSH0 KECCAK256 SWAP1 PUSH1 0x2 MUL ADD PUSH0 SWAP1 SWAP2 SWAP1 SWAP2 SWAP1 SWAP2 POP PUSH0 DUP3 ADD MLOAD DUP2 PUSH0 ADD SWAP1 DUP2 PUSH2 0x829 SWAP2 SWAP1 PUSH2 0x1276 JUMP JUMPDEST POP PUSH1 0x20 DUP3 ADD MLOAD DUP2 PUSH1 0x1 ADD SWAP1 DUP2 PUSH2 0x83F SWAP2 SWAP1 PUSH2 0x1276 JUMP JUMPDEST POP POP POP POP POP JUMP JUMPDEST PUSH1 0x60 PUSH0 PUSH1 0x1 PUSH2 0x854 DUP5 PUSH2 0x910 JUMP JUMPDEST ADD SWAP1 POP PUSH0 DUP2 PUSH8 0xFFFFFFFFFFFFFFFF DUP2 GT ISZERO PUSH2 0x872 JUMPI PUSH2 0x871 PUSH2 0xBF0 JUMP JUMPDEST JUMPDEST PUSH1 0x40 MLOAD SWAP1 DUP1 DUP3 MSTORE DUP1 PUSH1 0x1F ADD PUSH1 0x1F NOT AND PUSH1 0x20 ADD DUP3 ADD PUSH1 0x40 MSTORE DUP1 ISZERO PUSH2 0x8A4 JUMPI DUP2 PUSH1 0x20 ADD PUSH1 0x1 DUP3 MUL DUP1 CALLDATASIZE DUP4 CALLDATACOPY DUP1 DUP3 ADD SWAP2 POP POP SWAP1 POP JUMPDEST POP SWAP1 POP PUSH0 DUP3 PUSH1 0x20 DUP4 ADD ADD SWAP1 POP JUMPDEST PUSH1 0x1 ISZERO PUSH2 0x905 JUMPI DUP1 DUP1 PUSH1 0x1 SWAP1 SUB SWAP2 POP POP PUSH32 0x3031323334353637383961626364656600000000000000000000000000000000 PUSH1 0xA DUP7 MOD BYTE DUP2 MSTORE8 PUSH1 0xA DUP6 DUP2 PUSH2 0x8FA JUMPI PUSH2 0x8F9 PUSH2 0x1345 JUMP JUMPDEST JUMPDEST DIV SWAP5 POP PUSH0 DUP6 SUB PUSH2 0x8B1 JUMPI JUMPDEST DUP2 SWAP4 POP POP POP POP SWAP2 SWAP1 POP JUMP JUMPDEST PUSH0 PUSH0 PUSH0 SWAP1 POP PUSH27 0x184F03E93FF9F4DAA797ED6E38ED64BF6A1F010000000000000000 DUP4 LT PUSH2 0x96C JUMPI PUSH27 0x184F03E93FF9F4DAA797ED6E38ED64BF6A1F010000000000000000 DUP4 DUP2 PUSH2 0x962 JUMPI PUSH2 0x961 PUSH2 0x1345 JUMP JUMPDEST JUMPDEST DIV SWAP3 POP PUSH1 0x40 DUP2 ADD SWAP1 POP JUMPDEST PUSH14 0x4EE2D6D415B85ACEF8100000000 DUP4 LT PUSH2 0x9A9 JUMPI PUSH14 0x4EE2D6D415B85ACEF8100000000 DUP4 DUP2 PUSH2 0x99F JUMPI PUSH2 0x99E PUSH2 0x1345 JUMP JUMPDEST JUMPDEST DIV SWAP3 POP PUSH1 0x20 DUP2 ADD SWAP1 POP JUMPDEST PUSH7 0x2386F26FC10000 DUP4 LT PUSH2 0x9D8 JUMPI PUSH7 0x2386F26FC10000 DUP4 DUP2 PUSH2 0x9CE JUMPI PUSH2 0x9CD PUSH2 0x1345 JUMP JUMPDEST JUMPDEST DIV SWAP3 POP PUSH1 0x10 DUP2 ADD SWAP1 POP JUMPDEST PUSH4 0x5F5E100 DUP4 LT PUSH2 0xA01 JUMPI PUSH4 0x5F5E100 DUP4 DUP2 PUSH2 0x9F7 JUMPI PUSH2 0x9F6 PUSH2 0x1345 JUMP JUMPDEST JUMPDEST DIV SWAP3 POP PUSH1 0x8 DUP2 ADD SWAP1 POP JUMPDEST PUSH2 0x2710 DUP4 LT PUSH2 0xA26 JUMPI PUSH2 0x2710 DUP4 DUP2 PUSH2 0xA1C JUMPI PUSH2 0xA1B PUSH2 0x1345 JUMP JUMPDEST JUMPDEST DIV SWAP3 POP PUSH1 0x4 DUP2 ADD SWAP1 POP JUMPDEST PUSH1 0x64 DUP4 LT PUSH2 0xA49 JUMPI PUSH1 0x64 DUP4 DUP2 PUSH2 0xA3F JUMPI PUSH2 0xA3E PUSH2 0x1345 JUMP JUMPDEST JUMPDEST DIV SWAP3 POP PUSH1 0x2 DUP2 ADD SWAP1 POP JUMPDEST PUSH1 0xA DUP4 LT PUSH2 0xA58 JUMPI PUSH1 0x1 DUP2 ADD SWAP1 POP JUMPDEST DUP1 SWAP2 POP POP SWAP2 SWAP1 POP JUMP JUMPDEST PUSH0 PUSH1 0x40 MLOAD SWAP1 POP SWAP1 JUMP JUMPDEST PUSH0 PUSH0 REVERT JUMPDEST PUSH0 PUSH0 REVERT JUMPDEST PUSH0 DUP2 SWAP1 POP SWAP2 SWAP1 POP JUMP JUMPDEST PUSH2 0xA84 DUP2 PUSH2 0xA72 JUMP JUMPDEST DUP2 EQ PUSH2 0xA8E JUMPI PUSH0 PUSH0 REVERT JUMPDEST POP JUMP JUMPDEST PUSH0 DUP2 CALLDATALOAD SWAP1 POP PUSH2 0xA9F DUP2 PUSH2 0xA7B JUMP JUMPDEST SWAP3 SWAP2 POP POP JUMP JUMPDEST PUSH0 PUSH1 0x20 DUP3 DUP5 SUB SLT ISZERO PUSH2 0xABA JUMPI PUSH2 0xAB9 PUSH2 0xA6A JUMP JUMPDEST JUMPDEST PUSH0 PUSH2 0xAC7 DUP5 DUP3 DUP6 ADD PUSH2 0xA91 JUMP JUMPDEST SWAP2 POP POP SWAP3 SWAP2 POP POP JUMP JUMPDEST PUSH2 0xAD9 DUP2 PUSH2 0xA72 JUMP JUMPDEST DUP3 MSTORE POP POP JUMP JUMPDEST PUSH0 PUSH1 0x20 DUP3 ADD SWAP1 POP PUSH2 0xAF2 PUSH0 DUP4 ADD DUP5 PUSH2 0xAD0 JUMP JUMPDEST SWAP3 SWAP2 POP POP JUMP JUMPDEST PUSH0 DUP2 MLOAD SWAP1 POP SWAP2 SWAP1 POP JUMP JUMPDEST PUSH0 DUP3 DUP3 MSTORE PUSH1 0x20 DUP3 ADD SWAP1 POP SWAP3 SWAP2 POP POP JUMP JUMPDEST DUP3 DUP2 DUP4 MCOPY PUSH0 DUP4 DUP4 ADD MSTORE POP POP POP JUMP JUMPDEST PUSH0 PUSH1 0x1F NOT PUSH1 0x1F DUP4 ADD AND SWAP1 POP SWAP2 SWAP1 POP JUMP JUMPDEST PUSH0 PUSH2 0xB3A DUP3 PUSH2 0xAF8 JUMP JUMPDEST PUSH2 0xB44 DUP2 DUP6 PUSH2 0xB02 JUMP JUMPDEST SWAP4 POP PUSH2 0xB54 DUP2 DUP6 PUSH1 0x20 DUP7 ADD PUSH2 0xB12 JUMP JUMPDEST PUSH2 0xB5D DUP2 PUSH2 0xB20 JUMP JUMPDEST DUP5 ADD SWAP2 POP POP SWAP3 SWAP2 POP POP JUMP JUMPDEST PUSH0 PUSH1 0x20 DUP3 ADD SWAP1 POP DUP2 DUP2 SUB PUSH0 DUP4 ADD MSTORE PUSH2 0xB80 DUP2 DUP5 PUSH2 0xB30 JUMP JUMPDEST SWAP1 POP SWAP3 SWAP2 POP POP JUMP JUMPDEST PUSH0 DUP2 ISZERO ISZERO SWAP1 POP SWAP2 SWAP1 POP JUMP JUMPDEST PUSH2 0xB9C DUP2 PUSH2 0xB88 JUMP JUMPDEST DUP2 EQ PUSH2 0xBA6 JUMPI PUSH0 PUSH0 REVERT JUMPDEST POP JUMP JUMPDEST PUSH0 DUP2 CALLDATALOAD SWAP1 POP PUSH2 0xBB7 DUP2 PUSH2 0xB93 JUMP JUMPDEST SWAP3 SWAP2 POP POP JUMP JUMPDEST PUSH0 PUSH1 0x20 DUP3 DUP5 SUB SLT ISZERO PUSH2 0xBD2 JUMPI PUSH2 0xBD1 PUSH2 0xA6A JUMP JUMPDEST JUMPDEST PUSH0 PUSH2 0xBDF DUP5 DUP3 DUP6 ADD PUSH2 0xBA9 JUMP JUMPDEST SWAP2 POP POP SWAP3 SWAP2 POP POP JUMP JUMPDEST PUSH0 PUSH0 REVERT JUMPDEST PUSH0 PUSH0 REVERT JUMPDEST PUSH32 0x4E487B7100000000000000000000000000000000000000000000000000000000 PUSH0 MSTORE PUSH1 0x41 PUSH1 0x4 MSTORE PUSH1 0x24 PUSH0 REVERT JUMPDEST PUSH2 0xC26 DUP3 PUSH2 0xB20 JUMP JUMPDEST DUP2 ADD DUP2 DUP2 LT PUSH8 0xFFFFFFFFFFFFFFFF DUP3 GT OR ISZERO PUSH2 0xC45 JUMPI PUSH2 0xC44 PUSH2 0xBF0 JUMP JUMPDEST JUMPDEST DUP1 PUSH1 0x40 MSTORE POP POP POP JUMP JUMPDEST PUSH0 PUSH2 0xC57 PUSH2 0xA61 JUMP JUMPDEST SWAP1 POP PUSH2 0xC63 DUP3 DUP3 PUSH2 0xC1D JUMP JUMPDEST SWAP2 SWAP1 POP JUMP JUMPDEST PUSH0 PUSH8 0xFFFFFFFFFFFFFFFF DUP3 GT ISZERO PUSH2 0xC82 JUMPI PUSH2 0xC81 PUSH2 0xBF0 JUMP JUMPDEST JUMPDEST PUSH2 0xC8B DUP3 PUSH2 0xB20 JUMP JUMPDEST SWAP1 POP PUSH1 0x20 DUP2 ADD SWAP1 POP SWAP2 SWAP1 POP JUMP JUMPDEST DUP3 DUP2 DUP4 CALLDATACOPY PUSH0 DUP4 DUP4 ADD MSTORE POP POP POP JUMP JUMPDEST PUSH0 PUSH2 0xCB8 PUSH2 0xCB3 DUP5 PUSH2 0xC68 JUMP JUMPDEST PUSH2 0xC4E JUMP JUMPDEST SWAP1 POP DUP3 DUP2 MSTORE PUSH1 0x20 DUP2 ADD DUP5 DUP5 DUP5 ADD GT ISZERO PUSH2 0xCD4 JUMPI PUSH2 0xCD3 PUSH2 0xBEC JUMP JUMPDEST JUMPDEST PUSH2 0xCDF DUP5 DUP3 DUP6 PUSH2 0xC98 JUMP JUMPDEST POP SWAP4 SWAP3 POP POP POP JUMP JUMPDEST PUSH0 DUP3 PUSH1 0x1F DUP4 ADD SLT PUSH2 0xCFB JUMPI PUSH2 0xCFA PUSH2 0xBE8 JUMP JUMPDEST JUMPDEST DUP2 CALLDATALOAD PUSH2 0xD0B DUP5 DUP3 PUSH1 0x20 DUP7 ADD PUSH2 0xCA6 JUMP JUMPDEST SWAP2 POP POP SWAP3 SWAP2 POP POP JUMP JUMPDEST PUSH0 PUSH0 PUSH1 0x40 DUP4 DUP6 SUB SLT ISZERO PUSH2 0xD2A JUMPI PUSH2 0xD29 PUSH2 0xA6A JUMP JUMPDEST JUMPDEST PUSH0 DUP4 ADD CALLDATALOAD PUSH8 0xFFFFFFFFFFFFFFFF DUP2 GT ISZERO PUSH2 0xD47 JUMPI PUSH2 0xD46 PUSH2 0xA6E JUMP JUMPDEST JUMPDEST PUSH2 0xD53 DUP6 DUP3 DUP7 ADD PUSH2 0xCE7 JUMP JUMPDEST SWAP3 POP POP PUSH1 0x20 DUP4 ADD CALLDATALOAD PUSH8 0xFFFFFFFFFFFFFFFF DUP2 GT ISZERO PUSH2 0xD74 JUMPI PUSH2 0xD73 PUSH2 0xA6E JUMP JUMPDEST JUMPDEST PUSH2 0xD80 DUP6 DUP3 DUP7 ADD PUSH2 0xCE7 JUMP JUMPDEST SWAP2 POP POP SWAP3 POP SWAP3 SWAP1 POP JUMP JUMPDEST PUSH32 0x4E487B7100000000000000000000000000000000000000000000000000000000 PUSH0 MSTORE PUSH1 0x11 PUSH1 0x4 MSTORE PUSH1 0x24 PUSH0 REVERT JUMPDEST PUSH0 PUSH2 0xDC1 DUP3 PUSH2 0xA72 JUMP JUMPDEST SWAP2 POP PUSH2 0xDCC DUP4 PUSH2 0xA72 JUMP JUMPDEST SWAP3 POP DUP3 DUP3 ADD SWAP1 POP DUP1 DUP3 GT ISZERO PUSH2 0xDE4 JUMPI PUSH2 0xDE3 PUSH2 0xD8A JUMP JUMPDEST JUMPDEST SWAP3 SWAP2 POP POP JUMP JUMPDEST PUSH0 PUSH20 0xFFFFFFFFFFFFFFFFFFFFFFFFFFFFFFFFFFFFFFFF DUP3 AND SWAP1 POP SWAP2 SWAP1 POP JUMP JUMPDEST PUSH0 PUSH2 0xE13 DUP3 PUSH2 0xDEA JUMP JUMPDEST SWAP1 POP SWAP2 SWAP1 POP JUMP JUMPDEST PUSH2 0xE23 DUP2 PUSH2 0xE09 JUMP JUMPDEST DUP3 MSTORE POP POP JUMP JUMPDEST PUSH0 PUSH1 0x60 DUP3 ADD SWAP1 POP PUSH2 0xE3C PUSH0 DUP4 ADD DUP7 PUSH2 0xAD0 JUMP JUMPDEST PUSH2 0xE49 PUSH1 0x20 DUP4 ADD DUP6 PUSH2 0xE1A JUMP JUMPDEST PUSH2 0xE56 PUSH1 0x40 DUP4 ADD DUP5 PUSH2 0xAD0 JUMP JUMPDEST SWAP5 SWAP4 POP POP POP POP JUMP JUMPDEST PUSH32 0x4E487B7100000000000000000000000000000000000000000000000000000000 PUSH0 MSTORE PUSH1 0x32 PUSH1 0x4 MSTORE PUSH1 0x24 PUSH0 REVERT JUMPDEST PUSH0 DUP2 SWAP1 POP SWAP3 SWAP2 POP POP JUMP JUMPDEST PUSH0 PUSH2 0xE9F DUP3 PUSH2 0xAF8 JUMP JUMPDEST PUSH2 0xEA9 DUP2 DUP6 PUSH2 0xE8B JUMP JUMPDEST SWAP4 POP PUSH2 0xEB9 DUP2 DUP6 PUSH1 0x20 DUP7 ADD PUSH2 0xB12 JUMP JUMPDEST DUP1 DUP5 ADD SWAP2 POP POP SWAP3 SWAP2 POP POP JUMP JUMPDEST PUSH32 0x2920000000000000000000000000000000000000000000000000000000000000 DUP2 MSTORE POP JUMP JUMPDEST PUSH32 0x4E487B7100000000000000000000000000000000000000000000000000000000 PUSH0 MSTORE PUSH1 0x22 PUSH1 0x4 MSTORE PUSH1 0x24 PUSH0 REVERT JUMPDEST PUSH0 PUSH1 0x2 DUP3 DIV SWAP1 POP PUSH1 0x1 DUP3 AND DUP1 PUSH2 0xF2F JUMPI PUSH1 0x7F DUP3 AND SWAP2 POP JUMPDEST PUSH1 0x20 DUP3 LT DUP2 SUB PUSH2 0xF42 JUMPI PUSH2 0xF41 PUSH2 0xEEB JUMP JUMPDEST JUMPDEST POP SWAP2 SWAP1 POP JUMP JUMPDEST PUSH0 DUP2 SWAP1 POP DUP2 PUSH0 MSTORE PUSH1 0x20 PUSH0 KECCAK256 SWAP1 POP SWAP2 SWAP1 POP JUMP JUMPDEST PUSH0 DUP2 SLOAD PUSH2 0xF66 DUP2 PUSH2 0xF18 JUMP JUMPDEST PUSH2 0xF70 DUP2 DUP7 PUSH2 0xE8B JUMP JUMPDEST SWAP5 POP PUSH1 0x1 DUP3 AND PUSH0 DUP2 EQ PUSH2 0xF8A JUMPI PUSH1 0x1 DUP2 EQ PUSH2 0xF9F JUMPI PUSH2 0xFD1 JUMP JUMPDEST PUSH1 0xFF NOT DUP4 AND DUP7 MSTORE DUP2 ISZERO ISZERO DUP3 MUL DUP7 ADD SWAP4 POP PUSH2 0xFD1 JUMP JUMPDEST PUSH2 0xFA8 DUP6 PUSH2 0xF48 JUMP JUMPDEST PUSH0 JUMPDEST DUP4 DUP2 LT ISZERO PUSH2 0xFC9 JUMPI DUP2 SLOAD DUP2 DUP10 ADD MSTORE PUSH1 0x1 DUP3 ADD SWAP2 POP PUSH1 0x20 DUP2 ADD SWAP1 POP PUSH2 0xFAA JUMP JUMPDEST DUP4 DUP9 ADD SWAP6 POP POP POP JUMPDEST POP POP POP SWAP3 SWAP2 POP POP JUMP JUMPDEST PUSH32 0x202D202700000000000000000000000000000000000000000000000000000000 DUP2 MSTORE POP JUMP JUMPDEST PUSH32 0x2720000000000000000000000000000000000000000000000000000000000000 DUP2 MSTORE POP JUMP JUMPDEST PUSH0 PUSH2 0x1031 DUP3 DUP8 PUSH2 0xE95 JUMP JUMPDEST SWAP2 POP PUSH2 0x103D DUP3 DUP7 PUSH2 0xE95 JUMP JUMPDEST SWAP2 POP PUSH2 0x1048 DUP3 PUSH2 0xEC5 JUMP JUMPDEST PUSH1 0x2 DUP3 ADD SWAP2 POP PUSH2 0x1058 DUP3 DUP6 PUSH2 0xF5A JUMP JUMPDEST SWAP2 POP PUSH2 0x1063 DUP3 PUSH2 0xFDA JUMP JUMPDEST PUSH1 0x4 DUP3 ADD SWAP2 POP PUSH2 0x1073 DUP3 DUP5 PUSH2 0xF5A JUMP JUMPDEST SWAP2 POP PUSH2 0x107E DUP3 PUSH2 0x1000 JUMP JUMPDEST PUSH1 0x2 DUP3 ADD SWAP2 POP DUP2 SWAP1 POP SWAP6 SWAP5 POP POP POP POP POP JUMP JUMPDEST PUSH32 0x3A20000000000000000000000000000000000000000000000000000000000000 DUP2 MSTORE POP JUMP JUMPDEST PUSH0 PUSH2 0x10C1 DUP3 DUP6 PUSH2 0xF5A JUMP JUMPDEST SWAP2 POP PUSH2 0x10CC DUP3 PUSH2 0x1090 JUMP JUMPDEST PUSH1 0x2 DUP3 ADD SWAP2 POP PUSH2 0x10DC DUP3 DUP5 PUSH2 0xE95 JUMP JUMPDEST SWAP2 POP DUP2 SWAP1 POP SWAP4 SWAP3 POP POP POP JUMP JUMPDEST PUSH0 PUSH1 0x20 PUSH1 0x1F DUP4 ADD DIV SWAP1 POP SWAP2 SWAP1 POP JUMP JUMPDEST PUSH0 DUP3 DUP3 SHL SWAP1 POP SWAP3 SWAP2 POP POP JUMP JUMPDEST PUSH0 PUSH1 0x8 DUP4 MUL PUSH2 0x1132 PUSH32 0xFFFFFFFFFFFFFFFFFFFFFFFFFFFFFFFFFFFFFFFFFFFFFFFFFFFFFFFFFFFFFFFF DUP3 PUSH2 0x10F7 JUMP JUMPDEST PUSH2 0x113C DUP7 DUP4 PUSH2 0x10F7 JUMP JUMPDEST SWAP6 POP DUP1 NOT DUP5 AND SWAP4 POP DUP1 DUP7 AND DUP5 OR SWAP3 POP POP POP SWAP4 SWAP3 POP POP POP JUMP JUMPDEST PUSH0 DUP2 SWAP1 POP SWAP2 SWAP1 POP JUMP JUMPDEST PUSH0 PUSH2 0x1177 PUSH2 0x1172 PUSH2 0x116D DUP5 PUSH2 0xA72 JUMP JUMPDEST PUSH2 0x1154 JUMP JUMPDEST PUSH2 0xA72 JUMP JUMPDEST SWAP1 POP SWAP2 SWAP1 POP JUMP JUMPDEST PUSH0 DUP2 SWAP1 POP SWAP2 SWAP1 POP JUMP JUMPDEST PUSH2 0x1190 DUP4 PUSH2 0x115D JUMP JUMPDEST PUSH2 0x11A4 PUSH2 0x119C DUP3 PUSH2 0x117E JUMP JUMPDEST DUP5 DUP5 SLOAD PUSH2 0x1103 JUMP JUMPDEST DUP3 SSTORE POP POP POP POP JUMP JUMPDEST PUSH0 PUSH0 SWAP1 POP SWAP1 JUMP JUMPDEST PUSH2 0x11BB PUSH2 0x11AC JUMP JUMPDEST PUSH2 0x11C6 DUP2 DUP5 DUP5 PUSH2 0x1187 JUMP JUMPDEST POP POP POP JUMP JUMPDEST JUMPDEST DUP2 DUP2 LT ISZERO PUSH2 0x11E9 JUMPI PUSH2 0x11DE PUSH0 DUP3 PUSH2 0x11B3 JUMP JUMPDEST PUSH1 0x1 DUP2 ADD SWAP1 POP PUSH2 0x11CC JUMP JUMPDEST POP POP JUMP JUMPDEST PUSH1 0x1F DUP3 GT ISZERO PUSH2 0x122E JUMPI PUSH2 0x11FF DUP2 PUSH2 0xF48 JUMP JUMPDEST PUSH2 0x1208 DUP5 PUSH2 0x10E8 JUMP JUMPDEST DUP2 ADD PUSH1 0x20 DUP6 LT ISZERO PUSH2 0x1217 JUMPI DUP2 SWAP1 POP JUMPDEST PUSH2 0x122B PUSH2 0x1223 DUP6 PUSH2 0x10E8 JUMP JUMPDEST DUP4 ADD DUP3 PUSH2 0x11CB JUMP JUMPDEST POP POP JUMPDEST POP POP POP JUMP JUMPDEST PUSH0 DUP3 DUP3 SHR SWAP1 POP SWAP3 SWAP2 POP POP JUMP JUMPDEST PUSH0 PUSH2 0x124E PUSH0 NOT DUP5 PUSH1 0x8 MUL PUSH2 0x1233 JUMP JUMPDEST NOT DUP1 DUP4 AND SWAP2 POP POP SWAP3 SWAP2 POP POP JUMP JUMPDEST PUSH0 PUSH2 0x1266 DUP4 DUP4 PUSH2 0x123F JUMP JUMPDEST SWAP2 POP DUP3 PUSH1 0x2 MUL DUP3 OR SWAP1 POP SWAP3 SWAP2 POP POP JUMP JUMPDEST PUSH2 0x127F DUP3 PUSH2 0xAF8 JUMP JUMPDEST PUSH8 0xFFFFFFFFFFFFFFFF DUP2 GT ISZERO PUSH2 0x1298 JUMPI PUSH2 0x1297 PUSH2 0xBF0 JUMP JUMPDEST JUMPDEST PUSH2 0x12A2 DUP3 SLOAD PUSH2 0xF18 JUMP JUMPDEST PUSH2 0x12AD DUP3 DUP3 DUP6 PUSH2 0x11ED JUMP JUMPDEST PUSH0 PUSH1 0x20 SWAP1 POP PUSH1 0x1F DUP4 GT PUSH1 0x1 DUP2 EQ PUSH2 0x12DE JUMPI PUSH0 DUP5 ISZERO PUSH2 0x12CC JUMPI DUP3 DUP8 ADD MLOAD SWAP1 POP JUMPDEST PUSH2 0x12D6 DUP6 DUP3 PUSH2 0x125B JUMP JUMPDEST DUP7 SSTORE POP PUSH2 0x133D JUMP JUMPDEST PUSH1 0x1F NOT DUP5 AND PUSH2 0x12EC DUP7 PUSH2 0xF48 JUMP JUMPDEST PUSH0 JUMPDEST DUP3 DUP2 LT ISZERO PUSH2 0x1313 JUMPI DUP5 DUP10 ADD MLOAD DUP3 SSTORE PUSH1 0x1 DUP3 ADD SWAP2 POP PUSH1 0x20 DUP6 ADD SWAP5 POP PUSH1 0x20 DUP2 ADD SWAP1 POP PUSH2 0x12EE JUMP JUMPDEST DUP7 DUP4 LT ISZERO PUSH2 0x1330 JUMPI DUP5 DUP10 ADD MLOAD PUSH2 0x132C PUSH1 0x1F DUP10 AND DUP3 PUSH2 0x123F JUMP JUMPDEST DUP4 SSTORE POP JUMPDEST PUSH1 0x1 PUSH1 0x2 DUP9 MUL ADD DUP9 SSTORE POP POP POP JUMPDEST POP POP POP POP POP POP JUMP JUMPDEST PUSH32 0x4E487B7100000000000000000000000000000000000000000000000000000000 PUSH0 MSTORE PUSH1 0x12 PUSH1 0x4 MSTORE PUSH1 0x24 PUSH0 REVERT INVALID LOG2 PUSH5 0x6970667358 0x22 SLT KECCAK256 0xE8 COINBASE GAS 0xAE SWAP1 PUSH24 0x3B73CA0D30B68F90AA4041408AEFE040CF20CF301A0EB2FD PUSH19 0x1C64736F6C634300081E003300000000000000 "
		},
		"gasEstimates": {
			"creation": {
				"codeDepositCost": "1006400",
				"executionCost": "infinite",
				"totalCost": "infinite"
			},
			"external": {
				"addPresident(string,string)": "infinite",
				"addVotingTime(uint256)": "infinite",
				"getLeaderIndex()": "infinite",
				"getPresidentsInfoString()": "infinite",
				"getVotesOfPresident(uint256)": "infinite",
				"maxVotes()": "2447",
				"setStateOfVoting(bool)": "26891",
				"totalVotes()": "2448",
				"vote(uint256)": "infinite"
			}
		},
		"methodIdentifiers": {
			"addPresident(string,string)": "be82d07d",
			"addVotingTime(uint256)": "2f6d1581",
			"getLeaderIndex()": "92bc5e2b",
			"getPresidentsInfoString()": "22c17e05",
			"getVotesOfPresident(uint256)": "7a1edd77",
			"maxVotes()": "777c3acf",
			"setStateOfVoting(bool)": "59a6026d",
			"totalVotes()": "0d15fd77",
			"vote(uint256)": "0121b93f"
		}
	},
	"abi": [
		{
			"inputs": [
				{
					"components": [
						{
							"internalType": "string",
							"name": "name",
							"type": "string"
						},
						{
							"internalType": "string",
							"name": "description",
							"type": "string"
						}
					],
					"internalType": "struct Election.President[]",
					"name": "_initialPresidents",
					"type": "tuple[]"
				},
				{
					"internalType": "uint256",
					"name": "_maxVotes",
					"type": "uint256"
				},
				{
					"internalType": "uint256",
					"name": "_electionTime",
					"type": "uint256"
				}
			],
			"stateMutability": "nonpayable",
			"type": "constructor"
		},
		{
			"inputs": [],
			"name": "ElectionWasStoppedByOwner",
			"type": "error"
		},
		{
			"inputs": [
				{
					"internalType": "uint256",
					"name": "_maxIndex",
					"type": "uint256"
				}
			],
			"name": "IndexDoesNotExist",
			"type": "error"
		},
		{
			"inputs": [
				{
					"internalType": "uint256",
					"name": "_maxVotes",
					"type": "uint256"
				}
			],
			"name": "MaximumNumberOfVotesReached",
			"type": "error"
		},
		{
			"inputs": [],
			"name": "OnlyOwnerCanControlState",
			"type": "error"
		},
		{
			"inputs": [],
			"name": "OwnerCanNotVote",
			"type": "error"
		},
		{
			"inputs": [
				{
					"internalType": "uint256",
					"name": "_electionCompletionTime",
					"type": "uint256"
				}
			],
			"name": "TimeIsUp",
			"type": "error"
		},
		{
			"inputs": [],
			"name": "YouHaveAlreadyVoted",
			"type": "error"
		},
		{
			"anonymous": false,
			"inputs": [
				{
					"indexed": false,
					"internalType": "uint256",
					"name": "_index",
					"type": "uint256"
				},
				{
					"indexed": false,
					"internalType": "address",
					"name": "_voterAddress",
					"type": "address"
				},
				{
					"indexed": false,
					"internalType": "uint256",
					"name": "_totalVotes",
					"type": "uint256"
				}
			],
			"name": "VoteIsOk",
			"type": "event"
		},
		{
			"inputs": [
				{
					"internalType": "string",
					"name": "_name",
					"type": "string"
				},
				{
					"internalType": "string",
					"name": "_description",
					"type": "string"
				}
			],
			"name": "addPresident",
			"outputs": [],
			"stateMutability": "nonpayable",
			"type": "function"
		},
		{
			"inputs": [
				{
					"internalType": "uint256",
					"name": "_additionalTime",
					"type": "uint256"
				}
			],
			"name": "addVotingTime",
			"outputs": [],
			"stateMutability": "nonpayable",
			"type": "function"
		},
		{
			"inputs": [],
			"name": "getLeaderIndex",
			"outputs": [
				{
					"internalType": "uint256",
					"name": "",
					"type": "uint256"
				}
			],
			"stateMutability": "view",
			"type": "function"
		},
		{
			"inputs": [],
			"name": "getPresidentsInfoString",
			"outputs": [
				{
					"internalType": "string",
					"name": "",
					"type": "string"
				}
			],
			"stateMutability": "view",
			"type": "function"
		},
		{
			"inputs": [
				{
					"internalType": "uint256",
					"name": "_indexOfPresident",
					"type": "uint256"
				}
			],
			"name": "getVotesOfPresident",
			"outputs": [
				{
					"internalType": "string",
					"name": "",
					"type": "string"
				}
			],
			"stateMutability": "view",
			"type": "function"
		},
		{
			"inputs": [],
			"name": "maxVotes",
			"outputs": [
				{
					"internalType": "uint256",
					"name": "",
					"type": "uint256"
				}
			],
			"stateMutability": "view",
			"type": "function"
		},
		{
			"inputs": [
				{
					"internalType": "bool",
					"name": "_isActiveVoting",
					"type": "bool"
				}
			],
			"name": "setStateOfVoting",
			"outputs": [],
			"stateMutability": "nonpayable",
			"type": "function"
		},
		{
			"inputs": [],
			"name": "totalVotes",
			"outputs": [
				{
					"internalType": "uint256",
					"name": "",
					"type": "uint256"
				}
			],
			"stateMutability": "view",
			"type": "function"
		},
		{
			"inputs": [
				{
					"internalType": "uint256",
					"name": "_indexOfPresident",
					"type": "uint256"
				}
			],
			"name": "vote",
			"outputs": [],
			"stateMutability": "nonpayable",
			"type": "function"
		}
	]
}